{
	"contracts/FunctionsConsumer.sol": {
		"FunctionsConsumer": {
			"abi": [
				{
					"inputs": [],
					"stateMutability": "nonpayable",
					"type": "constructor"
				},
				{
					"inputs": [],
					"name": "EmptyArgs",
					"type": "error"
				},
				{
					"inputs": [],
					"name": "EmptySource",
					"type": "error"
				},
				{
					"inputs": [],
					"name": "NoInlineSecrets",
					"type": "error"
				},
				{
					"inputs": [],
					"name": "OnlyRouterCanFulfill",
					"type": "error"
				},
				{
					"inputs": [
						{
							"internalType": "bytes32",
							"name": "requestId",
							"type": "bytes32"
						}
					],
					"name": "UnexpectedRequestID",
					"type": "error"
				},
				{
					"anonymous": false,
					"inputs": [
						{
							"indexed": true,
							"internalType": "bytes32",
							"name": "id",
							"type": "bytes32"
						}
					],
					"name": "RequestFulfilled",
					"type": "event"
				},
				{
					"anonymous": false,
					"inputs": [
						{
							"indexed": true,
							"internalType": "bytes32",
							"name": "id",
							"type": "bytes32"
						}
					],
					"name": "RequestSent",
					"type": "event"
				},
				{
					"anonymous": false,
					"inputs": [
						{
							"indexed": true,
							"internalType": "bytes32",
							"name": "requestId",
							"type": "bytes32"
						},
						{
							"indexed": false,
							"internalType": "string",
							"name": "temperature",
							"type": "string"
						},
						{
							"indexed": false,
							"internalType": "bytes",
							"name": "response",
							"type": "bytes"
						},
						{
							"indexed": false,
							"internalType": "bytes",
							"name": "err",
							"type": "bytes"
						}
					],
					"name": "Response",
					"type": "event"
				},
				{
					"inputs": [],
					"name": "SOURCE",
					"outputs": [
						{
							"internalType": "string",
							"name": "",
							"type": "string"
						}
					],
					"stateMutability": "view",
					"type": "function"
				},
				{
					"inputs": [
						{
							"internalType": "string",
							"name": "city",
							"type": "string"
						},
						{
							"internalType": "uint64",
							"name": "subscriptionId",
							"type": "uint64"
						}
					],
					"name": "getTemperature",
					"outputs": [
						{
							"internalType": "bytes32",
							"name": "requestId",
							"type": "bytes32"
						}
					],
					"stateMutability": "nonpayable",
					"type": "function"
				},
				{
					"inputs": [
						{
							"internalType": "bytes32",
							"name": "requestId",
							"type": "bytes32"
						},
						{
							"internalType": "bytes",
							"name": "response",
							"type": "bytes"
						},
						{
							"internalType": "bytes",
							"name": "err",
							"type": "bytes"
						}
					],
					"name": "handleOracleFulfillment",
					"outputs": [],
					"stateMutability": "nonpayable",
					"type": "function"
				},
				{
					"inputs": [],
					"name": "s_lastCity",
					"outputs": [
						{
							"internalType": "string",
							"name": "",
							"type": "string"
						}
					],
					"stateMutability": "view",
					"type": "function"
				},
				{
					"inputs": [],
					"name": "s_lastError",
					"outputs": [
						{
							"internalType": "bytes",
							"name": "",
							"type": "bytes"
						}
					],
					"stateMutability": "view",
					"type": "function"
				},
				{
					"inputs": [],
					"name": "s_lastRequestId",
					"outputs": [
						{
							"internalType": "bytes32",
							"name": "",
							"type": "bytes32"
						}
					],
					"stateMutability": "view",
					"type": "function"
				},
				{
					"inputs": [],
					"name": "s_lastResponse",
					"outputs": [
						{
							"internalType": "bytes",
							"name": "",
							"type": "bytes"
						}
					],
					"stateMutability": "view",
					"type": "function"
				},
				{
					"inputs": [],
					"name": "s_lastTemperature",
					"outputs": [
						{
							"internalType": "string",
							"name": "",
							"type": "string"
						}
					],
					"stateMutability": "view",
					"type": "function"
				},
				{
					"inputs": [],
					"name": "s_requestedCity",
					"outputs": [
						{
							"internalType": "string",
							"name": "",
							"type": "string"
						}
					],
					"stateMutability": "view",
					"type": "function"
				}
			],
			"devdoc": {
				"kind": "dev",
				"methods": {
					"handleOracleFulfillment(bytes32,bytes,bytes)": {
						"details": "Either response or error parameter will be set, but never both.",
						"params": {
							"err": "Aggregated error either from the request's source code or from the execution pipeline.",
							"requestId": "The requestId returned by FunctionsClient.sendRequest().",
							"response": "Aggregated response from the request's source code."
						}
					}
				},
				"version": 1
			},
			"evm": {
				"assembly": "    /* \"contracts/FunctionsConsumer.sol\":313:3214  contract FunctionsConsumer is FunctionsClient {... */\n  mstore(0x40, 0xa0)\n    /* \"contracts/FunctionsConsumer.sol\":1767:1807  constructor() FunctionsClient(ROUTER) {} */\n  callvalue\n  dup1\n  iszero\n  tag_1\n  jumpi\n  revert(0x00, 0x00)\ntag_1:\n  pop\n    /* \"contracts/FunctionsConsumer.sol\":860:902  0xb83E47C2bC239B3bf370bc41e1459A34b41238D0 */\n  0xb83e47c2bc239b3bf370bc41e1459a34b41238d0\n    /* \"@chainlink/contracts@1.3.0/src/v0.8/functions/v1_0_0/FunctionsClient.sol\":736:771  i_router = IFunctionsRouter(router) */\n  0x80\n  mstore\n    /* \"contracts/FunctionsConsumer.sol\":313:3214  contract FunctionsConsumer is FunctionsClient {... */\n  mload(0x80)\n  codecopy(0x00, dataOffset(sub_0), dataSize(sub_0))\n  0x00\n  assignImmutable(\"0x8e8fab5f003314da8d1873ea7720e8d9f47650136d916064d1edb8a11d682624\")\n  return(0x00, dataSize(sub_0))\nstop\n\nsub_0: assembly {\n        /* \"contracts/FunctionsConsumer.sol\":313:3214  contract FunctionsConsumer is FunctionsClient {... */\n      mstore(0x40, 0x80)\n      callvalue\n      dup1\n      iszero\n      tag_1\n      jumpi\n      revert(0x00, 0x00)\n    tag_1:\n      pop\n      jumpi(tag_2, lt(calldatasize, 0x04))\n      shr(0xe0, calldataload(0x00))\n      dup1\n      0x6e0e7c3b\n      gt\n      tag_12\n      jumpi\n      dup1\n      0x6e0e7c3b\n      eq\n      tag_7\n      jumpi\n      dup1\n      0xb1e21749\n      eq\n      tag_8\n      jumpi\n      dup1\n      0xd50cbe98\n      eq\n      tag_9\n      jumpi\n      dup1\n      0xf230b4c2\n      eq\n      tag_10\n      jumpi\n      dup1\n      0xf343f1e1\n      eq\n      tag_11\n      jumpi\n      revert(0x00, 0x00)\n    tag_12:\n      dup1\n      0x0845284e\n      eq\n      tag_3\n      jumpi\n      dup1\n      0x0ca76175\n      eq\n      tag_4\n      jumpi\n      dup1\n      0x3944ea3a\n      eq\n      tag_5\n      jumpi\n      dup1\n      0x4b0795a8\n      eq\n      tag_6\n      jumpi\n    tag_2:\n      revert(0x00, 0x00)\n        /* \"contracts/FunctionsConsumer.sol\":426:450  string public s_lastCity */\n    tag_3:\n      tag_13\n      tag_14\n      jump\t// in\n    tag_13:\n      mload(0x40)\n      tag_15\n      swap2\n      swap1\n      tag_16\n      jump\t// in\n    tag_15:\n      mload(0x40)\n      dup1\n      swap2\n      sub\n      swap1\n      return\n        /* \"@chainlink/contracts@1.3.0/src/v0.8/functions/v1_0_0/FunctionsClient.sol\":2078:2364  function handleOracleFulfillment(bytes32 requestId, bytes memory response, bytes memory err) external override {... */\n    tag_4:\n      tag_17\n      tag_18\n      calldatasize\n      0x04\n      tag_19\n      jump\t// in\n    tag_18:\n      tag_20\n      jump\t// in\n    tag_17:\n      stop\n        /* \"contracts/FunctionsConsumer.sol\":647:674  bytes public s_lastResponse */\n    tag_5:\n      tag_13\n      tag_22\n      jump\t// in\n        /* \"contracts/FunctionsConsumer.sol\":681:705  bytes public s_lastError */\n    tag_6:\n      tag_13\n      tag_26\n      jump\t// in\n        /* \"contracts/FunctionsConsumer.sol\":460:489  string public s_requestedCity */\n    tag_7:\n      tag_13\n      tag_29\n      jump\t// in\n        /* \"contracts/FunctionsConsumer.sol\":610:640  bytes32 public s_lastRequestId */\n    tag_8:\n      tag_31\n      sload(0x03)\n      dup2\n      jump\n    tag_31:\n      mload(0x40)\n        /* \"#utility.yul\":2586:2611   */\n      swap1\n      dup2\n      mstore\n        /* \"#utility.yul\":2574:2576   */\n      0x20\n        /* \"#utility.yul\":2559:2577   */\n      add\n        /* \"contracts/FunctionsConsumer.sol\":610:640  bytes32 public s_lastRequestId */\n      tag_15\n        /* \"#utility.yul\":2440:2617   */\n      jump\n        /* \"contracts/FunctionsConsumer.sol\":496:527  string public s_lastTemperature */\n    tag_9:\n      tag_13\n      tag_36\n      jump\t// in\n        /* \"contracts/FunctionsConsumer.sol\":1115:1526  string public  constant SOURCE =... */\n    tag_10:\n      tag_13\n      tag_39\n      jump\t// in\n        /* \"contracts/FunctionsConsumer.sol\":1815:2586  function getTemperature(... */\n    tag_11:\n      tag_31\n      tag_42\n      calldatasize\n      0x04\n      tag_43\n      jump\t// in\n    tag_42:\n      tag_44\n      jump\t// in\n        /* \"contracts/FunctionsConsumer.sol\":426:450  string public s_lastCity */\n    tag_14:\n      0x00\n      dup1\n      sload\n      tag_46\n      swap1\n      tag_47\n      jump\t// in\n    tag_46:\n      dup1\n      0x1f\n      add\n      0x20\n      dup1\n      swap2\n      div\n      mul\n      0x20\n      add\n      mload(0x40)\n      swap1\n      dup2\n      add\n      0x40\n      mstore\n      dup1\n      swap3\n      swap2\n      swap1\n      dup2\n      dup2\n      mstore\n      0x20\n      add\n      dup3\n      dup1\n      sload\n      tag_48\n      swap1\n      tag_47\n      jump\t// in\n    tag_48:\n      dup1\n      iszero\n      tag_49\n      jumpi\n      dup1\n      0x1f\n      lt\n      tag_50\n      jumpi\n      0x0100\n      dup1\n      dup4\n      sload\n      div\n      mul\n      dup4\n      mstore\n      swap2\n      0x20\n      add\n      swap2\n      jump(tag_49)\n    tag_50:\n      dup3\n      add\n      swap2\n      swap1\n      0x00\n      mstore\n      keccak256(0x00, 0x20)\n      swap1\n    tag_51:\n      dup2\n      sload\n      dup2\n      mstore\n      swap1\n      0x01\n      add\n      swap1\n      0x20\n      add\n      dup1\n      dup4\n      gt\n      tag_51\n      jumpi\n      dup3\n      swap1\n      sub\n      0x1f\n      and\n      dup3\n      add\n      swap2\n    tag_49:\n      pop\n      pop\n      pop\n      pop\n      pop\n      dup2\n      jump\t// out\n        /* \"@chainlink/contracts@1.3.0/src/v0.8/functions/v1_0_0/FunctionsClient.sol\":2078:2364  function handleOracleFulfillment(bytes32 requestId, bytes memory response, bytes memory err) external override {... */\n    tag_20:\n        /* \"@chainlink/contracts@1.3.0/src/v0.8/functions/v1_0_0/FunctionsClient.sol\":2199:2209  msg.sender */\n      caller\n      sub(shl(0xa0, 0x01), 0x01)\n        /* \"@chainlink/contracts@1.3.0/src/v0.8/functions/v1_0_0/FunctionsClient.sol\":2221:2229  i_router */\n      immutable(\"0x8e8fab5f003314da8d1873ea7720e8d9f47650136d916064d1edb8a11d682624\")\n        /* \"@chainlink/contracts@1.3.0/src/v0.8/functions/v1_0_0/FunctionsClient.sol\":2199:2230  msg.sender != address(i_router) */\n      and\n      eq\n        /* \"@chainlink/contracts@1.3.0/src/v0.8/functions/v1_0_0/FunctionsClient.sol\":2195:2276  if (msg.sender != address(i_router)) {... */\n      tag_53\n      jumpi\n        /* \"@chainlink/contracts@1.3.0/src/v0.8/functions/v1_0_0/FunctionsClient.sol\":2247:2269  OnlyRouterCanFulfill() */\n      mload(0x40)\n      shl(0xe0, 0xc6829f83)\n      dup2\n      mstore\n      0x04\n      add\n      mload(0x40)\n      dup1\n      swap2\n      sub\n      swap1\n      revert\n        /* \"@chainlink/contracts@1.3.0/src/v0.8/functions/v1_0_0/FunctionsClient.sol\":2195:2276  if (msg.sender != address(i_router)) {... */\n    tag_53:\n        /* \"@chainlink/contracts@1.3.0/src/v0.8/functions/v1_0_0/FunctionsClient.sol\":2281:2321  fulfillRequest(requestId, response, err) */\n      tag_54\n        /* \"@chainlink/contracts@1.3.0/src/v0.8/functions/v1_0_0/FunctionsClient.sol\":2296:2305  requestId */\n      dup4\n        /* \"@chainlink/contracts@1.3.0/src/v0.8/functions/v1_0_0/FunctionsClient.sol\":2307:2315  response */\n      dup4\n        /* \"@chainlink/contracts@1.3.0/src/v0.8/functions/v1_0_0/FunctionsClient.sol\":2317:2320  err */\n      dup4\n        /* \"@chainlink/contracts@1.3.0/src/v0.8/functions/v1_0_0/FunctionsClient.sol\":2281:2295  fulfillRequest */\n      tag_55\n        /* \"@chainlink/contracts@1.3.0/src/v0.8/functions/v1_0_0/FunctionsClient.sol\":2281:2321  fulfillRequest(requestId, response, err) */\n      jump\t// in\n    tag_54:\n        /* \"@chainlink/contracts@1.3.0/src/v0.8/functions/v1_0_0/FunctionsClient.sol\":2332:2359  RequestFulfilled(requestId) */\n      mload(0x40)\n        /* \"@chainlink/contracts@1.3.0/src/v0.8/functions/v1_0_0/FunctionsClient.sol\":2349:2358  requestId */\n      dup4\n      swap1\n        /* \"@chainlink/contracts@1.3.0/src/v0.8/functions/v1_0_0/FunctionsClient.sol\":2332:2359  RequestFulfilled(requestId) */\n      0x85e1543bf2f84fe80c6badbce3648c8539ad1df4d2b3d822938ca0538be727e6\n      swap1\n      0x00\n      swap1\n      log2\n        /* \"@chainlink/contracts@1.3.0/src/v0.8/functions/v1_0_0/FunctionsClient.sol\":2078:2364  function handleOracleFulfillment(bytes32 requestId, bytes memory response, bytes memory err) external override {... */\n      pop\n      pop\n      pop\n      jump\t// out\n        /* \"contracts/FunctionsConsumer.sol\":647:674  bytes public s_lastResponse */\n    tag_22:\n      0x04\n      dup1\n      sload\n      tag_46\n      swap1\n      tag_47\n      jump\t// in\n        /* \"contracts/FunctionsConsumer.sol\":681:705  bytes public s_lastError */\n    tag_26:\n      0x05\n      dup1\n      sload\n      tag_46\n      swap1\n      tag_47\n      jump\t// in\n        /* \"contracts/FunctionsConsumer.sol\":460:489  string public s_requestedCity */\n    tag_29:\n      0x01\n      dup1\n      sload\n      tag_46\n      swap1\n      tag_47\n      jump\t// in\n        /* \"contracts/FunctionsConsumer.sol\":496:527  string public s_lastTemperature */\n    tag_36:\n      0x02\n      dup1\n      sload\n      tag_46\n      swap1\n      tag_47\n      jump\t// in\n        /* \"contracts/FunctionsConsumer.sol\":1115:1526  string public  constant SOURCE =... */\n    tag_39:\n      mload(0x40)\n      dup1\n      0x0140\n      add\n      0x40\n      mstore\n      dup1\n      0x0103\n      dup2\n      mstore\n      0x20\n      add\n      data_6ed21e9c87a8dfef6fdf85f2f7bdf69a9b42c764c66081ff64c14457b3f6fcc6\n      0x0103\n      swap2\n      codecopy\n      dup2\n      jump\t// out\n        /* \"contracts/FunctionsConsumer.sol\":1815:2586  function getTemperature(... */\n    tag_44:\n        /* \"contracts/FunctionsConsumer.sol\":1925:1942  bytes32 requestId */\n      0x00\n        /* \"contracts/FunctionsConsumer.sol\":1955:1990  FunctionsRequest.Request memory req */\n      tag_77\n      0x40\n      dup1\n      mload\n      0xe0\n      dup2\n      add\n      swap1\n      swap2\n      mstore\n      dup1\n      0x00\n      dup2\n      mstore\n      0x20\n      add\n      0x00\n      dup2\n      mstore\n      0x20\n      add\n      0x00\n      dup2\n      mstore\n      0x20\n      add\n      0x60\n      dup2\n      mstore\n      0x20\n      add\n      0x60\n      dup2\n      mstore\n      0x20\n      add\n      0x60\n      dup2\n      mstore\n      0x20\n      add\n      0x60\n      dup2\n      mstore\n      pop\n      swap1\n      jump\n    tag_77:\n        /* \"contracts/FunctionsConsumer.sol\":2001:2049  req.initializeRequestForInlineJavaScript(SOURCE) */\n      tag_79\n        /* \"contracts/FunctionsConsumer.sol\":2042:2048  SOURCE */\n      mload(0x40)\n      dup1\n      0x0140\n      add\n      0x40\n      mstore\n      dup1\n      0x0103\n      dup2\n      mstore\n      0x20\n      add\n      data_6ed21e9c87a8dfef6fdf85f2f7bdf69a9b42c764c66081ff64c14457b3f6fcc6\n      0x0103\n      swap2\n      codecopy\n        /* \"contracts/FunctionsConsumer.sol\":2001:2004  req */\n      dup3\n      swap1\n        /* \"contracts/FunctionsConsumer.sol\":2001:2041  req.initializeRequestForInlineJavaScript */\n      tag_80\n        /* \"contracts/FunctionsConsumer.sol\":2001:2049  req.initializeRequestForInlineJavaScript(SOURCE) */\n      jump\t// in\n    tag_79:\n        /* \"contracts/FunctionsConsumer.sol\":2124:2139  new string[](1) */\n      0x40\n      dup1\n      mload\n        /* \"contracts/FunctionsConsumer.sol\":2137:2138  1 */\n      0x01\n        /* \"contracts/FunctionsConsumer.sol\":2124:2139  new string[](1) */\n      dup1\n      dup3\n      mstore\n      dup2\n      dup4\n      add\n      swap1\n      swap3\n      mstore\n        /* \"contracts/FunctionsConsumer.sol\":2101:2121  string[] memory args */\n      0x00\n      swap2\n        /* \"contracts/FunctionsConsumer.sol\":2124:2139  new string[](1) */\n      dup2\n      0x20\n      add\n    tag_85:\n      0x60\n      dup2\n      mstore\n      0x20\n      add\n      swap1\n      0x01\n      swap1\n      sub\n      swap1\n      dup2\n      tag_85\n      jumpi\n      swap1\n      pop\n      pop\n        /* \"contracts/FunctionsConsumer.sol\":2101:2139  string[] memory args = new string[](1) */\n      swap1\n      pop\n        /* \"contracts/FunctionsConsumer.sol\":2160:2164  city */\n      dup5\n        /* \"contracts/FunctionsConsumer.sol\":2150:2154  args */\n      dup2\n        /* \"contracts/FunctionsConsumer.sol\":2155:2156  0 */\n      0x00\n        /* \"contracts/FunctionsConsumer.sol\":2150:2157  args[0] */\n      dup2\n      mload\n      dup2\n      lt\n      tag_87\n      jumpi\n      tag_87\n      tag_88\n      jump\t// in\n    tag_87:\n      0x20\n      swap1\n      dup2\n      mul\n      swap2\n      swap1\n      swap2\n      add\n      add\n        /* \"contracts/FunctionsConsumer.sol\":2150:2164  args[0] = city */\n      mstore\n        /* \"contracts/FunctionsConsumer.sol\":2175:2192  req.setArgs(args) */\n      tag_89\n        /* \"contracts/FunctionsConsumer.sol\":2175:2178  req */\n      dup3\n        /* \"contracts/FunctionsConsumer.sol\":2187:2191  args */\n      dup3\n        /* \"contracts/FunctionsConsumer.sol\":2175:2186  req.setArgs */\n      tag_90\n        /* \"contracts/FunctionsConsumer.sol\":2175:2192  req.setArgs(args) */\n      jump\t// in\n    tag_89:\n        /* \"contracts/FunctionsConsumer.sol\":2314:2442  _sendRequest(... */\n      tag_91\n        /* \"contracts/FunctionsConsumer.sol\":2341:2357  req.encodeCBOR() */\n      tag_92\n        /* \"contracts/FunctionsConsumer.sol\":2341:2344  req */\n      dup4\n        /* \"contracts/FunctionsConsumer.sol\":2341:2355  req.encodeCBOR */\n      tag_93\n        /* \"contracts/FunctionsConsumer.sol\":2341:2357  req.encodeCBOR() */\n      jump\t// in\n    tag_92:\n        /* \"contracts/FunctionsConsumer.sol\":2372:2386  subscriptionId */\n      dup6\n        /* \"contracts/FunctionsConsumer.sol\":1071:1077  300000 */\n      0x0493e0\n      shl(0x50, 0x66756e2d657468657265756d2d7365706f6c69612d31)\n        /* \"contracts/FunctionsConsumer.sol\":2314:2326  _sendRequest */\n      tag_94\n        /* \"contracts/FunctionsConsumer.sol\":2314:2442  _sendRequest(... */\n      jump\t// in\n    tag_91:\n        /* \"contracts/FunctionsConsumer.sol\":2296:2311  s_lastRequestId */\n      0x03\n        /* \"contracts/FunctionsConsumer.sol\":2296:2442  s_lastRequestId = _sendRequest(... */\n      sstore\n        /* \"contracts/FunctionsConsumer.sol\":2523:2538  s_requestedCity */\n      0x01\n        /* \"contracts/FunctionsConsumer.sol\":2523:2545  s_requestedCity = city */\n      tag_95\n        /* \"contracts/FunctionsConsumer.sol\":2541:2545  city */\n      dup7\n        /* \"contracts/FunctionsConsumer.sol\":2523:2538  s_requestedCity */\n      dup3\n        /* \"contracts/FunctionsConsumer.sol\":2523:2545  s_requestedCity = city */\n      tag_96\n      jump\t// in\n    tag_95:\n      pop\n        /* \"contracts/FunctionsConsumer.sol\":2563:2578  s_lastRequestId */\n      sload(0x03)\n        /* \"contracts/FunctionsConsumer.sol\":2556:2578  return s_lastRequestId */\n      swap3\n      pop\n      pop\n      pop\n        /* \"contracts/FunctionsConsumer.sol\":1815:2586  function getTemperature(... */\n    tag_76:\n      swap3\n      swap2\n      pop\n      pop\n      jump\t// out\n        /* \"contracts/FunctionsConsumer.sol\":2644:3211  function fulfillRequest(... */\n    tag_55:\n        /* \"contracts/FunctionsConsumer.sol\":2814:2823  requestId */\n      dup3\n        /* \"contracts/FunctionsConsumer.sol\":2795:2810  s_lastRequestId */\n      sload(0x03)\n        /* \"contracts/FunctionsConsumer.sol\":2795:2823  s_lastRequestId != requestId */\n      eq\n        /* \"contracts/FunctionsConsumer.sol\":2791:2919  if (s_lastRequestId != requestId) {... */\n      tag_98\n      jumpi\n        /* \"contracts/FunctionsConsumer.sol\":2847:2877  UnexpectedRequestID(requestId) */\n      mload(0x40)\n      shl(0xe0, 0xd068bf5b)\n      dup2\n      mstore\n      0x04\n      dup2\n      add\n        /* \"#utility.yul\":2586:2611   */\n      dup5\n      swap1\n      mstore\n        /* \"#utility.yul\":2559:2577   */\n      0x24\n      add\n        /* \"contracts/FunctionsConsumer.sol\":2847:2877  UnexpectedRequestID(requestId) */\n      mload(0x40)\n      dup1\n      swap2\n      sub\n      swap1\n      revert\n        /* \"contracts/FunctionsConsumer.sol\":2791:2919  if (s_lastRequestId != requestId) {... */\n    tag_98:\n        /* \"contracts/FunctionsConsumer.sol\":2931:2942  s_lastError */\n      0x05\n        /* \"contracts/FunctionsConsumer.sol\":2931:2948  s_lastError = err */\n      tag_100\n        /* \"contracts/FunctionsConsumer.sol\":2945:2948  err */\n      dup3\n        /* \"contracts/FunctionsConsumer.sol\":2931:2942  s_lastError */\n      dup3\n        /* \"contracts/FunctionsConsumer.sol\":2931:2948  s_lastError = err */\n      tag_96\n      jump\t// in\n    tag_100:\n      pop\n        /* \"contracts/FunctionsConsumer.sol\":2959:2973  s_lastResponse */\n      0x04\n        /* \"contracts/FunctionsConsumer.sol\":2959:2984  s_lastResponse = response */\n      tag_102\n        /* \"contracts/FunctionsConsumer.sol\":2976:2984  response */\n      dup4\n        /* \"contracts/FunctionsConsumer.sol\":2959:2973  s_lastResponse */\n      dup3\n        /* \"contracts/FunctionsConsumer.sol\":2959:2984  s_lastResponse = response */\n      tag_96\n      jump\t// in\n    tag_102:\n      pop\n        /* \"contracts/FunctionsConsumer.sol\":2997:3014  s_lastTemperature */\n      0x02\n        /* \"contracts/FunctionsConsumer.sol\":2997:3033  s_lastTemperature = string(response) */\n      tag_103\n        /* \"contracts/FunctionsConsumer.sol\":3024:3032  response */\n      dup4\n        /* \"contracts/FunctionsConsumer.sol\":2997:3014  s_lastTemperature */\n      dup3\n        /* \"contracts/FunctionsConsumer.sol\":2997:3033  s_lastTemperature = string(response) */\n      tag_96\n      jump\t// in\n    tag_103:\n      pop\n        /* \"contracts/FunctionsConsumer.sol\":3044:3054  s_lastCity */\n      0x00\n        /* \"contracts/FunctionsConsumer.sol\":3044:3072  s_lastCity = s_requestedCity */\n      tag_104\n        /* \"contracts/FunctionsConsumer.sol\":3057:3072  s_requestedCity */\n      0x01\n        /* \"contracts/FunctionsConsumer.sol\":3044:3054  s_lastCity */\n      dup3\n        /* \"contracts/FunctionsConsumer.sol\":3044:3072  s_lastCity = s_requestedCity */\n      tag_105\n      jump\t// in\n    tag_104:\n      pop\n        /* \"contracts/FunctionsConsumer.sol\":3145:3154  requestId */\n      dup3\n        /* \"contracts/FunctionsConsumer.sol\":3136:3203  Response(requestId, s_lastTemperature, s_lastResponse, s_lastError) */\n      0x160ed0aaffbef6885155188b91459cb5a97d5daadccf7561d8c46deea6641b50\n        /* \"contracts/FunctionsConsumer.sol\":3156:3173  s_lastTemperature */\n      0x02\n        /* \"contracts/FunctionsConsumer.sol\":3175:3189  s_lastResponse */\n      0x04\n        /* \"contracts/FunctionsConsumer.sol\":3191:3202  s_lastError */\n      0x05\n        /* \"contracts/FunctionsConsumer.sol\":3136:3203  Response(requestId, s_lastTemperature, s_lastResponse, s_lastError) */\n      mload(0x40)\n      tag_106\n      swap4\n      swap3\n      swap2\n      swap1\n      tag_107\n      jump\t// in\n    tag_106:\n      mload(0x40)\n      dup1\n      swap2\n      sub\n      swap1\n      log2\n        /* \"contracts/FunctionsConsumer.sol\":2644:3211  function fulfillRequest(... */\n      pop\n      pop\n      pop\n      jump\t// out\n        /* \"@chainlink/contracts@1.3.0/src/v0.8/functions/v1_0_0/libraries/FunctionsRequest.sol\":4323:4530  function initializeRequestForInlineJavaScript(Request memory self, string memory javaScriptSource) internal pure {... */\n    tag_80:\n        /* \"@chainlink/contracts@1.3.0/src/v0.8/functions/v1_0_0/libraries/FunctionsRequest.sol\":4442:4525  initializeRequest(self, Location.Inline, CodeLanguage.JavaScript, javaScriptSource) */\n      tag_109\n        /* \"@chainlink/contracts@1.3.0/src/v0.8/functions/v1_0_0/libraries/FunctionsRequest.sol\":4460:4464  self */\n      dup3\n        /* \"@chainlink/contracts@1.3.0/src/v0.8/functions/v1_0_0/libraries/FunctionsRequest.sol\":4466:4481  Location.Inline */\n      0x00\n        /* \"@chainlink/contracts@1.3.0/src/v0.8/functions/v1_0_0/libraries/FunctionsRequest.sol\":4483:4506  CodeLanguage.JavaScript */\n      0x00\n        /* \"@chainlink/contracts@1.3.0/src/v0.8/functions/v1_0_0/libraries/FunctionsRequest.sol\":4508:4524  javaScriptSource */\n      dup5\n        /* \"@chainlink/contracts@1.3.0/src/v0.8/functions/v1_0_0/libraries/FunctionsRequest.sol\":4442:4459  initializeRequest */\n      tag_110\n        /* \"@chainlink/contracts@1.3.0/src/v0.8/functions/v1_0_0/libraries/FunctionsRequest.sol\":4442:4525  initializeRequest(self, Location.Inline, CodeLanguage.JavaScript, javaScriptSource) */\n      jump\t// in\n    tag_109:\n        /* \"@chainlink/contracts@1.3.0/src/v0.8/functions/v1_0_0/libraries/FunctionsRequest.sol\":4323:4530  function initializeRequestForInlineJavaScript(Request memory self, string memory javaScriptSource) internal pure {... */\n      pop\n      pop\n      jump\t// out\n        /* \"@chainlink/contracts@1.3.0/src/v0.8/functions/v1_0_0/libraries/FunctionsRequest.sol\":5827:5975  function setArgs(Request memory self, string[] memory args) internal pure {... */\n    tag_90:\n        /* \"@chainlink/contracts@1.3.0/src/v0.8/functions/v1_0_0/libraries/FunctionsRequest.sol\":5911:5915  args */\n      dup1\n        /* \"@chainlink/contracts@1.3.0/src/v0.8/functions/v1_0_0/libraries/FunctionsRequest.sol\":5911:5922  args.length */\n      mload\n        /* \"@chainlink/contracts@1.3.0/src/v0.8/functions/v1_0_0/libraries/FunctionsRequest.sol\":5926:5927  0 */\n      0x00\n        /* \"@chainlink/contracts@1.3.0/src/v0.8/functions/v1_0_0/libraries/FunctionsRequest.sol\":5911:5927  args.length == 0 */\n      sub\n        /* \"@chainlink/contracts@1.3.0/src/v0.8/functions/v1_0_0/libraries/FunctionsRequest.sol\":5907:5947  if (args.length == 0) revert EmptyArgs() */\n      tag_112\n      jumpi\n        /* \"@chainlink/contracts@1.3.0/src/v0.8/functions/v1_0_0/libraries/FunctionsRequest.sol\":5936:5947  EmptyArgs() */\n      mload(0x40)\n      shl(0xe0, 0xfe936cb7)\n      dup2\n      mstore\n      0x04\n      add\n      mload(0x40)\n      dup1\n      swap2\n      sub\n      swap1\n      revert\n        /* \"@chainlink/contracts@1.3.0/src/v0.8/functions/v1_0_0/libraries/FunctionsRequest.sol\":5907:5947  if (args.length == 0) revert EmptyArgs() */\n    tag_112:\n        /* \"@chainlink/contracts@1.3.0/src/v0.8/functions/v1_0_0/libraries/FunctionsRequest.sol\":5954:5963  self.args */\n      0xa0\n      swap1\n      swap2\n      add\n        /* \"@chainlink/contracts@1.3.0/src/v0.8/functions/v1_0_0/libraries/FunctionsRequest.sol\":5954:5970  self.args = args */\n      mstore\n        /* \"@chainlink/contracts@1.3.0/src/v0.8/functions/v1_0_0/libraries/FunctionsRequest.sol\":5827:5975  function setArgs(Request memory self, string[] memory args) internal pure {... */\n      jump\t// out\n        /* \"@chainlink/contracts@1.3.0/src/v0.8/functions/v1_0_0/libraries/FunctionsRequest.sol\":2158:3428  function encodeCBOR(Request memory self) internal pure returns (bytes memory) {... */\n    tag_93:\n        /* \"@chainlink/contracts@1.3.0/src/v0.8/functions/v1_0_0/libraries/FunctionsRequest.sol\":2222:2234  bytes memory */\n      0x60\n        /* \"@chainlink/contracts@1.3.0/src/v0.8/functions/v1_0_0/libraries/FunctionsRequest.sol\":2242:2271  CBOR.CBORBuffer memory buffer */\n      0x00\n        /* \"@chainlink/contracts@1.3.0/src/v0.8/functions/v1_0_0/libraries/FunctionsRequest.sol\":2274:2306  CBOR.create(DEFAULT_BUFFER_SIZE) */\n      tag_114\n        /* \"@chainlink/contracts@1.3.0/src/v0.8/functions/v1_0_0/libraries/FunctionsRequest.sol\":375:378  256 */\n      0x0100\n        /* \"@chainlink/contracts@1.3.0/src/v0.8/functions/v1_0_0/libraries/FunctionsRequest.sol\":2274:2285  CBOR.create */\n      tag_115\n        /* \"@chainlink/contracts@1.3.0/src/v0.8/functions/v1_0_0/libraries/FunctionsRequest.sol\":2274:2306  CBOR.create(DEFAULT_BUFFER_SIZE) */\n      jump\t// in\n    tag_114:\n        /* \"@chainlink/contracts@1.3.0/src/v0.8/functions/v1_0_0/libraries/FunctionsRequest.sol\":2242:2306  CBOR.CBORBuffer memory buffer = CBOR.create(DEFAULT_BUFFER_SIZE) */\n      swap1\n      pop\n        /* \"@chainlink/contracts@1.3.0/src/v0.8/functions/v1_0_0/libraries/FunctionsRequest.sol\":2313:2347  buffer.writeString(\"codeLocation\") */\n      tag_116\n      mload(0x40)\n      dup1\n      0x40\n      add\n      0x40\n      mstore\n      dup1\n      0x0c\n      dup2\n      mstore\n      0x20\n      add\n      shl(0xa1, 0x31b7b232a637b1b0ba34b7b7)\n      dup2\n      mstore\n      pop\n        /* \"@chainlink/contracts@1.3.0/src/v0.8/functions/v1_0_0/libraries/FunctionsRequest.sol\":2313:2319  buffer */\n      dup3\n        /* \"@chainlink/contracts@1.3.0/src/v0.8/functions/v1_0_0/libraries/FunctionsRequest.sol\":2313:2331  buffer.writeString */\n      tag_117\n      swap1\n        /* \"@chainlink/contracts@1.3.0/src/v0.8/functions/v1_0_0/libraries/FunctionsRequest.sol\":2313:2347  buffer.writeString(\"codeLocation\") */\n      swap2\n      swap1\n      0xffffffff\n      and\n      jump\t// in\n    tag_116:\n        /* \"@chainlink/contracts@1.3.0/src/v0.8/functions/v1_0_0/libraries/FunctionsRequest.sol\":2381:2398  self.codeLocation */\n      dup3\n      mload\n        /* \"@chainlink/contracts@1.3.0/src/v0.8/functions/v1_0_0/libraries/FunctionsRequest.sol\":2353:2400  buffer.writeUInt256(uint256(self.codeLocation)) */\n      tag_118\n      swap1\n        /* \"@chainlink/contracts@1.3.0/src/v0.8/functions/v1_0_0/libraries/FunctionsRequest.sol\":2373:2399  uint256(self.codeLocation) */\n      0x02\n      dup2\n      gt\n      iszero\n      tag_120\n      jumpi\n      tag_120\n      tag_121\n      jump\t// in\n    tag_120:\n        /* \"@chainlink/contracts@1.3.0/src/v0.8/functions/v1_0_0/libraries/FunctionsRequest.sol\":2353:2359  buffer */\n      dup3\n      swap1\n        /* \"@chainlink/contracts@1.3.0/src/v0.8/functions/v1_0_0/libraries/FunctionsRequest.sol\":2353:2372  buffer.writeUInt256 */\n      tag_122\n        /* \"@chainlink/contracts@1.3.0/src/v0.8/functions/v1_0_0/libraries/FunctionsRequest.sol\":2353:2400  buffer.writeUInt256(uint256(self.codeLocation)) */\n      jump\t// in\n    tag_118:\n        /* \"@chainlink/contracts@1.3.0/src/v0.8/functions/v1_0_0/libraries/FunctionsRequest.sol\":2407:2437  buffer.writeString(\"language\") */\n      0x40\n      dup1\n      mload\n      dup1\n      dup3\n      add\n      swap1\n      swap2\n      mstore\n      0x08\n      dup2\n      mstore\n      shl(0xc0, 0x6c616e6775616765)\n      0x20\n      dup3\n      add\n      mstore\n      tag_123\n      swap1\n        /* \"@chainlink/contracts@1.3.0/src/v0.8/functions/v1_0_0/libraries/FunctionsRequest.sol\":2407:2413  buffer */\n      dup3\n      swap1\n        /* \"@chainlink/contracts@1.3.0/src/v0.8/functions/v1_0_0/libraries/FunctionsRequest.sol\":2407:2425  buffer.writeString */\n      tag_117\n        /* \"@chainlink/contracts@1.3.0/src/v0.8/functions/v1_0_0/libraries/FunctionsRequest.sol\":2407:2437  buffer.writeString(\"language\") */\n      jump\t// in\n    tag_123:\n        /* \"@chainlink/contracts@1.3.0/src/v0.8/functions/v1_0_0/libraries/FunctionsRequest.sol\":2471:2484  self.language */\n      0x40\n      dup4\n      add\n      mload\n        /* \"@chainlink/contracts@1.3.0/src/v0.8/functions/v1_0_0/libraries/FunctionsRequest.sol\":2443:2486  buffer.writeUInt256(uint256(self.language)) */\n      tag_124\n      swap1\n        /* \"@chainlink/contracts@1.3.0/src/v0.8/functions/v1_0_0/libraries/FunctionsRequest.sol\":2463:2485  uint256(self.language) */\n      dup1\n      iszero\n      tag_120\n      jumpi\n      tag_120\n      tag_121\n      jump\t// in\n        /* \"@chainlink/contracts@1.3.0/src/v0.8/functions/v1_0_0/libraries/FunctionsRequest.sol\":2443:2486  buffer.writeUInt256(uint256(self.language)) */\n    tag_124:\n        /* \"@chainlink/contracts@1.3.0/src/v0.8/functions/v1_0_0/libraries/FunctionsRequest.sol\":2493:2521  buffer.writeString(\"source\") */\n      0x40\n      dup1\n      mload\n      dup1\n      dup3\n      add\n      swap1\n      swap2\n      mstore\n      0x06\n      dup2\n      mstore\n      shl(0xd0, 0x736f75726365)\n      0x20\n      dup3\n      add\n      mstore\n      tag_127\n      swap1\n        /* \"@chainlink/contracts@1.3.0/src/v0.8/functions/v1_0_0/libraries/FunctionsRequest.sol\":2493:2499  buffer */\n      dup3\n      swap1\n        /* \"@chainlink/contracts@1.3.0/src/v0.8/functions/v1_0_0/libraries/FunctionsRequest.sol\":2493:2511  buffer.writeString */\n      tag_117\n        /* \"@chainlink/contracts@1.3.0/src/v0.8/functions/v1_0_0/libraries/FunctionsRequest.sol\":2493:2521  buffer.writeString(\"source\") */\n      jump\t// in\n    tag_127:\n        /* \"@chainlink/contracts@1.3.0/src/v0.8/functions/v1_0_0/libraries/FunctionsRequest.sol\":2546:2557  self.source */\n      0x60\n      dup4\n      add\n      mload\n        /* \"@chainlink/contracts@1.3.0/src/v0.8/functions/v1_0_0/libraries/FunctionsRequest.sol\":2527:2558  buffer.writeString(self.source) */\n      tag_128\n      swap1\n        /* \"@chainlink/contracts@1.3.0/src/v0.8/functions/v1_0_0/libraries/FunctionsRequest.sol\":2527:2533  buffer */\n      dup3\n      swap1\n        /* \"@chainlink/contracts@1.3.0/src/v0.8/functions/v1_0_0/libraries/FunctionsRequest.sol\":2527:2545  buffer.writeString */\n      tag_117\n        /* \"@chainlink/contracts@1.3.0/src/v0.8/functions/v1_0_0/libraries/FunctionsRequest.sol\":2527:2558  buffer.writeString(self.source) */\n      jump\t// in\n    tag_128:\n        /* \"@chainlink/contracts@1.3.0/src/v0.8/functions/v1_0_0/libraries/FunctionsRequest.sol\":2569:2578  self.args */\n      0xa0\n      dup4\n      add\n      mload\n        /* \"@chainlink/contracts@1.3.0/src/v0.8/functions/v1_0_0/libraries/FunctionsRequest.sol\":2569:2585  self.args.length */\n      mload\n        /* \"@chainlink/contracts@1.3.0/src/v0.8/functions/v1_0_0/libraries/FunctionsRequest.sol\":2569:2589  self.args.length > 0 */\n      iszero\n        /* \"@chainlink/contracts@1.3.0/src/v0.8/functions/v1_0_0/libraries/FunctionsRequest.sol\":2565:2792  if (self.args.length > 0) {... */\n      tag_139\n      jumpi\n        /* \"@chainlink/contracts@1.3.0/src/v0.8/functions/v1_0_0/libraries/FunctionsRequest.sol\":2599:2625  buffer.writeString(\"args\") */\n      0x40\n      dup1\n      mload\n      dup1\n      dup3\n      add\n      swap1\n      swap2\n      mstore\n      0x04\n      dup2\n      mstore\n      shl(0xe0, 0x61726773)\n      0x20\n      dup3\n      add\n      mstore\n      tag_130\n      swap1\n        /* \"@chainlink/contracts@1.3.0/src/v0.8/functions/v1_0_0/libraries/FunctionsRequest.sol\":2599:2605  buffer */\n      dup3\n      swap1\n        /* \"@chainlink/contracts@1.3.0/src/v0.8/functions/v1_0_0/libraries/FunctionsRequest.sol\":2599:2617  buffer.writeString */\n      tag_117\n        /* \"@chainlink/contracts@1.3.0/src/v0.8/functions/v1_0_0/libraries/FunctionsRequest.sol\":2599:2625  buffer.writeString(\"args\") */\n      jump\t// in\n    tag_130:\n        /* \"@chainlink/contracts@1.3.0/src/v0.8/functions/v1_0_0/libraries/FunctionsRequest.sol\":2633:2652  buffer.startArray() */\n      tag_131\n        /* \"@chainlink/contracts@1.3.0/src/v0.8/functions/v1_0_0/libraries/FunctionsRequest.sol\":2633:2639  buffer */\n      dup2\n        /* \"@chainlink/contracts@1.3.0/src/v0.8/functions/v1_0_0/libraries/FunctionsRequest.sol\":2633:2650  buffer.startArray */\n      tag_132\n        /* \"@chainlink/contracts@1.3.0/src/v0.8/functions/v1_0_0/libraries/FunctionsRequest.sol\":2633:2652  buffer.startArray() */\n      jump\t// in\n    tag_131:\n        /* \"@chainlink/contracts@1.3.0/src/v0.8/functions/v1_0_0/libraries/FunctionsRequest.sol\":2665:2674  uint256 i */\n      0x00\n        /* \"@chainlink/contracts@1.3.0/src/v0.8/functions/v1_0_0/libraries/FunctionsRequest.sol\":2660:2758  for (uint256 i = 0; i < self.args.length; ++i) {... */\n    tag_133:\n        /* \"@chainlink/contracts@1.3.0/src/v0.8/functions/v1_0_0/libraries/FunctionsRequest.sol\":2684:2688  self */\n      dup4\n        /* \"@chainlink/contracts@1.3.0/src/v0.8/functions/v1_0_0/libraries/FunctionsRequest.sol\":2684:2693  self.args */\n      0xa0\n      add\n      mload\n        /* \"@chainlink/contracts@1.3.0/src/v0.8/functions/v1_0_0/libraries/FunctionsRequest.sol\":2684:2700  self.args.length */\n      mload\n        /* \"@chainlink/contracts@1.3.0/src/v0.8/functions/v1_0_0/libraries/FunctionsRequest.sol\":2680:2681  i */\n      dup2\n        /* \"@chainlink/contracts@1.3.0/src/v0.8/functions/v1_0_0/libraries/FunctionsRequest.sol\":2680:2700  i < self.args.length */\n      lt\n        /* \"@chainlink/contracts@1.3.0/src/v0.8/functions/v1_0_0/libraries/FunctionsRequest.sol\":2660:2758  for (uint256 i = 0; i < self.args.length; ++i) {... */\n      iszero\n      tag_134\n      jumpi\n        /* \"@chainlink/contracts@1.3.0/src/v0.8/functions/v1_0_0/libraries/FunctionsRequest.sol\":2717:2749  buffer.writeString(self.args[i]) */\n      tag_136\n        /* \"@chainlink/contracts@1.3.0/src/v0.8/functions/v1_0_0/libraries/FunctionsRequest.sol\":2736:2740  self */\n      dup5\n        /* \"@chainlink/contracts@1.3.0/src/v0.8/functions/v1_0_0/libraries/FunctionsRequest.sol\":2736:2745  self.args */\n      0xa0\n      add\n      mload\n        /* \"@chainlink/contracts@1.3.0/src/v0.8/functions/v1_0_0/libraries/FunctionsRequest.sol\":2746:2747  i */\n      dup3\n        /* \"@chainlink/contracts@1.3.0/src/v0.8/functions/v1_0_0/libraries/FunctionsRequest.sol\":2736:2748  self.args[i] */\n      dup2\n      mload\n      dup2\n      lt\n      tag_138\n      jumpi\n      tag_138\n      tag_88\n      jump\t// in\n    tag_138:\n      0x20\n      mul\n      0x20\n      add\n      add\n      mload\n        /* \"@chainlink/contracts@1.3.0/src/v0.8/functions/v1_0_0/libraries/FunctionsRequest.sol\":2717:2723  buffer */\n      dup4\n        /* \"@chainlink/contracts@1.3.0/src/v0.8/functions/v1_0_0/libraries/FunctionsRequest.sol\":2717:2735  buffer.writeString */\n      tag_117\n      swap1\n        /* \"@chainlink/contracts@1.3.0/src/v0.8/functions/v1_0_0/libraries/FunctionsRequest.sol\":2717:2749  buffer.writeString(self.args[i]) */\n      swap2\n      swap1\n      0xffffffff\n      and\n      jump\t// in\n    tag_136:\n        /* \"@chainlink/contracts@1.3.0/src/v0.8/functions/v1_0_0/libraries/FunctionsRequest.sol\":2702:2705  ++i */\n      0x01\n      add\n        /* \"@chainlink/contracts@1.3.0/src/v0.8/functions/v1_0_0/libraries/FunctionsRequest.sol\":2660:2758  for (uint256 i = 0; i < self.args.length; ++i) {... */\n      jump(tag_133)\n    tag_134:\n      pop\n        /* \"@chainlink/contracts@1.3.0/src/v0.8/functions/v1_0_0/libraries/FunctionsRequest.sol\":2765:2785  buffer.endSequence() */\n      tag_139\n        /* \"@chainlink/contracts@1.3.0/src/v0.8/functions/v1_0_0/libraries/FunctionsRequest.sol\":2765:2771  buffer */\n      dup2\n        /* \"@chainlink/contracts@1.3.0/src/v0.8/functions/v1_0_0/libraries/FunctionsRequest.sol\":2765:2783  buffer.endSequence */\n      tag_140\n        /* \"@chainlink/contracts@1.3.0/src/v0.8/functions/v1_0_0/libraries/FunctionsRequest.sol\":2765:2785  buffer.endSequence() */\n      jump\t// in\n    tag_139:\n        /* \"@chainlink/contracts@1.3.0/src/v0.8/functions/v1_0_0/libraries/FunctionsRequest.sol\":2802:2832  self.encryptedSecretsReference */\n      0x80\n      dup4\n      add\n      mload\n        /* \"@chainlink/contracts@1.3.0/src/v0.8/functions/v1_0_0/libraries/FunctionsRequest.sol\":2802:2839  self.encryptedSecretsReference.length */\n      mload\n        /* \"@chainlink/contracts@1.3.0/src/v0.8/functions/v1_0_0/libraries/FunctionsRequest.sol\":2802:2843  self.encryptedSecretsReference.length > 0 */\n      iszero\n        /* \"@chainlink/contracts@1.3.0/src/v0.8/functions/v1_0_0/libraries/FunctionsRequest.sol\":2798:3144  if (self.encryptedSecretsReference.length > 0) {... */\n      tag_152\n      jumpi\n        /* \"@chainlink/contracts@1.3.0/src/v0.8/functions/v1_0_0/libraries/FunctionsRequest.sol\":2881:2896  Location.Inline */\n      0x00\n        /* \"@chainlink/contracts@1.3.0/src/v0.8/functions/v1_0_0/libraries/FunctionsRequest.sol\":2857:2861  self */\n      dup4\n        /* \"@chainlink/contracts@1.3.0/src/v0.8/functions/v1_0_0/libraries/FunctionsRequest.sol\":2857:2877  self.secretsLocation */\n      0x20\n      add\n      mload\n        /* \"@chainlink/contracts@1.3.0/src/v0.8/functions/v1_0_0/libraries/FunctionsRequest.sol\":2857:2896  self.secretsLocation == Location.Inline */\n      0x02\n      dup2\n      gt\n      iszero\n      tag_145\n      jumpi\n      tag_145\n      tag_121\n      jump\t// in\n    tag_145:\n      sub\n        /* \"@chainlink/contracts@1.3.0/src/v0.8/functions/v1_0_0/libraries/FunctionsRequest.sol\":2853:2941  if (self.secretsLocation == Location.Inline) {... */\n      tag_146\n      jumpi\n        /* \"@chainlink/contracts@1.3.0/src/v0.8/functions/v1_0_0/libraries/FunctionsRequest.sol\":2915:2932  NoInlineSecrets() */\n      mload(0x40)\n      shl(0xe0, 0xa80d31f7)\n      dup2\n      mstore\n      0x04\n      add\n      mload(0x40)\n      dup1\n      swap2\n      sub\n      swap1\n      revert\n        /* \"@chainlink/contracts@1.3.0/src/v0.8/functions/v1_0_0/libraries/FunctionsRequest.sol\":2853:2941  if (self.secretsLocation == Location.Inline) {... */\n    tag_146:\n        /* \"@chainlink/contracts@1.3.0/src/v0.8/functions/v1_0_0/libraries/FunctionsRequest.sol\":2948:2985  buffer.writeString(\"secretsLocation\") */\n      0x40\n      dup1\n      mload\n      dup1\n      dup3\n      add\n      swap1\n      swap2\n      mstore\n      0x0f\n      dup2\n      mstore\n      shl(0x89, 0x39b2b1b932ba39a637b1b0ba34b7b7)\n      0x20\n      dup3\n      add\n      mstore\n      tag_147\n      swap1\n        /* \"@chainlink/contracts@1.3.0/src/v0.8/functions/v1_0_0/libraries/FunctionsRequest.sol\":2948:2954  buffer */\n      dup3\n      swap1\n        /* \"@chainlink/contracts@1.3.0/src/v0.8/functions/v1_0_0/libraries/FunctionsRequest.sol\":2948:2966  buffer.writeString */\n      tag_117\n        /* \"@chainlink/contracts@1.3.0/src/v0.8/functions/v1_0_0/libraries/FunctionsRequest.sol\":2948:2985  buffer.writeString(\"secretsLocation\") */\n      jump\t// in\n    tag_147:\n        /* \"@chainlink/contracts@1.3.0/src/v0.8/functions/v1_0_0/libraries/FunctionsRequest.sol\":2993:3043  buffer.writeUInt256(uint256(self.secretsLocation)) */\n      tag_148\n        /* \"@chainlink/contracts@1.3.0/src/v0.8/functions/v1_0_0/libraries/FunctionsRequest.sol\":3021:3025  self */\n      dup4\n        /* \"@chainlink/contracts@1.3.0/src/v0.8/functions/v1_0_0/libraries/FunctionsRequest.sol\":3021:3041  self.secretsLocation */\n      0x20\n      add\n      mload\n        /* \"@chainlink/contracts@1.3.0/src/v0.8/functions/v1_0_0/libraries/FunctionsRequest.sol\":3013:3042  uint256(self.secretsLocation) */\n      0x02\n      dup2\n      gt\n      iszero\n      tag_120\n      jumpi\n      tag_120\n      tag_121\n      jump\t// in\n        /* \"@chainlink/contracts@1.3.0/src/v0.8/functions/v1_0_0/libraries/FunctionsRequest.sol\":2993:3043  buffer.writeUInt256(uint256(self.secretsLocation)) */\n    tag_148:\n        /* \"@chainlink/contracts@1.3.0/src/v0.8/functions/v1_0_0/libraries/FunctionsRequest.sol\":3051:3080  buffer.writeString(\"secrets\") */\n      0x40\n      dup1\n      mload\n      dup1\n      dup3\n      add\n      swap1\n      swap2\n      mstore\n      0x07\n      dup2\n      mstore\n      shl(0xc8, 0x73656372657473)\n      0x20\n      dup3\n      add\n      mstore\n      tag_151\n      swap1\n        /* \"@chainlink/contracts@1.3.0/src/v0.8/functions/v1_0_0/libraries/FunctionsRequest.sol\":3051:3057  buffer */\n      dup3\n      swap1\n        /* \"@chainlink/contracts@1.3.0/src/v0.8/functions/v1_0_0/libraries/FunctionsRequest.sol\":3051:3069  buffer.writeString */\n      tag_117\n        /* \"@chainlink/contracts@1.3.0/src/v0.8/functions/v1_0_0/libraries/FunctionsRequest.sol\":3051:3080  buffer.writeString(\"secrets\") */\n      jump\t// in\n    tag_151:\n        /* \"@chainlink/contracts@1.3.0/src/v0.8/functions/v1_0_0/libraries/FunctionsRequest.sol\":3106:3136  self.encryptedSecretsReference */\n      0x80\n      dup4\n      add\n      mload\n        /* \"@chainlink/contracts@1.3.0/src/v0.8/functions/v1_0_0/libraries/FunctionsRequest.sol\":3088:3137  buffer.writeBytes(self.encryptedSecretsReference) */\n      tag_152\n      swap1\n        /* \"@chainlink/contracts@1.3.0/src/v0.8/functions/v1_0_0/libraries/FunctionsRequest.sol\":3088:3094  buffer */\n      dup3\n      swap1\n        /* \"@chainlink/contracts@1.3.0/src/v0.8/functions/v1_0_0/libraries/FunctionsRequest.sol\":3088:3105  buffer.writeBytes */\n      tag_153\n        /* \"@chainlink/contracts@1.3.0/src/v0.8/functions/v1_0_0/libraries/FunctionsRequest.sol\":3088:3137  buffer.writeBytes(self.encryptedSecretsReference) */\n      jump\t// in\n    tag_152:\n        /* \"@chainlink/contracts@1.3.0/src/v0.8/functions/v1_0_0/libraries/FunctionsRequest.sol\":3154:3168  self.bytesArgs */\n      0xc0\n      dup4\n      add\n      mload\n        /* \"@chainlink/contracts@1.3.0/src/v0.8/functions/v1_0_0/libraries/FunctionsRequest.sol\":3154:3175  self.bytesArgs.length */\n      mload\n        /* \"@chainlink/contracts@1.3.0/src/v0.8/functions/v1_0_0/libraries/FunctionsRequest.sol\":3154:3179  self.bytesArgs.length > 0 */\n      iszero\n        /* \"@chainlink/contracts@1.3.0/src/v0.8/functions/v1_0_0/libraries/FunctionsRequest.sol\":3150:3396  if (self.bytesArgs.length > 0) {... */\n      tag_163\n      jumpi\n        /* \"@chainlink/contracts@1.3.0/src/v0.8/functions/v1_0_0/libraries/FunctionsRequest.sol\":3189:3220  buffer.writeString(\"bytesArgs\") */\n      0x40\n      dup1\n      mload\n      dup1\n      dup3\n      add\n      swap1\n      swap2\n      mstore\n      0x09\n      dup2\n      mstore\n      shl(0xb8, 0x627974657341726773)\n      0x20\n      dup3\n      add\n      mstore\n      tag_155\n      swap1\n        /* \"@chainlink/contracts@1.3.0/src/v0.8/functions/v1_0_0/libraries/FunctionsRequest.sol\":3189:3195  buffer */\n      dup3\n      swap1\n        /* \"@chainlink/contracts@1.3.0/src/v0.8/functions/v1_0_0/libraries/FunctionsRequest.sol\":3189:3207  buffer.writeString */\n      tag_117\n        /* \"@chainlink/contracts@1.3.0/src/v0.8/functions/v1_0_0/libraries/FunctionsRequest.sol\":3189:3220  buffer.writeString(\"bytesArgs\") */\n      jump\t// in\n    tag_155:\n        /* \"@chainlink/contracts@1.3.0/src/v0.8/functions/v1_0_0/libraries/FunctionsRequest.sol\":3228:3247  buffer.startArray() */\n      tag_156\n        /* \"@chainlink/contracts@1.3.0/src/v0.8/functions/v1_0_0/libraries/FunctionsRequest.sol\":3228:3234  buffer */\n      dup2\n        /* \"@chainlink/contracts@1.3.0/src/v0.8/functions/v1_0_0/libraries/FunctionsRequest.sol\":3228:3245  buffer.startArray */\n      tag_132\n        /* \"@chainlink/contracts@1.3.0/src/v0.8/functions/v1_0_0/libraries/FunctionsRequest.sol\":3228:3247  buffer.startArray() */\n      jump\t// in\n    tag_156:\n        /* \"@chainlink/contracts@1.3.0/src/v0.8/functions/v1_0_0/libraries/FunctionsRequest.sol\":3260:3269  uint256 i */\n      0x00\n        /* \"@chainlink/contracts@1.3.0/src/v0.8/functions/v1_0_0/libraries/FunctionsRequest.sol\":3255:3362  for (uint256 i = 0; i < self.bytesArgs.length; ++i) {... */\n    tag_157:\n        /* \"@chainlink/contracts@1.3.0/src/v0.8/functions/v1_0_0/libraries/FunctionsRequest.sol\":3279:3283  self */\n      dup4\n        /* \"@chainlink/contracts@1.3.0/src/v0.8/functions/v1_0_0/libraries/FunctionsRequest.sol\":3279:3293  self.bytesArgs */\n      0xc0\n      add\n      mload\n        /* \"@chainlink/contracts@1.3.0/src/v0.8/functions/v1_0_0/libraries/FunctionsRequest.sol\":3279:3300  self.bytesArgs.length */\n      mload\n        /* \"@chainlink/contracts@1.3.0/src/v0.8/functions/v1_0_0/libraries/FunctionsRequest.sol\":3275:3276  i */\n      dup2\n        /* \"@chainlink/contracts@1.3.0/src/v0.8/functions/v1_0_0/libraries/FunctionsRequest.sol\":3275:3300  i < self.bytesArgs.length */\n      lt\n        /* \"@chainlink/contracts@1.3.0/src/v0.8/functions/v1_0_0/libraries/FunctionsRequest.sol\":3255:3362  for (uint256 i = 0; i < self.bytesArgs.length; ++i) {... */\n      iszero\n      tag_158\n      jumpi\n        /* \"@chainlink/contracts@1.3.0/src/v0.8/functions/v1_0_0/libraries/FunctionsRequest.sol\":3317:3353  buffer.writeBytes(self.bytesArgs[i]) */\n      tag_160\n        /* \"@chainlink/contracts@1.3.0/src/v0.8/functions/v1_0_0/libraries/FunctionsRequest.sol\":3335:3339  self */\n      dup5\n        /* \"@chainlink/contracts@1.3.0/src/v0.8/functions/v1_0_0/libraries/FunctionsRequest.sol\":3335:3349  self.bytesArgs */\n      0xc0\n      add\n      mload\n        /* \"@chainlink/contracts@1.3.0/src/v0.8/functions/v1_0_0/libraries/FunctionsRequest.sol\":3350:3351  i */\n      dup3\n        /* \"@chainlink/contracts@1.3.0/src/v0.8/functions/v1_0_0/libraries/FunctionsRequest.sol\":3335:3352  self.bytesArgs[i] */\n      dup2\n      mload\n      dup2\n      lt\n      tag_162\n      jumpi\n      tag_162\n      tag_88\n      jump\t// in\n    tag_162:\n      0x20\n      mul\n      0x20\n      add\n      add\n      mload\n        /* \"@chainlink/contracts@1.3.0/src/v0.8/functions/v1_0_0/libraries/FunctionsRequest.sol\":3317:3323  buffer */\n      dup4\n        /* \"@chainlink/contracts@1.3.0/src/v0.8/functions/v1_0_0/libraries/FunctionsRequest.sol\":3317:3334  buffer.writeBytes */\n      tag_153\n      swap1\n        /* \"@chainlink/contracts@1.3.0/src/v0.8/functions/v1_0_0/libraries/FunctionsRequest.sol\":3317:3353  buffer.writeBytes(self.bytesArgs[i]) */\n      swap2\n      swap1\n      0xffffffff\n      and\n      jump\t// in\n    tag_160:\n        /* \"@chainlink/contracts@1.3.0/src/v0.8/functions/v1_0_0/libraries/FunctionsRequest.sol\":3302:3305  ++i */\n      0x01\n      add\n        /* \"@chainlink/contracts@1.3.0/src/v0.8/functions/v1_0_0/libraries/FunctionsRequest.sol\":3255:3362  for (uint256 i = 0; i < self.bytesArgs.length; ++i) {... */\n      jump(tag_157)\n    tag_158:\n      pop\n        /* \"@chainlink/contracts@1.3.0/src/v0.8/functions/v1_0_0/libraries/FunctionsRequest.sol\":3369:3389  buffer.endSequence() */\n      tag_163\n        /* \"@chainlink/contracts@1.3.0/src/v0.8/functions/v1_0_0/libraries/FunctionsRequest.sol\":3369:3375  buffer */\n      dup2\n        /* \"@chainlink/contracts@1.3.0/src/v0.8/functions/v1_0_0/libraries/FunctionsRequest.sol\":3369:3387  buffer.endSequence */\n      tag_140\n        /* \"@chainlink/contracts@1.3.0/src/v0.8/functions/v1_0_0/libraries/FunctionsRequest.sol\":3369:3389  buffer.endSequence() */\n      jump\t// in\n    tag_163:\n        /* \"@chainlink/contracts@1.3.0/src/v0.8/functions/v1_0_0/libraries/FunctionsRequest.sol\":3409:3419  buffer.buf */\n      mload\n        /* \"@chainlink/contracts@1.3.0/src/v0.8/functions/v1_0_0/libraries/FunctionsRequest.sol\":3409:3423  buffer.buf.buf */\n      mload\n      swap3\n        /* \"@chainlink/contracts@1.3.0/src/v0.8/functions/v1_0_0/libraries/FunctionsRequest.sol\":2158:3428  function encodeCBOR(Request memory self) internal pure returns (bytes memory) {... */\n      swap2\n      pop\n      pop\n      jump\t// out\n        /* \"@chainlink/contracts@1.3.0/src/v0.8/functions/v1_0_0/FunctionsClient.sol\":1158:1537  function _sendRequest(... */\n    tag_94:\n        /* \"@chainlink/contracts@1.3.0/src/v0.8/functions/v1_0_0/FunctionsClient.sol\":1300:1307  bytes32 */\n      0x00\n        /* \"@chainlink/contracts@1.3.0/src/v0.8/functions/v1_0_0/FunctionsClient.sol\":1315:1332  bytes32 requestId */\n      0x00\n        /* \"@chainlink/contracts@1.3.0/src/v0.8/functions/v1_0_0/FunctionsClient.sol\":1335:1343  i_router */\n      immutable(\"0x8e8fab5f003314da8d1873ea7720e8d9f47650136d916064d1edb8a11d682624\")\n      sub(shl(0xa0, 0x01), 0x01)\n        /* \"@chainlink/contracts@1.3.0/src/v0.8/functions/v1_0_0/FunctionsClient.sol\":1335:1355  i_router.sendRequest */\n      and\n      0x461d2762\n        /* \"@chainlink/contracts@1.3.0/src/v0.8/functions/v1_0_0/FunctionsClient.sol\":1363:1377  subscriptionId */\n      dup7\n        /* \"@chainlink/contracts@1.3.0/src/v0.8/functions/v1_0_0/FunctionsClient.sol\":1385:1389  data */\n      dup9\n        /* \"@chainlink/contracts@1.3.0/src/v0.8/functions/v1_0_0/libraries/FunctionsRequest.sol\":322:323  1 */\n      0x01\n        /* \"@chainlink/contracts@1.3.0/src/v0.8/functions/v1_0_0/FunctionsClient.sol\":1442:1458  callbackGasLimit */\n      dup9\n        /* \"@chainlink/contracts@1.3.0/src/v0.8/functions/v1_0_0/FunctionsClient.sol\":1466:1471  donId */\n      dup9\n        /* \"@chainlink/contracts@1.3.0/src/v0.8/functions/v1_0_0/FunctionsClient.sol\":1335:1477  i_router.sendRequest(... */\n      mload(0x40)\n      dup7\n      0xffffffff\n      and\n      0xe0\n      shl\n      dup2\n      mstore\n      0x04\n      add\n      tag_165\n      swap6\n      swap5\n      swap4\n      swap3\n      swap2\n      swap1\n      tag_166\n      jump\t// in\n    tag_165:\n      0x20\n      mload(0x40)\n      dup1\n      dup4\n      sub\n      dup2\n      0x00\n      dup8\n      gas\n      call\n      iszero\n      dup1\n      iszero\n      tag_168\n      jumpi\n      returndatacopy(0x00, 0x00, returndatasize)\n      revert(0x00, returndatasize)\n    tag_168:\n      pop\n      pop\n      pop\n      pop\n      mload(0x40)\n      returndatasize\n      not(0x1f)\n      0x1f\n      dup3\n      add\n      and\n      dup3\n      add\n      dup1\n      0x40\n      mstore\n      pop\n      dup2\n      add\n      swap1\n      tag_169\n      swap2\n      swap1\n      tag_170\n      jump\t// in\n    tag_169:\n        /* \"@chainlink/contracts@1.3.0/src/v0.8/functions/v1_0_0/FunctionsClient.sol\":1488:1510  RequestSent(requestId) */\n      mload(0x40)\n        /* \"@chainlink/contracts@1.3.0/src/v0.8/functions/v1_0_0/FunctionsClient.sol\":1315:1477  bytes32 requestId = i_router.sendRequest(... */\n      swap1\n      swap2\n      pop\n      dup2\n      swap1\n        /* \"@chainlink/contracts@1.3.0/src/v0.8/functions/v1_0_0/FunctionsClient.sol\":1488:1510  RequestSent(requestId) */\n      0x1131472297a800fee664d1d89cfa8f7676ff07189ecc53f80bbb5f4969099db8\n      swap1\n      0x00\n      swap1\n      log2\n        /* \"@chainlink/contracts@1.3.0/src/v0.8/functions/v1_0_0/FunctionsClient.sol\":1523:1532  requestId */\n      swap6\n        /* \"@chainlink/contracts@1.3.0/src/v0.8/functions/v1_0_0/FunctionsClient.sol\":1158:1537  function _sendRequest(... */\n      swap5\n      pop\n      pop\n      pop\n      pop\n      pop\n      jump\t// out\n        /* \"@chainlink/contracts@1.3.0/src/v0.8/functions/v1_0_0/libraries/FunctionsRequest.sol\":3777:4084  function initializeRequest(... */\n    tag_110:\n        /* \"@chainlink/contracts@1.3.0/src/v0.8/functions/v1_0_0/libraries/FunctionsRequest.sol\":3943:3949  source */\n      dup1\n        /* \"@chainlink/contracts@1.3.0/src/v0.8/functions/v1_0_0/libraries/FunctionsRequest.sol\":3937:3957  bytes(source).length */\n      mload\n        /* \"@chainlink/contracts@1.3.0/src/v0.8/functions/v1_0_0/libraries/FunctionsRequest.sol\":3961:3962  0 */\n      0x00\n        /* \"@chainlink/contracts@1.3.0/src/v0.8/functions/v1_0_0/libraries/FunctionsRequest.sol\":3937:3962  bytes(source).length == 0 */\n      sub\n        /* \"@chainlink/contracts@1.3.0/src/v0.8/functions/v1_0_0/libraries/FunctionsRequest.sol\":3933:3984  if (bytes(source).length == 0) revert EmptySource() */\n      tag_172\n      jumpi\n        /* \"@chainlink/contracts@1.3.0/src/v0.8/functions/v1_0_0/libraries/FunctionsRequest.sol\":3971:3984  EmptySource() */\n      mload(0x40)\n      shl(0xe0, 0x22ce3edd)\n      dup2\n      mstore\n      0x04\n      add\n      mload(0x40)\n      dup1\n      swap2\n      sub\n      swap1\n      revert\n        /* \"@chainlink/contracts@1.3.0/src/v0.8/functions/v1_0_0/libraries/FunctionsRequest.sol\":3933:3984  if (bytes(source).length == 0) revert EmptySource() */\n    tag_172:\n        /* \"@chainlink/contracts@1.3.0/src/v0.8/functions/v1_0_0/libraries/FunctionsRequest.sol\":3991:3995  self */\n      dup4\n        /* \"@chainlink/contracts@1.3.0/src/v0.8/functions/v1_0_0/libraries/FunctionsRequest.sol\":4011:4023  codeLocation */\n      dup4\n        /* \"@chainlink/contracts@1.3.0/src/v0.8/functions/v1_0_0/libraries/FunctionsRequest.sol\":3991:4023  self.codeLocation = codeLocation */\n      0x02\n      dup2\n      gt\n      iszero\n      tag_174\n      jumpi\n      tag_174\n      tag_121\n      jump\t// in\n    tag_174:\n      swap1\n      dup2\n      0x02\n      dup2\n      gt\n      iszero\n      tag_176\n      jumpi\n      tag_176\n      tag_121\n      jump\t// in\n    tag_176:\n      swap1\n      mstore\n      pop\n        /* \"@chainlink/contracts@1.3.0/src/v0.8/functions/v1_0_0/libraries/FunctionsRequest.sol\":4029:4042  self.language */\n      0x40\n      dup5\n      add\n        /* \"@chainlink/contracts@1.3.0/src/v0.8/functions/v1_0_0/libraries/FunctionsRequest.sol\":4045:4053  language */\n      dup3\n        /* \"@chainlink/contracts@1.3.0/src/v0.8/functions/v1_0_0/libraries/FunctionsRequest.sol\":4029:4053  self.language = language */\n      dup1\n      iszero\n      tag_178\n      jumpi\n      tag_178\n      tag_121\n      jump\t// in\n    tag_178:\n      swap1\n      dup2\n      dup1\n      iszero\n      tag_180\n      jumpi\n      tag_180\n      tag_121\n      jump\t// in\n    tag_180:\n      swap1\n      mstore\n      pop\n        /* \"@chainlink/contracts@1.3.0/src/v0.8/functions/v1_0_0/libraries/FunctionsRequest.sol\":4059:4070  self.source */\n      0x60\n      swap1\n      swap4\n      add\n        /* \"@chainlink/contracts@1.3.0/src/v0.8/functions/v1_0_0/libraries/FunctionsRequest.sol\":4059:4079  self.source = source */\n      swap3\n      swap1\n      swap3\n      mstore\n      pop\n      pop\n        /* \"@chainlink/contracts@1.3.0/src/v0.8/functions/v1_0_0/libraries/FunctionsRequest.sol\":3777:4084  function initializeRequest(... */\n      jump\t// out\n        /* \"@chainlink/contracts@1.3.0/src/v0.8/vendor/solidity-cborutils/v2.0.0/CBOR.sol\":1490:1663  function create(uint256 capacity) internal pure returns(CBORBuffer memory cbor) {... */\n    tag_115:\n        /* \"@chainlink/contracts@1.3.0/src/v0.8/vendor/solidity-cborutils/v2.0.0/CBOR.sol\":1546:1568  CBORBuffer memory cbor */\n      tag_181\n      tag_182\n      jump\t// in\n    tag_181:\n        /* \"@chainlink/contracts@1.3.0/src/v0.8/vendor/solidity-cborutils/v2.0.0/CBOR.sol\":1592:1600  cbor.buf */\n      dup1\n      mload\n        /* \"@chainlink/contracts@1.3.0/src/v0.8/vendor/solidity-cborutils/v2.0.0/CBOR.sol\":1580:1611  Buffer.init(cbor.buf, capacity) */\n      tag_184\n      swap1\n        /* \"@chainlink/contracts@1.3.0/src/v0.8/vendor/solidity-cborutils/v2.0.0/CBOR.sol\":1602:1610  capacity */\n      dup4\n        /* \"@chainlink/contracts@1.3.0/src/v0.8/vendor/solidity-cborutils/v2.0.0/CBOR.sol\":1580:1591  Buffer.init */\n      tag_185\n        /* \"@chainlink/contracts@1.3.0/src/v0.8/vendor/solidity-cborutils/v2.0.0/CBOR.sol\":1580:1611  Buffer.init(cbor.buf, capacity) */\n      jump\t// in\n    tag_184:\n      pop\n        /* \"@chainlink/contracts@1.3.0/src/v0.8/vendor/solidity-cborutils/v2.0.0/CBOR.sol\":1634:1635  0 */\n      0x00\n        /* \"@chainlink/contracts@1.3.0/src/v0.8/vendor/solidity-cborutils/v2.0.0/CBOR.sol\":1621:1631  cbor.depth */\n      0x20\n      dup3\n      add\n        /* \"@chainlink/contracts@1.3.0/src/v0.8/vendor/solidity-cborutils/v2.0.0/CBOR.sol\":1621:1635  cbor.depth = 0 */\n      mstore\n        /* \"@chainlink/contracts@1.3.0/src/v0.8/vendor/solidity-cborutils/v2.0.0/CBOR.sol\":1621:1625  cbor */\n      swap2\n        /* \"@chainlink/contracts@1.3.0/src/v0.8/vendor/solidity-cborutils/v2.0.0/CBOR.sol\":1490:1663  function create(uint256 capacity) internal pure returns(CBORBuffer memory cbor) {... */\n      swap1\n      pop\n      jump\t// out\n        /* \"@chainlink/contracts@1.3.0/src/v0.8/vendor/solidity-cborutils/v2.0.0/CBOR.sol\":3021:3225  function writeString(CBORBuffer memory buf, string memory value) internal pure {... */\n    tag_117:\n        /* \"@chainlink/contracts@1.3.0/src/v0.8/vendor/solidity-cborutils/v2.0.0/CBOR.sol\":3110:3180  writeFixedNumeric(buf, MAJOR_TYPE_STRING, uint64(bytes(value).length)) */\n      tag_187\n        /* \"@chainlink/contracts@1.3.0/src/v0.8/vendor/solidity-cborutils/v2.0.0/CBOR.sol\":3128:3131  buf */\n      dup3\n        /* \"@chainlink/contracts@1.3.0/src/v0.8/vendor/solidity-cborutils/v2.0.0/CBOR.sol\":998:999  3 */\n      0x03\n        /* \"@chainlink/contracts@1.3.0/src/v0.8/vendor/solidity-cborutils/v2.0.0/CBOR.sol\":3165:3170  value */\n      dup4\n        /* \"@chainlink/contracts@1.3.0/src/v0.8/vendor/solidity-cborutils/v2.0.0/CBOR.sol\":3159:3178  bytes(value).length */\n      mload\n        /* \"@chainlink/contracts@1.3.0/src/v0.8/vendor/solidity-cborutils/v2.0.0/CBOR.sol\":3110:3127  writeFixedNumeric */\n      tag_188\n        /* \"@chainlink/contracts@1.3.0/src/v0.8/vendor/solidity-cborutils/v2.0.0/CBOR.sol\":3110:3180  writeFixedNumeric(buf, MAJOR_TYPE_STRING, uint64(bytes(value).length)) */\n      jump\t// in\n    tag_187:\n        /* \"@chainlink/contracts@1.3.0/src/v0.8/vendor/solidity-cborutils/v2.0.0/CBOR.sol\":3190:3197  buf.buf */\n      dup2\n      mload\n        /* \"@chainlink/contracts@1.3.0/src/v0.8/vendor/solidity-cborutils/v2.0.0/CBOR.sol\":3190:3218  buf.buf.append(bytes(value)) */\n      tag_189\n      swap1\n        /* \"@chainlink/contracts@1.3.0/src/v0.8/vendor/solidity-cborutils/v2.0.0/CBOR.sol\":3211:3216  value */\n      dup3\n        /* \"@chainlink/contracts@1.3.0/src/v0.8/vendor/solidity-cborutils/v2.0.0/CBOR.sol\":3190:3204  buf.buf.append */\n      tag_190\n        /* \"@chainlink/contracts@1.3.0/src/v0.8/vendor/solidity-cborutils/v2.0.0/CBOR.sol\":3190:3218  buf.buf.append(bytes(value)) */\n      jump\t// in\n    tag_189:\n      pop\n        /* \"@chainlink/contracts@1.3.0/src/v0.8/vendor/solidity-cborutils/v2.0.0/CBOR.sol\":3021:3225  function writeString(CBORBuffer memory buf, string memory value) internal pure {... */\n      pop\n      pop\n      jump\t// out\n        /* \"@chainlink/contracts@1.3.0/src/v0.8/vendor/solidity-cborutils/v2.0.0/CBOR.sol\":1832:2034  function writeUInt256(CBORBuffer memory buf, uint256 value) internal pure {... */\n    tag_122:\n        /* \"@chainlink/contracts@1.3.0/src/v0.8/vendor/solidity-cborutils/v2.0.0/CBOR.sol\":1916:1923  buf.buf */\n      dup2\n      mload\n        /* \"@chainlink/contracts@1.3.0/src/v0.8/vendor/solidity-cborutils/v2.0.0/CBOR.sol\":1916:1983  buf.buf.appendUint8(uint8((MAJOR_TYPE_TAG << 5) | TAG_TYPE_BIGNUM)) */\n      tag_192\n      swap1\n        /* \"@chainlink/contracts@1.3.0/src/v0.8/vendor/solidity-cborutils/v2.0.0/CBOR.sol\":1942:1981  (MAJOR_TYPE_TAG << 5) | TAG_TYPE_BIGNUM */\n      0xc2\n        /* \"@chainlink/contracts@1.3.0/src/v0.8/vendor/solidity-cborutils/v2.0.0/CBOR.sol\":1916:1935  buf.buf.appendUint8 */\n      tag_193\n        /* \"@chainlink/contracts@1.3.0/src/v0.8/vendor/solidity-cborutils/v2.0.0/CBOR.sol\":1916:1983  buf.buf.appendUint8(uint8((MAJOR_TYPE_TAG << 5) | TAG_TYPE_BIGNUM)) */\n      jump\t// in\n    tag_192:\n      pop\n        /* \"@chainlink/contracts@1.3.0/src/v0.8/vendor/solidity-cborutils/v2.0.0/CBOR.sol\":1993:2027  writeBytes(buf, abi.encode(value)) */\n      tag_109\n        /* \"@chainlink/contracts@1.3.0/src/v0.8/vendor/solidity-cborutils/v2.0.0/CBOR.sol\":2004:2007  buf */\n      dup3\n        /* \"@chainlink/contracts@1.3.0/src/v0.8/vendor/solidity-cborutils/v2.0.0/CBOR.sol\":2020:2025  value */\n      dup3\n        /* \"@chainlink/contracts@1.3.0/src/v0.8/vendor/solidity-cborutils/v2.0.0/CBOR.sol\":2009:2026  abi.encode(value) */\n      add(0x20, mload(0x40))\n      tag_195\n      swap2\n        /* \"#utility.yul\":2586:2611   */\n      dup2\n      mstore\n        /* \"#utility.yul\":2574:2576   */\n      0x20\n        /* \"#utility.yul\":2559:2577   */\n      add\n      swap1\n        /* \"#utility.yul\":2440:2617   */\n      jump\n        /* \"@chainlink/contracts@1.3.0/src/v0.8/vendor/solidity-cborutils/v2.0.0/CBOR.sol\":2009:2026  abi.encode(value) */\n    tag_195:\n      mload(0x40)\n      0x20\n      dup2\n      dup4\n      sub\n      sub\n      dup2\n      mstore\n      swap1\n      0x40\n      mstore\n        /* \"@chainlink/contracts@1.3.0/src/v0.8/vendor/solidity-cborutils/v2.0.0/CBOR.sol\":1993:2003  writeBytes */\n      tag_153\n        /* \"@chainlink/contracts@1.3.0/src/v0.8/vendor/solidity-cborutils/v2.0.0/CBOR.sol\":1993:2027  writeBytes(buf, abi.encode(value)) */\n      jump\t// in\n        /* \"@chainlink/contracts@1.3.0/src/v0.8/vendor/solidity-cborutils/v2.0.0/CBOR.sol\":3607:3753  function startArray(CBORBuffer memory buf) internal pure {... */\n    tag_132:\n        /* \"@chainlink/contracts@1.3.0/src/v0.8/vendor/solidity-cborutils/v2.0.0/CBOR.sol\":3674:3722  writeIndefiniteLengthType(buf, MAJOR_TYPE_ARRAY) */\n      tag_198\n        /* \"@chainlink/contracts@1.3.0/src/v0.8/vendor/solidity-cborutils/v2.0.0/CBOR.sol\":3700:3703  buf */\n      dup2\n        /* \"@chainlink/contracts@1.3.0/src/v0.8/vendor/solidity-cborutils/v2.0.0/CBOR.sol\":1047:1048  4 */\n      0x04\n        /* \"@chainlink/contracts@1.3.0/src/v0.8/vendor/solidity-cborutils/v2.0.0/CBOR.sol\":3674:3699  writeIndefiniteLengthType */\n      tag_199\n        /* \"@chainlink/contracts@1.3.0/src/v0.8/vendor/solidity-cborutils/v2.0.0/CBOR.sol\":3674:3722  writeIndefiniteLengthType(buf, MAJOR_TYPE_ARRAY) */\n      jump\t// in\n    tag_198:\n        /* \"@chainlink/contracts@1.3.0/src/v0.8/vendor/solidity-cborutils/v2.0.0/CBOR.sol\":3745:3746  1 */\n      0x01\n        /* \"@chainlink/contracts@1.3.0/src/v0.8/vendor/solidity-cborutils/v2.0.0/CBOR.sol\":3732:3735  buf */\n      dup2\n        /* \"@chainlink/contracts@1.3.0/src/v0.8/vendor/solidity-cborutils/v2.0.0/CBOR.sol\":3732:3741  buf.depth */\n      0x20\n      add\n        /* \"@chainlink/contracts@1.3.0/src/v0.8/vendor/solidity-cborutils/v2.0.0/CBOR.sol\":3732:3746  buf.depth += 1 */\n      dup2\n      dup2\n      mload\n      tag_200\n      swap2\n      swap1\n      tag_201\n      jump\t// in\n    tag_200:\n      swap1\n      mstore\n      pop\n      pop\n        /* \"@chainlink/contracts@1.3.0/src/v0.8/vendor/solidity-cborutils/v2.0.0/CBOR.sol\":3607:3753  function startArray(CBORBuffer memory buf) internal pure {... */\n      jump\t// out\n        /* \"@chainlink/contracts@1.3.0/src/v0.8/vendor/solidity-cborutils/v2.0.0/CBOR.sol\":4211:4365  function endSequence(CBORBuffer memory buf) internal pure {... */\n    tag_140:\n        /* \"@chainlink/contracts@1.3.0/src/v0.8/vendor/solidity-cborutils/v2.0.0/CBOR.sol\":4279:4334  writeIndefiniteLengthType(buf, MAJOR_TYPE_CONTENT_FREE) */\n      tag_203\n        /* \"@chainlink/contracts@1.3.0/src/v0.8/vendor/solidity-cborutils/v2.0.0/CBOR.sol\":4305:4308  buf */\n      dup2\n        /* \"@chainlink/contracts@1.3.0/src/v0.8/vendor/solidity-cborutils/v2.0.0/CBOR.sol\":1197:1198  7 */\n      0x07\n        /* \"@chainlink/contracts@1.3.0/src/v0.8/vendor/solidity-cborutils/v2.0.0/CBOR.sol\":4279:4304  writeIndefiniteLengthType */\n      tag_199\n        /* \"@chainlink/contracts@1.3.0/src/v0.8/vendor/solidity-cborutils/v2.0.0/CBOR.sol\":4279:4334  writeIndefiniteLengthType(buf, MAJOR_TYPE_CONTENT_FREE) */\n      jump\t// in\n    tag_203:\n        /* \"@chainlink/contracts@1.3.0/src/v0.8/vendor/solidity-cborutils/v2.0.0/CBOR.sol\":4357:4358  1 */\n      0x01\n        /* \"@chainlink/contracts@1.3.0/src/v0.8/vendor/solidity-cborutils/v2.0.0/CBOR.sol\":4344:4347  buf */\n      dup2\n        /* \"@chainlink/contracts@1.3.0/src/v0.8/vendor/solidity-cborutils/v2.0.0/CBOR.sol\":4344:4353  buf.depth */\n      0x20\n      add\n        /* \"@chainlink/contracts@1.3.0/src/v0.8/vendor/solidity-cborutils/v2.0.0/CBOR.sol\":4344:4358  buf.depth -= 1 */\n      dup2\n      dup2\n      mload\n      tag_200\n      swap2\n      swap1\n      tag_205\n      jump\t// in\n        /* \"@chainlink/contracts@1.3.0/src/v0.8/vendor/solidity-cborutils/v2.0.0/CBOR.sol\":2828:3015  function writeBytes(CBORBuffer memory buf, bytes memory value) internal pure {... */\n    tag_153:\n        /* \"@chainlink/contracts@1.3.0/src/v0.8/vendor/solidity-cborutils/v2.0.0/CBOR.sol\":2915:2977  writeFixedNumeric(buf, MAJOR_TYPE_BYTES, uint64(value.length)) */\n      tag_187\n        /* \"@chainlink/contracts@1.3.0/src/v0.8/vendor/solidity-cborutils/v2.0.0/CBOR.sol\":2933:2936  buf */\n      dup3\n        /* \"@chainlink/contracts@1.3.0/src/v0.8/vendor/solidity-cborutils/v2.0.0/CBOR.sol\":948:949  2 */\n      0x02\n        /* \"@chainlink/contracts@1.3.0/src/v0.8/vendor/solidity-cborutils/v2.0.0/CBOR.sol\":2963:2968  value */\n      dup4\n        /* \"@chainlink/contracts@1.3.0/src/v0.8/vendor/solidity-cborutils/v2.0.0/CBOR.sol\":2963:2975  value.length */\n      mload\n        /* \"@chainlink/contracts@1.3.0/src/v0.8/vendor/solidity-cborutils/v2.0.0/CBOR.sol\":2915:2932  writeFixedNumeric */\n      tag_188\n        /* \"@chainlink/contracts@1.3.0/src/v0.8/vendor/solidity-cborutils/v2.0.0/CBOR.sol\":2915:2977  writeFixedNumeric(buf, MAJOR_TYPE_BYTES, uint64(value.length)) */\n      jump\t// in\n        /* \"@chainlink/contracts@1.3.0/src/v0.8/vendor/@ensdomains/buffer/v0.1.0/Buffer.sol\":1020:1575  function init(buffer memory buf, uint capacity) internal pure returns(buffer memory) {... */\n    tag_185:\n      0x40\n      dup1\n      mload\n      dup1\n      dup3\n      add\n      swap1\n      swap2\n      mstore\n      0x60\n      dup2\n      mstore\n      0x00\n      0x20\n      dup3\n      add\n      mstore\n        /* \"@chainlink/contracts@1.3.0/src/v0.8/vendor/@ensdomains/buffer/v0.1.0/Buffer.sol\":1119:1132  capacity % 32 */\n      tag_212\n        /* \"@chainlink/contracts@1.3.0/src/v0.8/vendor/@ensdomains/buffer/v0.1.0/Buffer.sol\":1130:1132  32 */\n      0x20\n        /* \"@chainlink/contracts@1.3.0/src/v0.8/vendor/@ensdomains/buffer/v0.1.0/Buffer.sol\":1119:1127  capacity */\n      dup4\n        /* \"@chainlink/contracts@1.3.0/src/v0.8/vendor/@ensdomains/buffer/v0.1.0/Buffer.sol\":1119:1132  capacity % 32 */\n      tag_213\n      jump\t// in\n    tag_212:\n        /* \"@chainlink/contracts@1.3.0/src/v0.8/vendor/@ensdomains/buffer/v0.1.0/Buffer.sol\":1119:1137  capacity % 32 != 0 */\n      iszero\n        /* \"@chainlink/contracts@1.3.0/src/v0.8/vendor/@ensdomains/buffer/v0.1.0/Buffer.sol\":1115:1196  if (capacity % 32 != 0) {... */\n      tag_214\n      jumpi\n        /* \"@chainlink/contracts@1.3.0/src/v0.8/vendor/@ensdomains/buffer/v0.1.0/Buffer.sol\":1171:1184  capacity % 32 */\n      tag_215\n        /* \"@chainlink/contracts@1.3.0/src/v0.8/vendor/@ensdomains/buffer/v0.1.0/Buffer.sol\":1182:1184  32 */\n      0x20\n        /* \"@chainlink/contracts@1.3.0/src/v0.8/vendor/@ensdomains/buffer/v0.1.0/Buffer.sol\":1171:1179  capacity */\n      dup4\n        /* \"@chainlink/contracts@1.3.0/src/v0.8/vendor/@ensdomains/buffer/v0.1.0/Buffer.sol\":1171:1184  capacity % 32 */\n      tag_213\n      jump\t// in\n    tag_215:\n        /* \"@chainlink/contracts@1.3.0/src/v0.8/vendor/@ensdomains/buffer/v0.1.0/Buffer.sol\":1165:1185  32 - (capacity % 32) */\n      tag_216\n      swap1\n        /* \"@chainlink/contracts@1.3.0/src/v0.8/vendor/@ensdomains/buffer/v0.1.0/Buffer.sol\":1165:1167  32 */\n      0x20\n        /* \"@chainlink/contracts@1.3.0/src/v0.8/vendor/@ensdomains/buffer/v0.1.0/Buffer.sol\":1165:1185  32 - (capacity % 32) */\n      tag_205\n      jump\t// in\n    tag_216:\n        /* \"@chainlink/contracts@1.3.0/src/v0.8/vendor/@ensdomains/buffer/v0.1.0/Buffer.sol\":1153:1185  capacity += 32 - (capacity % 32) */\n      tag_217\n      swap1\n      dup4\n      tag_201\n      jump\t// in\n    tag_217:\n      swap2\n      pop\n        /* \"@chainlink/contracts@1.3.0/src/v0.8/vendor/@ensdomains/buffer/v0.1.0/Buffer.sol\":1115:1196  if (capacity % 32 != 0) {... */\n    tag_214:\n        /* \"@chainlink/contracts@1.3.0/src/v0.8/vendor/@ensdomains/buffer/v0.1.0/Buffer.sol\":1251:1263  buf.capacity */\n      0x20\n      dup1\n      dup5\n      add\n        /* \"@chainlink/contracts@1.3.0/src/v0.8/vendor/@ensdomains/buffer/v0.1.0/Buffer.sol\":1251:1274  buf.capacity = capacity */\n      dup4\n      swap1\n      mstore\n        /* \"@chainlink/contracts@1.3.0/src/v0.8/vendor/@ensdomains/buffer/v0.1.0/Buffer.sol\":1324:1328  0x40 */\n      0x40\n        /* \"@chainlink/contracts@1.3.0/src/v0.8/vendor/@ensdomains/buffer/v0.1.0/Buffer.sol\":1318:1329  mload(0x40) */\n      mload\n        /* \"@chainlink/contracts@1.3.0/src/v0.8/vendor/@ensdomains/buffer/v0.1.0/Buffer.sol\":1342:1358  mstore(buf, ptr) */\n      dup1\n      dup6\n      mstore\n      0x00\n        /* \"@chainlink/contracts@1.3.0/src/v0.8/vendor/@ensdomains/buffer/v0.1.0/Buffer.sol\":1371:1385  mstore(ptr, 0) */\n      dup2\n      mstore\n        /* \"@chainlink/contracts@1.3.0/src/v0.8/vendor/@ensdomains/buffer/v0.1.0/Buffer.sol\":1318:1329  mload(0x40) */\n      swap1\n        /* \"@chainlink/contracts@1.3.0/src/v0.8/vendor/@ensdomains/buffer/v0.1.0/Buffer.sol\":1417:1435  add(ptr, capacity) */\n      dup2\n      dup5\n      add\n        /* \"@chainlink/contracts@1.3.0/src/v0.8/vendor/@ensdomains/buffer/v0.1.0/Buffer.sol\":1409:1436  add(32, add(ptr, capacity)) */\n      add\n        /* \"@chainlink/contracts@1.3.0/src/v0.8/vendor/@ensdomains/buffer/v0.1.0/Buffer.sol\":1452:1464  lt(fpm, ptr) */\n      dup2\n      dup2\n      lt\n        /* \"@chainlink/contracts@1.3.0/src/v0.8/vendor/@ensdomains/buffer/v0.1.0/Buffer.sol\":1449:1509  if lt(fpm, ptr) {... */\n      iszero\n      tag_218\n      jumpi\n        /* \"@chainlink/contracts@1.3.0/src/v0.8/vendor/@ensdomains/buffer/v0.1.0/Buffer.sol\":1493:1494  0 */\n      0x00\n        /* \"@chainlink/contracts@1.3.0/src/v0.8/vendor/@ensdomains/buffer/v0.1.0/Buffer.sol\":1490:1491  0 */\n      0x00\n        /* \"@chainlink/contracts@1.3.0/src/v0.8/vendor/@ensdomains/buffer/v0.1.0/Buffer.sol\":1483:1495  revert(0, 0) */\n      revert\n        /* \"@chainlink/contracts@1.3.0/src/v0.8/vendor/@ensdomains/buffer/v0.1.0/Buffer.sol\":1449:1509  if lt(fpm, ptr) {... */\n    tag_218:\n        /* \"@chainlink/contracts@1.3.0/src/v0.8/vendor/@ensdomains/buffer/v0.1.0/Buffer.sol\":1529:1533  0x40 */\n      0x40\n        /* \"@chainlink/contracts@1.3.0/src/v0.8/vendor/@ensdomains/buffer/v0.1.0/Buffer.sol\":1522:1539  mstore(0x40, fpm) */\n      mstore\n      pop\n        /* \"@chainlink/contracts@1.3.0/src/v0.8/vendor/@ensdomains/buffer/v0.1.0/Buffer.sol\":1565:1568  buf */\n      swap2\n      swap3\n        /* \"@chainlink/contracts@1.3.0/src/v0.8/vendor/@ensdomains/buffer/v0.1.0/Buffer.sol\":1020:1575  function init(buffer memory buf, uint capacity) internal pure returns(buffer memory) {... */\n      swap2\n      pop\n      pop\n      jump\t// out\n        /* \"@chainlink/contracts@1.3.0/src/v0.8/vendor/solidity-cborutils/v2.0.0/CBOR.sol\":6156:6915  function writeFixedNumeric(... */\n    tag_188:\n        /* \"@chainlink/contracts@1.3.0/src/v0.8/vendor/solidity-cborutils/v2.0.0/CBOR.sol\":6299:6301  23 */\n      0x17\n        /* \"@chainlink/contracts@1.3.0/src/v0.8/vendor/solidity-cborutils/v2.0.0/CBOR.sol\":6290:6295  value */\n      dup2\n      sub(shl(0x40, 0x01), 0x01)\n        /* \"@chainlink/contracts@1.3.0/src/v0.8/vendor/solidity-cborutils/v2.0.0/CBOR.sol\":6290:6301  value <= 23 */\n      and\n      gt\n        /* \"@chainlink/contracts@1.3.0/src/v0.8/vendor/solidity-cborutils/v2.0.0/CBOR.sol\":6286:6909  if (value <= 23) {... */\n      tag_220\n      jumpi\n        /* \"@chainlink/contracts@1.3.0/src/v0.8/vendor/solidity-cborutils/v2.0.0/CBOR.sol\":6317:6324  buf.buf */\n      dup3\n      mload\n        /* \"@chainlink/contracts@1.3.0/src/v0.8/vendor/solidity-cborutils/v2.0.0/CBOR.sol\":6317:6365  buf.buf.appendUint8(uint8((major << 5) | value)) */\n      tag_221\n      swap1\n        /* \"@chainlink/contracts@1.3.0/src/v0.8/vendor/solidity-cborutils/v2.0.0/CBOR.sol\":6343:6363  (major << 5) | value */\n      0xe0\n        /* \"@chainlink/contracts@1.3.0/src/v0.8/vendor/solidity-cborutils/v2.0.0/CBOR.sol\":6353:6354  5 */\n      0x05\n        /* \"@chainlink/contracts@1.3.0/src/v0.8/vendor/solidity-cborutils/v2.0.0/CBOR.sol\":6344:6354  major << 5 */\n      dup6\n      swap1\n      shl\n        /* \"@chainlink/contracts@1.3.0/src/v0.8/vendor/solidity-cborutils/v2.0.0/CBOR.sol\":6343:6363  (major << 5) | value */\n      and\n      dup4\n      or\n        /* \"@chainlink/contracts@1.3.0/src/v0.8/vendor/solidity-cborutils/v2.0.0/CBOR.sol\":6317:6336  buf.buf.appendUint8 */\n      tag_193\n        /* \"@chainlink/contracts@1.3.0/src/v0.8/vendor/solidity-cborutils/v2.0.0/CBOR.sol\":6317:6365  buf.buf.appendUint8(uint8((major << 5) | value)) */\n      jump\t// in\n    tag_221:\n      pop\n        /* \"@chainlink/contracts@1.3.0/src/v0.8/vendor/solidity-cborutils/v2.0.0/CBOR.sol\":3190:3218  buf.buf.append(bytes(value)) */\n      pop\n        /* \"@chainlink/contracts@1.3.0/src/v0.8/vendor/solidity-cborutils/v2.0.0/CBOR.sol\":3021:3225  function writeString(CBORBuffer memory buf, string memory value) internal pure {... */\n      pop\n      pop\n      jump\t// out\n        /* \"@chainlink/contracts@1.3.0/src/v0.8/vendor/solidity-cborutils/v2.0.0/CBOR.sol\":6286:6909  if (value <= 23) {... */\n    tag_220:\n        /* \"@chainlink/contracts@1.3.0/src/v0.8/vendor/solidity-cborutils/v2.0.0/CBOR.sol\":6395:6399  0xFF */\n      0xff\n        /* \"@chainlink/contracts@1.3.0/src/v0.8/vendor/solidity-cborutils/v2.0.0/CBOR.sol\":6386:6391  value */\n      dup2\n      sub(shl(0x40, 0x01), 0x01)\n        /* \"@chainlink/contracts@1.3.0/src/v0.8/vendor/solidity-cborutils/v2.0.0/CBOR.sol\":6386:6399  value <= 0xFF */\n      and\n      gt\n        /* \"@chainlink/contracts@1.3.0/src/v0.8/vendor/solidity-cborutils/v2.0.0/CBOR.sol\":6382:6909  if (value <= 0xFF) {... */\n      tag_223\n      jumpi\n        /* \"@chainlink/contracts@1.3.0/src/v0.8/vendor/solidity-cborutils/v2.0.0/CBOR.sol\":6415:6422  buf.buf */\n      dup3\n      mload\n        /* \"@chainlink/contracts@1.3.0/src/v0.8/vendor/solidity-cborutils/v2.0.0/CBOR.sol\":6415:6460  buf.buf.appendUint8(uint8((major << 5) | 24)) */\n      tag_224\n      swap1\n        /* \"@chainlink/contracts@1.3.0/src/v0.8/vendor/solidity-cborutils/v2.0.0/CBOR.sol\":6456:6458  24 */\n      0x18\n        /* \"@chainlink/contracts@1.3.0/src/v0.8/vendor/solidity-cborutils/v2.0.0/CBOR.sol\":6442:6452  major << 5 */\n      0x1fe0\n        /* \"@chainlink/contracts@1.3.0/src/v0.8/vendor/solidity-cborutils/v2.0.0/CBOR.sol\":6451:6452  5 */\n      0x05\n        /* \"@chainlink/contracts@1.3.0/src/v0.8/vendor/solidity-cborutils/v2.0.0/CBOR.sol\":6442:6452  major << 5 */\n      dup7\n      swap1\n      shl\n      and\n        /* \"@chainlink/contracts@1.3.0/src/v0.8/vendor/solidity-cborutils/v2.0.0/CBOR.sol\":6441:6458  (major << 5) | 24 */\n      or\n        /* \"@chainlink/contracts@1.3.0/src/v0.8/vendor/solidity-cborutils/v2.0.0/CBOR.sol\":6415:6434  buf.buf.appendUint8 */\n      tag_193\n        /* \"@chainlink/contracts@1.3.0/src/v0.8/vendor/solidity-cborutils/v2.0.0/CBOR.sol\":6415:6460  buf.buf.appendUint8(uint8((major << 5) | 24)) */\n      jump\t// in\n    tag_224:\n      pop\n        /* \"@chainlink/contracts@1.3.0/src/v0.8/vendor/solidity-cborutils/v2.0.0/CBOR.sol\":6474:6481  buf.buf */\n      dup3\n      mload\n        /* \"@chainlink/contracts@1.3.0/src/v0.8/vendor/solidity-cborutils/v2.0.0/CBOR.sol\":6474:6501  buf.buf.appendInt(value, 1) */\n      tag_221\n      swap1\n      sub(shl(0x40, 0x01), 0x01)\n      dup4\n      and\n        /* \"@chainlink/contracts@1.3.0/src/v0.8/vendor/solidity-cborutils/v2.0.0/CBOR.sol\":6499:6500  1 */\n      0x01\n        /* \"@chainlink/contracts@1.3.0/src/v0.8/vendor/solidity-cborutils/v2.0.0/CBOR.sol\":6474:6491  buf.buf.appendInt */\n      tag_226\n        /* \"@chainlink/contracts@1.3.0/src/v0.8/vendor/solidity-cborutils/v2.0.0/CBOR.sol\":6474:6501  buf.buf.appendInt(value, 1) */\n      jump\t// in\n        /* \"@chainlink/contracts@1.3.0/src/v0.8/vendor/solidity-cborutils/v2.0.0/CBOR.sol\":6382:6909  if (value <= 0xFF) {... */\n    tag_223:\n        /* \"@chainlink/contracts@1.3.0/src/v0.8/vendor/solidity-cborutils/v2.0.0/CBOR.sol\":6531:6537  0xFFFF */\n      0xffff\n        /* \"@chainlink/contracts@1.3.0/src/v0.8/vendor/solidity-cborutils/v2.0.0/CBOR.sol\":6522:6527  value */\n      dup2\n      sub(shl(0x40, 0x01), 0x01)\n        /* \"@chainlink/contracts@1.3.0/src/v0.8/vendor/solidity-cborutils/v2.0.0/CBOR.sol\":6522:6537  value <= 0xFFFF */\n      and\n      gt\n        /* \"@chainlink/contracts@1.3.0/src/v0.8/vendor/solidity-cborutils/v2.0.0/CBOR.sol\":6518:6909  if (value <= 0xFFFF) {... */\n      tag_228\n      jumpi\n        /* \"@chainlink/contracts@1.3.0/src/v0.8/vendor/solidity-cborutils/v2.0.0/CBOR.sol\":6553:6560  buf.buf */\n      dup3\n      mload\n        /* \"@chainlink/contracts@1.3.0/src/v0.8/vendor/solidity-cborutils/v2.0.0/CBOR.sol\":6553:6598  buf.buf.appendUint8(uint8((major << 5) | 25)) */\n      tag_229\n      swap1\n        /* \"@chainlink/contracts@1.3.0/src/v0.8/vendor/solidity-cborutils/v2.0.0/CBOR.sol\":6594:6596  25 */\n      0x19\n        /* \"@chainlink/contracts@1.3.0/src/v0.8/vendor/solidity-cborutils/v2.0.0/CBOR.sol\":6580:6590  major << 5 */\n      0x1fe0\n        /* \"@chainlink/contracts@1.3.0/src/v0.8/vendor/solidity-cborutils/v2.0.0/CBOR.sol\":6589:6590  5 */\n      0x05\n        /* \"@chainlink/contracts@1.3.0/src/v0.8/vendor/solidity-cborutils/v2.0.0/CBOR.sol\":6580:6590  major << 5 */\n      dup7\n      swap1\n      shl\n      and\n        /* \"@chainlink/contracts@1.3.0/src/v0.8/vendor/solidity-cborutils/v2.0.0/CBOR.sol\":6579:6596  (major << 5) | 25 */\n      or\n        /* \"@chainlink/contracts@1.3.0/src/v0.8/vendor/solidity-cborutils/v2.0.0/CBOR.sol\":6553:6572  buf.buf.appendUint8 */\n      tag_193\n        /* \"@chainlink/contracts@1.3.0/src/v0.8/vendor/solidity-cborutils/v2.0.0/CBOR.sol\":6553:6598  buf.buf.appendUint8(uint8((major << 5) | 25)) */\n      jump\t// in\n    tag_229:\n      pop\n        /* \"@chainlink/contracts@1.3.0/src/v0.8/vendor/solidity-cborutils/v2.0.0/CBOR.sol\":6612:6619  buf.buf */\n      dup3\n      mload\n        /* \"@chainlink/contracts@1.3.0/src/v0.8/vendor/solidity-cborutils/v2.0.0/CBOR.sol\":6612:6639  buf.buf.appendInt(value, 2) */\n      tag_221\n      swap1\n      sub(shl(0x40, 0x01), 0x01)\n      dup4\n      and\n        /* \"@chainlink/contracts@1.3.0/src/v0.8/vendor/solidity-cborutils/v2.0.0/CBOR.sol\":6637:6638  2 */\n      0x02\n        /* \"@chainlink/contracts@1.3.0/src/v0.8/vendor/solidity-cborutils/v2.0.0/CBOR.sol\":6612:6629  buf.buf.appendInt */\n      tag_226\n        /* \"@chainlink/contracts@1.3.0/src/v0.8/vendor/solidity-cborutils/v2.0.0/CBOR.sol\":6612:6639  buf.buf.appendInt(value, 2) */\n      jump\t// in\n        /* \"@chainlink/contracts@1.3.0/src/v0.8/vendor/solidity-cborutils/v2.0.0/CBOR.sol\":6518:6909  if (value <= 0xFFFF) {... */\n    tag_228:\n        /* \"@chainlink/contracts@1.3.0/src/v0.8/vendor/solidity-cborutils/v2.0.0/CBOR.sol\":6669:6679  0xFFFFFFFF */\n      0xffffffff\n        /* \"@chainlink/contracts@1.3.0/src/v0.8/vendor/solidity-cborutils/v2.0.0/CBOR.sol\":6660:6665  value */\n      dup2\n      sub(shl(0x40, 0x01), 0x01)\n        /* \"@chainlink/contracts@1.3.0/src/v0.8/vendor/solidity-cborutils/v2.0.0/CBOR.sol\":6660:6679  value <= 0xFFFFFFFF */\n      and\n      gt\n        /* \"@chainlink/contracts@1.3.0/src/v0.8/vendor/solidity-cborutils/v2.0.0/CBOR.sol\":6656:6909  if (value <= 0xFFFFFFFF) {... */\n      tag_232\n      jumpi\n        /* \"@chainlink/contracts@1.3.0/src/v0.8/vendor/solidity-cborutils/v2.0.0/CBOR.sol\":6695:6702  buf.buf */\n      dup3\n      mload\n        /* \"@chainlink/contracts@1.3.0/src/v0.8/vendor/solidity-cborutils/v2.0.0/CBOR.sol\":6695:6740  buf.buf.appendUint8(uint8((major << 5) | 26)) */\n      tag_233\n      swap1\n        /* \"@chainlink/contracts@1.3.0/src/v0.8/vendor/solidity-cborutils/v2.0.0/CBOR.sol\":6736:6738  26 */\n      0x1a\n        /* \"@chainlink/contracts@1.3.0/src/v0.8/vendor/solidity-cborutils/v2.0.0/CBOR.sol\":6722:6732  major << 5 */\n      0x1fe0\n        /* \"@chainlink/contracts@1.3.0/src/v0.8/vendor/solidity-cborutils/v2.0.0/CBOR.sol\":6731:6732  5 */\n      0x05\n        /* \"@chainlink/contracts@1.3.0/src/v0.8/vendor/solidity-cborutils/v2.0.0/CBOR.sol\":6722:6732  major << 5 */\n      dup7\n      swap1\n      shl\n      and\n        /* \"@chainlink/contracts@1.3.0/src/v0.8/vendor/solidity-cborutils/v2.0.0/CBOR.sol\":6721:6738  (major << 5) | 26 */\n      or\n        /* \"@chainlink/contracts@1.3.0/src/v0.8/vendor/solidity-cborutils/v2.0.0/CBOR.sol\":6695:6714  buf.buf.appendUint8 */\n      tag_193\n        /* \"@chainlink/contracts@1.3.0/src/v0.8/vendor/solidity-cborutils/v2.0.0/CBOR.sol\":6695:6740  buf.buf.appendUint8(uint8((major << 5) | 26)) */\n      jump\t// in\n    tag_233:\n      pop\n        /* \"@chainlink/contracts@1.3.0/src/v0.8/vendor/solidity-cborutils/v2.0.0/CBOR.sol\":6754:6761  buf.buf */\n      dup3\n      mload\n        /* \"@chainlink/contracts@1.3.0/src/v0.8/vendor/solidity-cborutils/v2.0.0/CBOR.sol\":6754:6781  buf.buf.appendInt(value, 4) */\n      tag_221\n      swap1\n      sub(shl(0x40, 0x01), 0x01)\n      dup4\n      and\n        /* \"@chainlink/contracts@1.3.0/src/v0.8/vendor/solidity-cborutils/v2.0.0/CBOR.sol\":6779:6780  4 */\n      0x04\n        /* \"@chainlink/contracts@1.3.0/src/v0.8/vendor/solidity-cborutils/v2.0.0/CBOR.sol\":6754:6771  buf.buf.appendInt */\n      tag_226\n        /* \"@chainlink/contracts@1.3.0/src/v0.8/vendor/solidity-cborutils/v2.0.0/CBOR.sol\":6754:6781  buf.buf.appendInt(value, 4) */\n      jump\t// in\n        /* \"@chainlink/contracts@1.3.0/src/v0.8/vendor/solidity-cborutils/v2.0.0/CBOR.sol\":6656:6909  if (value <= 0xFFFFFFFF) {... */\n    tag_232:\n        /* \"@chainlink/contracts@1.3.0/src/v0.8/vendor/solidity-cborutils/v2.0.0/CBOR.sol\":6812:6819  buf.buf */\n      dup3\n      mload\n        /* \"@chainlink/contracts@1.3.0/src/v0.8/vendor/solidity-cborutils/v2.0.0/CBOR.sol\":6812:6857  buf.buf.appendUint8(uint8((major << 5) | 27)) */\n      tag_236\n      swap1\n        /* \"@chainlink/contracts@1.3.0/src/v0.8/vendor/solidity-cborutils/v2.0.0/CBOR.sol\":6853:6855  27 */\n      0x1b\n        /* \"@chainlink/contracts@1.3.0/src/v0.8/vendor/solidity-cborutils/v2.0.0/CBOR.sol\":6839:6849  major << 5 */\n      0x1fe0\n        /* \"@chainlink/contracts@1.3.0/src/v0.8/vendor/solidity-cborutils/v2.0.0/CBOR.sol\":6848:6849  5 */\n      0x05\n        /* \"@chainlink/contracts@1.3.0/src/v0.8/vendor/solidity-cborutils/v2.0.0/CBOR.sol\":6839:6849  major << 5 */\n      dup7\n      swap1\n      shl\n      and\n        /* \"@chainlink/contracts@1.3.0/src/v0.8/vendor/solidity-cborutils/v2.0.0/CBOR.sol\":6838:6855  (major << 5) | 27 */\n      or\n        /* \"@chainlink/contracts@1.3.0/src/v0.8/vendor/solidity-cborutils/v2.0.0/CBOR.sol\":6812:6831  buf.buf.appendUint8 */\n      tag_193\n        /* \"@chainlink/contracts@1.3.0/src/v0.8/vendor/solidity-cborutils/v2.0.0/CBOR.sol\":6812:6857  buf.buf.appendUint8(uint8((major << 5) | 27)) */\n      jump\t// in\n    tag_236:\n      pop\n        /* \"@chainlink/contracts@1.3.0/src/v0.8/vendor/solidity-cborutils/v2.0.0/CBOR.sol\":6871:6878  buf.buf */\n      dup3\n      mload\n        /* \"@chainlink/contracts@1.3.0/src/v0.8/vendor/solidity-cborutils/v2.0.0/CBOR.sol\":6871:6898  buf.buf.appendInt(value, 8) */\n      tag_221\n      swap1\n      sub(shl(0x40, 0x01), 0x01)\n      dup4\n      and\n        /* \"@chainlink/contracts@1.3.0/src/v0.8/vendor/solidity-cborutils/v2.0.0/CBOR.sol\":6896:6897  8 */\n      0x08\n        /* \"@chainlink/contracts@1.3.0/src/v0.8/vendor/solidity-cborutils/v2.0.0/CBOR.sol\":6871:6888  buf.buf.appendInt */\n      tag_226\n        /* \"@chainlink/contracts@1.3.0/src/v0.8/vendor/solidity-cborutils/v2.0.0/CBOR.sol\":6871:6898  buf.buf.appendInt(value, 8) */\n      jump\t// in\n        /* \"@chainlink/contracts@1.3.0/src/v0.8/vendor/@ensdomains/buffer/v0.1.0/Buffer.sol\":4539:4685  function append(buffer memory buf, bytes memory data) internal pure returns (buffer memory) {... */\n    tag_190:\n      0x40\n      dup1\n      mload\n      dup1\n      dup3\n      add\n      swap1\n      swap2\n      mstore\n      0x60\n      dup2\n      mstore\n      0x00\n      0x20\n      dup3\n      add\n      mstore\n        /* \"@chainlink/contracts@1.3.0/src/v0.8/vendor/@ensdomains/buffer/v0.1.0/Buffer.sol\":4648:4678  append(buf, data, data.length) */\n      tag_240\n        /* \"@chainlink/contracts@1.3.0/src/v0.8/vendor/@ensdomains/buffer/v0.1.0/Buffer.sol\":4655:4658  buf */\n      dup4\n        /* \"@chainlink/contracts@1.3.0/src/v0.8/vendor/@ensdomains/buffer/v0.1.0/Buffer.sol\":4660:4664  data */\n      dup4\n        /* \"@chainlink/contracts@1.3.0/src/v0.8/vendor/@ensdomains/buffer/v0.1.0/Buffer.sol\":4666:4670  data */\n      dup5\n        /* \"@chainlink/contracts@1.3.0/src/v0.8/vendor/@ensdomains/buffer/v0.1.0/Buffer.sol\":4666:4677  data.length */\n      mload\n        /* \"@chainlink/contracts@1.3.0/src/v0.8/vendor/@ensdomains/buffer/v0.1.0/Buffer.sol\":4648:4654  append */\n      tag_241\n        /* \"@chainlink/contracts@1.3.0/src/v0.8/vendor/@ensdomains/buffer/v0.1.0/Buffer.sol\":4648:4678  append(buf, data, data.length) */\n      jump\t// in\n    tag_240:\n        /* \"@chainlink/contracts@1.3.0/src/v0.8/vendor/@ensdomains/buffer/v0.1.0/Buffer.sol\":4641:4678  return append(buf, data, data.length) */\n      swap4\n        /* \"@chainlink/contracts@1.3.0/src/v0.8/vendor/@ensdomains/buffer/v0.1.0/Buffer.sol\":4539:4685  function append(buffer memory buf, bytes memory data) internal pure returns (buffer memory) {... */\n      swap3\n      pop\n      pop\n      pop\n      jump\t// out\n        /* \"@chainlink/contracts@1.3.0/src/v0.8/vendor/@ensdomains/buffer/v0.1.0/Buffer.sol\":4948:5647  function appendUint8(buffer memory buf, uint8 data) internal pure returns(buffer memory) {... */\n    tag_193:\n      0x40\n      dup1\n      mload\n      dup1\n      dup3\n      add\n      swap1\n      swap2\n      mstore\n      0x60\n      dup2\n      mstore\n      0x00\n      0x20\n      dup3\n      add\n      mstore\n        /* \"@chainlink/contracts@1.3.0/src/v0.8/vendor/@ensdomains/buffer/v0.1.0/Buffer.sol\":5058:5065  buf.buf */\n      dup3\n      mload\n        /* \"@chainlink/contracts@1.3.0/src/v0.8/vendor/@ensdomains/buffer/v0.1.0/Buffer.sol\":5058:5072  buf.buf.length */\n      mload\n        /* \"@chainlink/contracts@1.3.0/src/v0.8/vendor/@ensdomains/buffer/v0.1.0/Buffer.sol\":5047:5055  uint off */\n      0x00\n        /* \"@chainlink/contracts@1.3.0/src/v0.8/vendor/@ensdomains/buffer/v0.1.0/Buffer.sol\":5100:5107  off + 1 */\n      tag_244\n        /* \"@chainlink/contracts@1.3.0/src/v0.8/vendor/@ensdomains/buffer/v0.1.0/Buffer.sol\":5058:5072  buf.buf.length */\n      dup3\n        /* \"@chainlink/contracts@1.3.0/src/v0.8/vendor/@ensdomains/buffer/v0.1.0/Buffer.sol\":5106:5107  1 */\n      0x01\n        /* \"@chainlink/contracts@1.3.0/src/v0.8/vendor/@ensdomains/buffer/v0.1.0/Buffer.sol\":5100:5107  off + 1 */\n      tag_201\n      jump\t// in\n    tag_244:\n        /* \"@chainlink/contracts@1.3.0/src/v0.8/vendor/@ensdomains/buffer/v0.1.0/Buffer.sol\":5082:5107  uint offPlusOne = off + 1 */\n      swap1\n      pop\n        /* \"@chainlink/contracts@1.3.0/src/v0.8/vendor/@ensdomains/buffer/v0.1.0/Buffer.sol\":5128:5131  buf */\n      dup5\n        /* \"@chainlink/contracts@1.3.0/src/v0.8/vendor/@ensdomains/buffer/v0.1.0/Buffer.sol\":5128:5140  buf.capacity */\n      0x20\n      add\n      mload\n        /* \"@chainlink/contracts@1.3.0/src/v0.8/vendor/@ensdomains/buffer/v0.1.0/Buffer.sol\":5121:5124  off */\n      dup3\n        /* \"@chainlink/contracts@1.3.0/src/v0.8/vendor/@ensdomains/buffer/v0.1.0/Buffer.sol\":5121:5140  off >= buf.capacity */\n      lt\n        /* \"@chainlink/contracts@1.3.0/src/v0.8/vendor/@ensdomains/buffer/v0.1.0/Buffer.sol\":5117:5194  if (off >= buf.capacity) {... */\n      tag_246\n      jumpi\n        /* \"@chainlink/contracts@1.3.0/src/v0.8/vendor/@ensdomains/buffer/v0.1.0/Buffer.sol\":5156:5183  resize(buf, offPlusOne * 2) */\n      tag_246\n        /* \"@chainlink/contracts@1.3.0/src/v0.8/vendor/@ensdomains/buffer/v0.1.0/Buffer.sol\":5163:5166  buf */\n      dup6\n        /* \"@chainlink/contracts@1.3.0/src/v0.8/vendor/@ensdomains/buffer/v0.1.0/Buffer.sol\":5168:5182  offPlusOne * 2 */\n      tag_247\n        /* \"@chainlink/contracts@1.3.0/src/v0.8/vendor/@ensdomains/buffer/v0.1.0/Buffer.sol\":5168:5178  offPlusOne */\n      dup4\n        /* \"@chainlink/contracts@1.3.0/src/v0.8/vendor/@ensdomains/buffer/v0.1.0/Buffer.sol\":5181:5182  2 */\n      0x02\n        /* \"@chainlink/contracts@1.3.0/src/v0.8/vendor/@ensdomains/buffer/v0.1.0/Buffer.sol\":5168:5182  offPlusOne * 2 */\n      tag_248\n      jump\t// in\n    tag_247:\n        /* \"@chainlink/contracts@1.3.0/src/v0.8/vendor/@ensdomains/buffer/v0.1.0/Buffer.sol\":5156:5162  resize */\n      tag_249\n        /* \"@chainlink/contracts@1.3.0/src/v0.8/vendor/@ensdomains/buffer/v0.1.0/Buffer.sol\":5156:5183  resize(buf, offPlusOne * 2) */\n      jump\t// in\n    tag_246:\n        /* \"@chainlink/contracts@1.3.0/src/v0.8/vendor/@ensdomains/buffer/v0.1.0/Buffer.sol\":5296:5299  buf */\n      dup5\n        /* \"@chainlink/contracts@1.3.0/src/v0.8/vendor/@ensdomains/buffer/v0.1.0/Buffer.sol\":5290:5300  mload(buf) */\n      mload\n        /* \"@chainlink/contracts@1.3.0/src/v0.8/vendor/@ensdomains/buffer/v0.1.0/Buffer.sol\":5417:5419  32 */\n      0x20\n        /* \"@chainlink/contracts@1.3.0/src/v0.8/vendor/@ensdomains/buffer/v0.1.0/Buffer.sol\":5411:5414  off */\n      dup4\n        /* \"@chainlink/contracts@1.3.0/src/v0.8/vendor/@ensdomains/buffer/v0.1.0/Buffer.sol\":5403:5409  bufptr */\n      dup3\n        /* \"@chainlink/contracts@1.3.0/src/v0.8/vendor/@ensdomains/buffer/v0.1.0/Buffer.sol\":5399:5415  add(bufptr, off) */\n      add\n        /* \"@chainlink/contracts@1.3.0/src/v0.8/vendor/@ensdomains/buffer/v0.1.0/Buffer.sol\":5395:5420  add(add(bufptr, off), 32) */\n      add\n        /* \"@chainlink/contracts@1.3.0/src/v0.8/vendor/@ensdomains/buffer/v0.1.0/Buffer.sol\":5447:5451  data */\n      dup6\n        /* \"@chainlink/contracts@1.3.0/src/v0.8/vendor/@ensdomains/buffer/v0.1.0/Buffer.sol\":5441:5445  dest */\n      dup2\n        /* \"@chainlink/contracts@1.3.0/src/v0.8/vendor/@ensdomains/buffer/v0.1.0/Buffer.sol\":5433:5452  mstore8(dest, data) */\n      mstore8\n      pop\n        /* \"@chainlink/contracts@1.3.0/src/v0.8/vendor/@ensdomains/buffer/v0.1.0/Buffer.sol\":5543:5549  bufptr */\n      dup1\n        /* \"@chainlink/contracts@1.3.0/src/v0.8/vendor/@ensdomains/buffer/v0.1.0/Buffer.sol\":5537:5550  mload(bufptr) */\n      mload\n        /* \"@chainlink/contracts@1.3.0/src/v0.8/vendor/@ensdomains/buffer/v0.1.0/Buffer.sol\":5525:5535  offPlusOne */\n      dup3\n        /* \"@chainlink/contracts@1.3.0/src/v0.8/vendor/@ensdomains/buffer/v0.1.0/Buffer.sol\":5522:5551  gt(offPlusOne, mload(bufptr)) */\n      gt\n        /* \"@chainlink/contracts@1.3.0/src/v0.8/vendor/@ensdomains/buffer/v0.1.0/Buffer.sol\":5519:5610  if gt(offPlusOne, mload(bufptr)) {... */\n      iszero\n      tag_250\n      jumpi\n        /* \"@chainlink/contracts@1.3.0/src/v0.8/vendor/@ensdomains/buffer/v0.1.0/Buffer.sol\":5585:5595  offPlusOne */\n      dup2\n        /* \"@chainlink/contracts@1.3.0/src/v0.8/vendor/@ensdomains/buffer/v0.1.0/Buffer.sol\":5577:5583  bufptr */\n      dup2\n        /* \"@chainlink/contracts@1.3.0/src/v0.8/vendor/@ensdomains/buffer/v0.1.0/Buffer.sol\":5570:5596  mstore(bufptr, offPlusOne) */\n      mstore\n        /* \"@chainlink/contracts@1.3.0/src/v0.8/vendor/@ensdomains/buffer/v0.1.0/Buffer.sol\":5519:5610  if gt(offPlusOne, mload(bufptr)) {... */\n    tag_250:\n      pop\n        /* \"@chainlink/contracts@1.3.0/src/v0.8/vendor/@ensdomains/buffer/v0.1.0/Buffer.sol\":5637:5640  buf */\n      swap4\n      swap5\n        /* \"@chainlink/contracts@1.3.0/src/v0.8/vendor/@ensdomains/buffer/v0.1.0/Buffer.sol\":4948:5647  function appendUint8(buffer memory buf, uint8 data) internal pure returns(buffer memory) {... */\n      swap4\n      pop\n      pop\n      pop\n      pop\n      jump\t// out\n        /* \"@chainlink/contracts@1.3.0/src/v0.8/vendor/solidity-cborutils/v2.0.0/CBOR.sol\":6921:7087  function writeIndefiniteLengthType(CBORBuffer memory buf, uint8 major)... */\n    tag_199:\n        /* \"@chainlink/contracts@1.3.0/src/v0.8/vendor/solidity-cborutils/v2.0.0/CBOR.sol\":7035:7042  buf.buf */\n      dup2\n      mload\n        /* \"@chainlink/contracts@1.3.0/src/v0.8/vendor/solidity-cborutils/v2.0.0/CBOR.sol\":7035:7080  buf.buf.appendUint8(uint8((major << 5) | 31)) */\n      tag_189\n      swap1\n        /* \"@chainlink/contracts@1.3.0/src/v0.8/vendor/solidity-cborutils/v2.0.0/CBOR.sol\":7076:7078  31 */\n      0x1f\n        /* \"@chainlink/contracts@1.3.0/src/v0.8/vendor/solidity-cborutils/v2.0.0/CBOR.sol\":7062:7072  major << 5 */\n      0x1fe0\n        /* \"@chainlink/contracts@1.3.0/src/v0.8/vendor/solidity-cborutils/v2.0.0/CBOR.sol\":7071:7072  5 */\n      0x05\n        /* \"@chainlink/contracts@1.3.0/src/v0.8/vendor/solidity-cborutils/v2.0.0/CBOR.sol\":7062:7072  major << 5 */\n      dup6\n      swap1\n      shl\n      and\n        /* \"@chainlink/contracts@1.3.0/src/v0.8/vendor/solidity-cborutils/v2.0.0/CBOR.sol\":7061:7078  (major << 5) | 31 */\n      or\n        /* \"@chainlink/contracts@1.3.0/src/v0.8/vendor/solidity-cborutils/v2.0.0/CBOR.sol\":7035:7054  buf.buf.appendUint8 */\n      tag_193\n        /* \"@chainlink/contracts@1.3.0/src/v0.8/vendor/solidity-cborutils/v2.0.0/CBOR.sol\":7035:7080  buf.buf.appendUint8(uint8((major << 5) | 31)) */\n      jump\t// in\n        /* \"@chainlink/contracts@1.3.0/src/v0.8/vendor/@ensdomains/buffer/v0.1.0/Buffer.sol\":8083:8878  function appendInt(buffer memory buf, uint data, uint len) internal pure returns(buffer memory) {... */\n    tag_226:\n      0x40\n      dup1\n      mload\n      dup1\n      dup3\n      add\n      swap1\n      swap2\n      mstore\n      0x60\n      dup2\n      mstore\n      0x00\n      0x20\n      dup3\n      add\n      mstore\n        /* \"@chainlink/contracts@1.3.0/src/v0.8/vendor/@ensdomains/buffer/v0.1.0/Buffer.sol\":8200:8207  buf.buf */\n      dup4\n      mload\n        /* \"@chainlink/contracts@1.3.0/src/v0.8/vendor/@ensdomains/buffer/v0.1.0/Buffer.sol\":8200:8214  buf.buf.length */\n      mload\n        /* \"@chainlink/contracts@1.3.0/src/v0.8/vendor/@ensdomains/buffer/v0.1.0/Buffer.sol\":8189:8197  uint off */\n      0x00\n        /* \"@chainlink/contracts@1.3.0/src/v0.8/vendor/@ensdomains/buffer/v0.1.0/Buffer.sol\":8243:8252  len + off */\n      tag_255\n        /* \"@chainlink/contracts@1.3.0/src/v0.8/vendor/@ensdomains/buffer/v0.1.0/Buffer.sol\":8200:8214  buf.buf.length */\n      dup3\n        /* \"@chainlink/contracts@1.3.0/src/v0.8/vendor/@ensdomains/buffer/v0.1.0/Buffer.sol\":8243:8246  len */\n      dup6\n        /* \"@chainlink/contracts@1.3.0/src/v0.8/vendor/@ensdomains/buffer/v0.1.0/Buffer.sol\":8243:8252  len + off */\n      tag_201\n      jump\t// in\n    tag_255:\n        /* \"@chainlink/contracts@1.3.0/src/v0.8/vendor/@ensdomains/buffer/v0.1.0/Buffer.sol\":8224:8252  uint newCapacity = len + off */\n      swap1\n      pop\n        /* \"@chainlink/contracts@1.3.0/src/v0.8/vendor/@ensdomains/buffer/v0.1.0/Buffer.sol\":8280:8283  buf */\n      dup6\n        /* \"@chainlink/contracts@1.3.0/src/v0.8/vendor/@ensdomains/buffer/v0.1.0/Buffer.sol\":8280:8292  buf.capacity */\n      0x20\n      add\n      mload\n        /* \"@chainlink/contracts@1.3.0/src/v0.8/vendor/@ensdomains/buffer/v0.1.0/Buffer.sol\":8266:8277  newCapacity */\n      dup2\n        /* \"@chainlink/contracts@1.3.0/src/v0.8/vendor/@ensdomains/buffer/v0.1.0/Buffer.sol\":8266:8292  newCapacity > buf.capacity */\n      gt\n        /* \"@chainlink/contracts@1.3.0/src/v0.8/vendor/@ensdomains/buffer/v0.1.0/Buffer.sol\":8262:8347  if (newCapacity > buf.capacity) {... */\n      iszero\n      tag_257\n      jumpi\n        /* \"@chainlink/contracts@1.3.0/src/v0.8/vendor/@ensdomains/buffer/v0.1.0/Buffer.sol\":8308:8336  resize(buf, newCapacity * 2) */\n      tag_257\n        /* \"@chainlink/contracts@1.3.0/src/v0.8/vendor/@ensdomains/buffer/v0.1.0/Buffer.sol\":8315:8318  buf */\n      dup7\n        /* \"@chainlink/contracts@1.3.0/src/v0.8/vendor/@ensdomains/buffer/v0.1.0/Buffer.sol\":8320:8335  newCapacity * 2 */\n      tag_247\n        /* \"@chainlink/contracts@1.3.0/src/v0.8/vendor/@ensdomains/buffer/v0.1.0/Buffer.sol\":8320:8331  newCapacity */\n      dup4\n        /* \"@chainlink/contracts@1.3.0/src/v0.8/vendor/@ensdomains/buffer/v0.1.0/Buffer.sol\":8334:8335  2 */\n      0x02\n        /* \"@chainlink/contracts@1.3.0/src/v0.8/vendor/@ensdomains/buffer/v0.1.0/Buffer.sol\":8320:8335  newCapacity * 2 */\n      tag_248\n      jump\t// in\n        /* \"@chainlink/contracts@1.3.0/src/v0.8/vendor/@ensdomains/buffer/v0.1.0/Buffer.sol\":8308:8336  resize(buf, newCapacity * 2) */\n    tag_257:\n        /* \"@chainlink/contracts@1.3.0/src/v0.8/vendor/@ensdomains/buffer/v0.1.0/Buffer.sol\":8357:8366  uint mask */\n      0x00\n        /* \"@chainlink/contracts@1.3.0/src/v0.8/vendor/@ensdomains/buffer/v0.1.0/Buffer.sol\":8384:8385  1 */\n      0x01\n        /* \"@chainlink/contracts@1.3.0/src/v0.8/vendor/@ensdomains/buffer/v0.1.0/Buffer.sol\":8370:8380  256 ** len */\n      tag_259\n        /* \"@chainlink/contracts@1.3.0/src/v0.8/vendor/@ensdomains/buffer/v0.1.0/Buffer.sol\":8377:8380  len */\n      dup7\n        /* \"@chainlink/contracts@1.3.0/src/v0.8/vendor/@ensdomains/buffer/v0.1.0/Buffer.sol\":8370:8373  256 */\n      0x0100\n        /* \"@chainlink/contracts@1.3.0/src/v0.8/vendor/@ensdomains/buffer/v0.1.0/Buffer.sol\":8370:8380  256 ** len */\n      tag_260\n      jump\t// in\n    tag_259:\n        /* \"@chainlink/contracts@1.3.0/src/v0.8/vendor/@ensdomains/buffer/v0.1.0/Buffer.sol\":8369:8385  (256 ** len) - 1 */\n      tag_261\n      swap2\n      swap1\n      tag_205\n      jump\t// in\n    tag_261:\n        /* \"@chainlink/contracts@1.3.0/src/v0.8/vendor/@ensdomains/buffer/v0.1.0/Buffer.sol\":8357:8385  uint mask = (256 ** len) - 1 */\n      swap1\n      pop\n        /* \"@chainlink/contracts@1.3.0/src/v0.8/vendor/@ensdomains/buffer/v0.1.0/Buffer.sol\":8487:8490  buf */\n      dup7\n        /* \"@chainlink/contracts@1.3.0/src/v0.8/vendor/@ensdomains/buffer/v0.1.0/Buffer.sol\":8481:8491  mload(buf) */\n      mload\n        /* \"@chainlink/contracts@1.3.0/src/v0.8/vendor/@ensdomains/buffer/v0.1.0/Buffer.sol\":8606:8617  newCapacity */\n      dup3\n        /* \"@chainlink/contracts@1.3.0/src/v0.8/vendor/@ensdomains/buffer/v0.1.0/Buffer.sol\":8598:8604  bufptr */\n      dup2\n        /* \"@chainlink/contracts@1.3.0/src/v0.8/vendor/@ensdomains/buffer/v0.1.0/Buffer.sol\":8594:8618  add(bufptr, newCapacity) */\n      add\n        /* \"@chainlink/contracts@1.3.0/src/v0.8/vendor/@ensdomains/buffer/v0.1.0/Buffer.sol\":8676:8680  data */\n      dup8\n        /* \"@chainlink/contracts@1.3.0/src/v0.8/vendor/@ensdomains/buffer/v0.1.0/Buffer.sol\":8668:8672  mask */\n      dup4\n        /* \"@chainlink/contracts@1.3.0/src/v0.8/vendor/@ensdomains/buffer/v0.1.0/Buffer.sol\":8664:8673  not(mask) */\n      not\n        /* \"@chainlink/contracts@1.3.0/src/v0.8/vendor/@ensdomains/buffer/v0.1.0/Buffer.sol\":8657:8661  dest */\n      dup3\n        /* \"@chainlink/contracts@1.3.0/src/v0.8/vendor/@ensdomains/buffer/v0.1.0/Buffer.sol\":8651:8662  mload(dest) */\n      mload\n        /* \"@chainlink/contracts@1.3.0/src/v0.8/vendor/@ensdomains/buffer/v0.1.0/Buffer.sol\":8647:8674  and(mload(dest), not(mask)) */\n      and\n        /* \"@chainlink/contracts@1.3.0/src/v0.8/vendor/@ensdomains/buffer/v0.1.0/Buffer.sol\":8644:8681  or(and(mload(dest), not(mask)), data) */\n      or\n        /* \"@chainlink/contracts@1.3.0/src/v0.8/vendor/@ensdomains/buffer/v0.1.0/Buffer.sol\":8638:8642  dest */\n      dup2\n        /* \"@chainlink/contracts@1.3.0/src/v0.8/vendor/@ensdomains/buffer/v0.1.0/Buffer.sol\":8631:8682  mstore(dest, or(and(mload(dest), not(mask)), data)) */\n      mstore\n      pop\n        /* \"@chainlink/contracts@1.3.0/src/v0.8/vendor/@ensdomains/buffer/v0.1.0/Buffer.sol\":8774:8780  bufptr */\n      dup1\n        /* \"@chainlink/contracts@1.3.0/src/v0.8/vendor/@ensdomains/buffer/v0.1.0/Buffer.sol\":8768:8781  mload(bufptr) */\n      mload\n        /* \"@chainlink/contracts@1.3.0/src/v0.8/vendor/@ensdomains/buffer/v0.1.0/Buffer.sol\":8755:8766  newCapacity */\n      dup4\n        /* \"@chainlink/contracts@1.3.0/src/v0.8/vendor/@ensdomains/buffer/v0.1.0/Buffer.sol\":8752:8782  gt(newCapacity, mload(bufptr)) */\n      gt\n        /* \"@chainlink/contracts@1.3.0/src/v0.8/vendor/@ensdomains/buffer/v0.1.0/Buffer.sol\":8749:8842  if gt(newCapacity, mload(bufptr)) {... */\n      iszero\n      tag_262\n      jumpi\n        /* \"@chainlink/contracts@1.3.0/src/v0.8/vendor/@ensdomains/buffer/v0.1.0/Buffer.sol\":8816:8827  newCapacity */\n      dup3\n        /* \"@chainlink/contracts@1.3.0/src/v0.8/vendor/@ensdomains/buffer/v0.1.0/Buffer.sol\":8808:8814  bufptr */\n      dup2\n        /* \"@chainlink/contracts@1.3.0/src/v0.8/vendor/@ensdomains/buffer/v0.1.0/Buffer.sol\":8801:8828  mstore(bufptr, newCapacity) */\n      mstore\n        /* \"@chainlink/contracts@1.3.0/src/v0.8/vendor/@ensdomains/buffer/v0.1.0/Buffer.sol\":8749:8842  if gt(newCapacity, mload(bufptr)) {... */\n    tag_262:\n      pop\n        /* \"@chainlink/contracts@1.3.0/src/v0.8/vendor/@ensdomains/buffer/v0.1.0/Buffer.sol\":8868:8871  buf */\n      swap6\n      swap7\n        /* \"@chainlink/contracts@1.3.0/src/v0.8/vendor/@ensdomains/buffer/v0.1.0/Buffer.sol\":8083:8878  function appendInt(buffer memory buf, uint data, uint len) internal pure returns(buffer memory) {... */\n      swap6\n      pop\n      pop\n      pop\n      pop\n      pop\n      pop\n      jump\t// out\n        /* \"@chainlink/contracts@1.3.0/src/v0.8/vendor/@ensdomains/buffer/v0.1.0/Buffer.sol\":2844:4271  function append(buffer memory buf, bytes memory data, uint len) internal pure returns(buffer memory) {... */\n    tag_241:\n      0x40\n      dup1\n      mload\n      dup1\n      dup3\n      add\n      swap1\n      swap2\n      mstore\n      0x60\n      dup2\n      mstore\n      0x00\n      0x20\n      dup3\n      add\n      mstore\n        /* \"@chainlink/contracts@1.3.0/src/v0.8/vendor/@ensdomains/buffer/v0.1.0/Buffer.sol\":2970:2974  data */\n      dup3\n        /* \"@chainlink/contracts@1.3.0/src/v0.8/vendor/@ensdomains/buffer/v0.1.0/Buffer.sol\":2970:2981  data.length */\n      mload\n        /* \"@chainlink/contracts@1.3.0/src/v0.8/vendor/@ensdomains/buffer/v0.1.0/Buffer.sol\":2963:2966  len */\n      dup3\n        /* \"@chainlink/contracts@1.3.0/src/v0.8/vendor/@ensdomains/buffer/v0.1.0/Buffer.sol\":2963:2981  len <= data.length */\n      gt\n      iszero\n        /* \"@chainlink/contracts@1.3.0/src/v0.8/vendor/@ensdomains/buffer/v0.1.0/Buffer.sol\":2955:2982  require(len <= data.length) */\n      tag_265\n      jumpi\n      revert(0x00, 0x00)\n    tag_265:\n        /* \"@chainlink/contracts@1.3.0/src/v0.8/vendor/@ensdomains/buffer/v0.1.0/Buffer.sol\":3004:3011  buf.buf */\n      dup4\n      mload\n        /* \"@chainlink/contracts@1.3.0/src/v0.8/vendor/@ensdomains/buffer/v0.1.0/Buffer.sol\":3004:3018  buf.buf.length */\n      mload\n        /* \"@chainlink/contracts@1.3.0/src/v0.8/vendor/@ensdomains/buffer/v0.1.0/Buffer.sol\":2993:3001  uint off */\n      0x00\n        /* \"@chainlink/contracts@1.3.0/src/v0.8/vendor/@ensdomains/buffer/v0.1.0/Buffer.sol\":3047:3056  off + len */\n      tag_266\n        /* \"@chainlink/contracts@1.3.0/src/v0.8/vendor/@ensdomains/buffer/v0.1.0/Buffer.sol\":3053:3056  len */\n      dup5\n        /* \"@chainlink/contracts@1.3.0/src/v0.8/vendor/@ensdomains/buffer/v0.1.0/Buffer.sol\":3004:3018  buf.buf.length */\n      dup4\n        /* \"@chainlink/contracts@1.3.0/src/v0.8/vendor/@ensdomains/buffer/v0.1.0/Buffer.sol\":3047:3056  off + len */\n      tag_201\n      jump\t// in\n    tag_266:\n        /* \"@chainlink/contracts@1.3.0/src/v0.8/vendor/@ensdomains/buffer/v0.1.0/Buffer.sol\":3028:3056  uint newCapacity = off + len */\n      swap1\n      pop\n        /* \"@chainlink/contracts@1.3.0/src/v0.8/vendor/@ensdomains/buffer/v0.1.0/Buffer.sol\":3084:3087  buf */\n      dup6\n        /* \"@chainlink/contracts@1.3.0/src/v0.8/vendor/@ensdomains/buffer/v0.1.0/Buffer.sol\":3084:3096  buf.capacity */\n      0x20\n      add\n      mload\n        /* \"@chainlink/contracts@1.3.0/src/v0.8/vendor/@ensdomains/buffer/v0.1.0/Buffer.sol\":3070:3081  newCapacity */\n      dup2\n        /* \"@chainlink/contracts@1.3.0/src/v0.8/vendor/@ensdomains/buffer/v0.1.0/Buffer.sol\":3070:3096  newCapacity > buf.capacity */\n      gt\n        /* \"@chainlink/contracts@1.3.0/src/v0.8/vendor/@ensdomains/buffer/v0.1.0/Buffer.sol\":3066:3151  if (newCapacity > buf.capacity) {... */\n      iszero\n      tag_268\n      jumpi\n        /* \"@chainlink/contracts@1.3.0/src/v0.8/vendor/@ensdomains/buffer/v0.1.0/Buffer.sol\":3112:3140  resize(buf, newCapacity * 2) */\n      tag_268\n        /* \"@chainlink/contracts@1.3.0/src/v0.8/vendor/@ensdomains/buffer/v0.1.0/Buffer.sol\":3119:3122  buf */\n      dup7\n        /* \"@chainlink/contracts@1.3.0/src/v0.8/vendor/@ensdomains/buffer/v0.1.0/Buffer.sol\":3124:3139  newCapacity * 2 */\n      tag_247\n        /* \"@chainlink/contracts@1.3.0/src/v0.8/vendor/@ensdomains/buffer/v0.1.0/Buffer.sol\":3124:3135  newCapacity */\n      dup4\n        /* \"@chainlink/contracts@1.3.0/src/v0.8/vendor/@ensdomains/buffer/v0.1.0/Buffer.sol\":3138:3139  2 */\n      0x02\n        /* \"@chainlink/contracts@1.3.0/src/v0.8/vendor/@ensdomains/buffer/v0.1.0/Buffer.sol\":3124:3139  newCapacity * 2 */\n      tag_248\n      jump\t// in\n        /* \"@chainlink/contracts@1.3.0/src/v0.8/vendor/@ensdomains/buffer/v0.1.0/Buffer.sol\":3112:3140  resize(buf, newCapacity * 2) */\n    tag_268:\n        /* \"@chainlink/contracts@1.3.0/src/v0.8/vendor/@ensdomains/buffer/v0.1.0/Buffer.sol\":3284:3294  mload(buf) */\n      dup6\n      mload\n        /* \"@chainlink/contracts@1.3.0/src/v0.8/vendor/@ensdomains/buffer/v0.1.0/Buffer.sol\":3367:3380  mload(bufptr) */\n      dup1\n      mload\n        /* \"@chainlink/contracts@1.3.0/src/v0.8/vendor/@ensdomains/buffer/v0.1.0/Buffer.sol\":3480:3505  add(add(bufptr, 32), off) */\n      dup4\n      dup3\n      add\n        /* \"@chainlink/contracts@1.3.0/src/v0.8/vendor/@ensdomains/buffer/v0.1.0/Buffer.sol\":3496:3498  32 */\n      0x20\n        /* \"@chainlink/contracts@1.3.0/src/v0.8/vendor/@ensdomains/buffer/v0.1.0/Buffer.sol\":3480:3505  add(add(bufptr, 32), off) */\n      add\n      swap2\n        /* \"@chainlink/contracts@1.3.0/src/v0.8/vendor/@ensdomains/buffer/v0.1.0/Buffer.sol\":3161:3170  uint dest */\n      0x00\n      swap2\n        /* \"@chainlink/contracts@1.3.0/src/v0.8/vendor/@ensdomains/buffer/v0.1.0/Buffer.sol\":3579:3602  gt(newCapacity, buflen) */\n      dup1\n      dup6\n      gt\n        /* \"@chainlink/contracts@1.3.0/src/v0.8/vendor/@ensdomains/buffer/v0.1.0/Buffer.sol\":3576:3662  if gt(newCapacity, buflen) {... */\n      iszero\n      tag_270\n      jumpi\n        /* \"@chainlink/contracts@1.3.0/src/v0.8/vendor/@ensdomains/buffer/v0.1.0/Buffer.sol\":3636:3647  newCapacity */\n      dup5\n        /* \"@chainlink/contracts@1.3.0/src/v0.8/vendor/@ensdomains/buffer/v0.1.0/Buffer.sol\":3628:3634  bufptr */\n      dup3\n        /* \"@chainlink/contracts@1.3.0/src/v0.8/vendor/@ensdomains/buffer/v0.1.0/Buffer.sol\":3621:3648  mstore(bufptr, newCapacity) */\n      mstore\n        /* \"@chainlink/contracts@1.3.0/src/v0.8/vendor/@ensdomains/buffer/v0.1.0/Buffer.sol\":3576:3662  if gt(newCapacity, buflen) {... */\n    tag_270:\n      pop\n      pop\n      pop\n        /* \"@chainlink/contracts@1.3.0/src/v0.8/vendor/@ensdomains/buffer/v0.1.0/Buffer.sol\":3692:3694  32 */\n      0x20\n        /* \"@chainlink/contracts@1.3.0/src/v0.8/vendor/@ensdomains/buffer/v0.1.0/Buffer.sol\":3682:3695  add(data, 32) */\n      dup7\n      add\n        /* \"@chainlink/contracts@1.3.0/src/v0.8/vendor/@ensdomains/buffer/v0.1.0/Buffer.sol\":3765:3930  for (; len >= 32; len -= 32) {... */\n    tag_271:\n        /* \"@chainlink/contracts@1.3.0/src/v0.8/vendor/@ensdomains/buffer/v0.1.0/Buffer.sol\":3779:3781  32 */\n      0x20\n        /* \"@chainlink/contracts@1.3.0/src/v0.8/vendor/@ensdomains/buffer/v0.1.0/Buffer.sol\":3772:3775  len */\n      dup7\n        /* \"@chainlink/contracts@1.3.0/src/v0.8/vendor/@ensdomains/buffer/v0.1.0/Buffer.sol\":3772:3781  len >= 32 */\n      lt\n        /* \"@chainlink/contracts@1.3.0/src/v0.8/vendor/@ensdomains/buffer/v0.1.0/Buffer.sol\":3765:3930  for (; len >= 32; len -= 32) {... */\n      tag_272\n      jumpi\n        /* \"@chainlink/contracts@1.3.0/src/v0.8/vendor/@ensdomains/buffer/v0.1.0/Buffer.sol\":3848:3858  mload(src) */\n      dup1\n      mload\n        /* \"@chainlink/contracts@1.3.0/src/v0.8/vendor/@ensdomains/buffer/v0.1.0/Buffer.sol\":3835:3859  mstore(dest, mload(src)) */\n      dup3\n      mstore\n        /* \"@chainlink/contracts@1.3.0/src/v0.8/vendor/@ensdomains/buffer/v0.1.0/Buffer.sol\":3886:3896  dest += 32 */\n      tag_274\n        /* \"@chainlink/contracts@1.3.0/src/v0.8/vendor/@ensdomains/buffer/v0.1.0/Buffer.sol\":3894:3896  32 */\n      0x20\n        /* \"@chainlink/contracts@1.3.0/src/v0.8/vendor/@ensdomains/buffer/v0.1.0/Buffer.sol\":3842:3846  dest */\n      dup4\n        /* \"@chainlink/contracts@1.3.0/src/v0.8/vendor/@ensdomains/buffer/v0.1.0/Buffer.sol\":3886:3896  dest += 32 */\n      tag_201\n      jump\t// in\n    tag_274:\n      swap2\n      pop\n        /* \"@chainlink/contracts@1.3.0/src/v0.8/vendor/@ensdomains/buffer/v0.1.0/Buffer.sol\":3910:3919  src += 32 */\n      tag_275\n        /* \"@chainlink/contracts@1.3.0/src/v0.8/vendor/@ensdomains/buffer/v0.1.0/Buffer.sol\":3917:3919  32 */\n      0x20\n        /* \"@chainlink/contracts@1.3.0/src/v0.8/vendor/@ensdomains/buffer/v0.1.0/Buffer.sol\":3910:3919  src += 32 */\n      dup3\n      tag_201\n      jump\t// in\n    tag_275:\n      swap1\n      pop\n        /* \"@chainlink/contracts@1.3.0/src/v0.8/vendor/@ensdomains/buffer/v0.1.0/Buffer.sol\":3783:3792  len -= 32 */\n      tag_276\n        /* \"@chainlink/contracts@1.3.0/src/v0.8/vendor/@ensdomains/buffer/v0.1.0/Buffer.sol\":3790:3792  32 */\n      0x20\n        /* \"@chainlink/contracts@1.3.0/src/v0.8/vendor/@ensdomains/buffer/v0.1.0/Buffer.sol\":3783:3792  len -= 32 */\n      dup8\n      tag_205\n      jump\t// in\n    tag_276:\n      swap6\n      pop\n        /* \"@chainlink/contracts@1.3.0/src/v0.8/vendor/@ensdomains/buffer/v0.1.0/Buffer.sol\":3765:3930  for (; len >= 32; len -= 32) {... */\n      jump(tag_271)\n    tag_272:\n        /* \"@chainlink/contracts@1.3.0/src/v0.8/vendor/@ensdomains/buffer/v0.1.0/Buffer.sol\":4091:4101  mload(src) */\n      mload\n        /* \"@chainlink/contracts@1.3.0/src/v0.8/vendor/@ensdomains/buffer/v0.1.0/Buffer.sol\":4150:4161  mload(dest) */\n      dup2\n      mload\n      not(0x00)\n        /* \"@chainlink/contracts@1.3.0/src/v0.8/vendor/@ensdomains/buffer/v0.1.0/Buffer.sol\":4017:4019  32 */\n      0x20\n        /* \"@chainlink/contracts@1.3.0/src/v0.8/vendor/@ensdomains/buffer/v0.1.0/Buffer.sol\":4017:4025  32 - len */\n      dup9\n      swap1\n      sub\n        /* \"@chainlink/contracts@1.3.0/src/v0.8/vendor/@ensdomains/buffer/v0.1.0/Buffer.sol\":4009:4012  256 */\n      0x0100\n        /* \"@chainlink/contracts@1.3.0/src/v0.8/vendor/@ensdomains/buffer/v0.1.0/Buffer.sol\":4009:4026  256 ** (32 - len) */\n      exp\n        /* \"@chainlink/contracts@1.3.0/src/v0.8/vendor/@ensdomains/buffer/v0.1.0/Buffer.sol\":4008:4031  (256 ** (32 - len)) - 1 */\n      add\n        /* \"@chainlink/contracts@1.3.0/src/v0.8/vendor/@ensdomains/buffer/v0.1.0/Buffer.sol\":4146:4168  and(mload(dest), mask) */\n      swap1\n      dup2\n      and\n        /* \"@chainlink/contracts@1.3.0/src/v0.8/vendor/@ensdomains/buffer/v0.1.0/Buffer.sol\":4103:4112  not(mask) */\n      swap1\n      not\n        /* \"@chainlink/contracts@1.3.0/src/v0.8/vendor/@ensdomains/buffer/v0.1.0/Buffer.sol\":4087:4113  and(mload(src), not(mask)) */\n      swap2\n      swap1\n      swap2\n      and\n        /* \"@chainlink/contracts@1.3.0/src/v0.8/vendor/@ensdomains/buffer/v0.1.0/Buffer.sol\":4198:4219  or(destpart, srcpart) */\n      or\n        /* \"@chainlink/contracts@1.3.0/src/v0.8/vendor/@ensdomains/buffer/v0.1.0/Buffer.sol\":4185:4220  mstore(dest, or(destpart, srcpart)) */\n      swap1\n      mstore\n      pop\n        /* \"@chainlink/contracts@1.3.0/src/v0.8/vendor/@ensdomains/buffer/v0.1.0/Buffer.sol\":4261:4264  buf */\n      dup5\n      swap2\n      pop\n      pop\n        /* \"@chainlink/contracts@1.3.0/src/v0.8/vendor/@ensdomains/buffer/v0.1.0/Buffer.sol\":2844:4271  function append(buffer memory buf, bytes memory data, uint len) internal pure returns(buffer memory) {... */\n      swap4\n      swap3\n      pop\n      pop\n      pop\n      jump\t// out\n        /* \"@chainlink/contracts@1.3.0/src/v0.8/vendor/@ensdomains/buffer/v0.1.0/Buffer.sol\":2004:2171  function resize(buffer memory buf, uint capacity) private pure {... */\n    tag_249:\n        /* \"@chainlink/contracts@1.3.0/src/v0.8/vendor/@ensdomains/buffer/v0.1.0/Buffer.sol\":2099:2106  buf.buf */\n      dup2\n      mload\n        /* \"@chainlink/contracts@1.3.0/src/v0.8/vendor/@ensdomains/buffer/v0.1.0/Buffer.sol\":2116:2135  init(buf, capacity) */\n      tag_278\n        /* \"@chainlink/contracts@1.3.0/src/v0.8/vendor/@ensdomains/buffer/v0.1.0/Buffer.sol\":2099:2102  buf */\n      dup4\n        /* \"@chainlink/contracts@1.3.0/src/v0.8/vendor/@ensdomains/buffer/v0.1.0/Buffer.sol\":2126:2134  capacity */\n      dup4\n        /* \"@chainlink/contracts@1.3.0/src/v0.8/vendor/@ensdomains/buffer/v0.1.0/Buffer.sol\":2116:2120  init */\n      tag_185\n        /* \"@chainlink/contracts@1.3.0/src/v0.8/vendor/@ensdomains/buffer/v0.1.0/Buffer.sol\":2116:2135  init(buf, capacity) */\n      jump\t// in\n    tag_278:\n      pop\n        /* \"@chainlink/contracts@1.3.0/src/v0.8/vendor/@ensdomains/buffer/v0.1.0/Buffer.sol\":2145:2164  append(buf, oldbuf) */\n      tag_221\n        /* \"@chainlink/contracts@1.3.0/src/v0.8/vendor/@ensdomains/buffer/v0.1.0/Buffer.sol\":2152:2155  buf */\n      dup4\n        /* \"@chainlink/contracts@1.3.0/src/v0.8/vendor/@ensdomains/buffer/v0.1.0/Buffer.sol\":2157:2163  oldbuf */\n      dup3\n        /* \"@chainlink/contracts@1.3.0/src/v0.8/vendor/@ensdomains/buffer/v0.1.0/Buffer.sol\":2145:2151  append */\n      tag_190\n        /* \"@chainlink/contracts@1.3.0/src/v0.8/vendor/@ensdomains/buffer/v0.1.0/Buffer.sol\":2145:2164  append(buf, oldbuf) */\n      jump\t// in\n    tag_182:\n      mload(0x40)\n      dup1\n      0x40\n      add\n      0x40\n      mstore\n      dup1\n      tag_286\n      mload(0x40)\n      dup1\n      0x40\n      add\n      0x40\n      mstore\n      dup1\n      0x60\n      dup2\n      mstore\n      0x20\n      add\n      0x00\n      dup2\n      mstore\n      pop\n      swap1\n      jump\n    tag_286:\n      dup2\n      mstore\n      0x20\n      add\n      0x00\n      dup2\n      mstore\n      pop\n      swap1\n      jump\t// out\n        /* \"#utility.yul\":14:303   */\n    tag_287:\n        /* \"#utility.yul\":56:59   */\n      0x00\n        /* \"#utility.yul\":94:99   */\n      dup2\n        /* \"#utility.yul\":88:100   */\n      mload\n        /* \"#utility.yul\":121:127   */\n      dup1\n        /* \"#utility.yul\":116:119   */\n      dup5\n        /* \"#utility.yul\":109:128   */\n      mstore\n        /* \"#utility.yul\":177:183   */\n      dup1\n        /* \"#utility.yul\":170:174   */\n      0x20\n        /* \"#utility.yul\":163:168   */\n      dup5\n        /* \"#utility.yul\":159:175   */\n      add\n        /* \"#utility.yul\":152:156   */\n      0x20\n        /* \"#utility.yul\":147:150   */\n      dup7\n        /* \"#utility.yul\":143:157   */\n      add\n        /* \"#utility.yul\":137:184   */\n      mcopy\n        /* \"#utility.yul\":229:230   */\n      0x00\n        /* \"#utility.yul\":222:226   */\n      0x20\n        /* \"#utility.yul\":213:219   */\n      dup3\n        /* \"#utility.yul\":208:211   */\n      dup7\n        /* \"#utility.yul\":204:220   */\n      add\n        /* \"#utility.yul\":200:227   */\n      add\n        /* \"#utility.yul\":193:231   */\n      mstore\n        /* \"#utility.yul\":292:296   */\n      0x20\n        /* \"#utility.yul\":285:287   */\n      0x1f\n        /* \"#utility.yul\":281:288   */\n      not\n        /* \"#utility.yul\":276:278   */\n      0x1f\n        /* \"#utility.yul\":268:274   */\n      dup4\n        /* \"#utility.yul\":264:279   */\n      add\n        /* \"#utility.yul\":260:289   */\n      and\n        /* \"#utility.yul\":255:258   */\n      dup6\n        /* \"#utility.yul\":251:290   */\n      add\n        /* \"#utility.yul\":247:297   */\n      add\n        /* \"#utility.yul\":240:297   */\n      swap2\n      pop\n      pop\n        /* \"#utility.yul\":14:303   */\n      swap3\n      swap2\n      pop\n      pop\n      jump\t// out\n        /* \"#utility.yul\":308:528   */\n    tag_16:\n        /* \"#utility.yul\":457:459   */\n      0x20\n        /* \"#utility.yul\":446:455   */\n      dup2\n        /* \"#utility.yul\":439:460   */\n      mstore\n        /* \"#utility.yul\":420:424   */\n      0x00\n        /* \"#utility.yul\":477:522   */\n      tag_240\n        /* \"#utility.yul\":518:520   */\n      0x20\n        /* \"#utility.yul\":507:516   */\n      dup4\n        /* \"#utility.yul\":503:521   */\n      add\n        /* \"#utility.yul\":495:501   */\n      dup5\n        /* \"#utility.yul\":477:522   */\n      tag_287\n      jump\t// in\n        /* \"#utility.yul\":533:660   */\n    tag_83:\n        /* \"#utility.yul\":594:604   */\n      0x4e487b71\n        /* \"#utility.yul\":589:592   */\n      0xe0\n        /* \"#utility.yul\":585:605   */\n      shl\n        /* \"#utility.yul\":582:583   */\n      0x00\n        /* \"#utility.yul\":575:606   */\n      mstore\n        /* \"#utility.yul\":625:629   */\n      0x41\n        /* \"#utility.yul\":622:623   */\n      0x04\n        /* \"#utility.yul\":615:630   */\n      mstore\n        /* \"#utility.yul\":649:653   */\n      0x24\n        /* \"#utility.yul\":646:647   */\n      0x00\n        /* \"#utility.yul\":639:654   */\n      revert\n        /* \"#utility.yul\":665:1380   */\n    tag_288:\n        /* \"#utility.yul\":729:734   */\n      0x00\n        /* \"#utility.yul\":761:762   */\n      0x00\n      sub(shl(0x40, 0x01), 0x01)\n        /* \"#utility.yul\":777:783   */\n      dup5\n        /* \"#utility.yul\":774:804   */\n      gt\n        /* \"#utility.yul\":771:827   */\n      iszero\n      tag_304\n      jumpi\n        /* \"#utility.yul\":807:825   */\n      tag_304\n      tag_83\n      jump\t// in\n    tag_304:\n      pop\n        /* \"#utility.yul\":962:964   */\n      0x40\n        /* \"#utility.yul\":956:965   */\n      mload\n      not(0x1f)\n        /* \"#utility.yul\":875:877   */\n      0x1f\n        /* \"#utility.yul\":854:869   */\n      dup6\n      add\n        /* \"#utility.yul\":850:879   */\n      dup2\n      and\n        /* \"#utility.yul\":1020:1022   */\n      0x3f\n        /* \"#utility.yul\":1008:1023   */\n      add\n        /* \"#utility.yul\":1004:1033   */\n      and\n        /* \"#utility.yul\":992:1034   */\n      dup2\n      add\n        /* \"#utility.yul\":1085:1107   */\n      dup2\n      dup2\n      lt\n      sub(shl(0x40, 0x01), 0x01)\n        /* \"#utility.yul\":1049:1083   */\n      dup3\n      gt\n        /* \"#utility.yul\":1046:1108   */\n      or\n        /* \"#utility.yul\":1043:1131   */\n      iszero\n      tag_306\n      jumpi\n        /* \"#utility.yul\":1111:1129   */\n      tag_306\n      tag_83\n      jump\t// in\n    tag_306:\n        /* \"#utility.yul\":1147:1149   */\n      0x40\n        /* \"#utility.yul\":1140:1162   */\n      mstore\n        /* \"#utility.yul\":1195:1217   */\n      dup4\n      dup2\n      mstore\n        /* \"#utility.yul\":1180:1186   */\n      swap1\n      pop\n      dup1\n        /* \"#utility.yul\":1232:1248   */\n      dup3\n      dup5\n      add\n        /* \"#utility.yul\":1229:1254   */\n      dup6\n      lt\n        /* \"#utility.yul\":1226:1271   */\n      iszero\n      tag_307\n      jumpi\n        /* \"#utility.yul\":1267:1268   */\n      0x00\n        /* \"#utility.yul\":1264:1265   */\n      0x00\n        /* \"#utility.yul\":1257:1269   */\n      revert\n        /* \"#utility.yul\":1226:1271   */\n    tag_307:\n        /* \"#utility.yul\":1317:1323   */\n      dup4\n        /* \"#utility.yul\":1312:1315   */\n      dup4\n        /* \"#utility.yul\":1305:1309   */\n      0x20\n        /* \"#utility.yul\":1297:1303   */\n      dup4\n        /* \"#utility.yul\":1293:1310   */\n      add\n        /* \"#utility.yul\":1280:1324   */\n      calldatacopy\n        /* \"#utility.yul\":1372:1373   */\n      0x00\n        /* \"#utility.yul\":1365:1369   */\n      0x20\n        /* \"#utility.yul\":1356:1362   */\n      dup6\n        /* \"#utility.yul\":1348:1354   */\n      dup4\n        /* \"#utility.yul\":1344:1363   */\n      add\n        /* \"#utility.yul\":1340:1370   */\n      add\n        /* \"#utility.yul\":1333:1374   */\n      mstore\n      pop\n        /* \"#utility.yul\":665:1380   */\n      swap4\n      swap3\n      pop\n      pop\n      pop\n      jump\t// out\n        /* \"#utility.yul\":1385:1605   */\n    tag_289:\n        /* \"#utility.yul\":1427:1432   */\n      0x00\n        /* \"#utility.yul\":1480:1483   */\n      dup3\n        /* \"#utility.yul\":1473:1477   */\n      0x1f\n        /* \"#utility.yul\":1465:1471   */\n      dup4\n        /* \"#utility.yul\":1461:1478   */\n      add\n        /* \"#utility.yul\":1457:1484   */\n      slt\n        /* \"#utility.yul\":1447:1502   */\n      tag_309\n      jumpi\n        /* \"#utility.yul\":1498:1499   */\n      0x00\n        /* \"#utility.yul\":1495:1496   */\n      0x00\n        /* \"#utility.yul\":1488:1500   */\n      revert\n        /* \"#utility.yul\":1447:1502   */\n    tag_309:\n        /* \"#utility.yul\":1520:1599   */\n      tag_240\n        /* \"#utility.yul\":1595:1598   */\n      dup4\n        /* \"#utility.yul\":1586:1592   */\n      dup4\n        /* \"#utility.yul\":1573:1593   */\n      calldataload\n        /* \"#utility.yul\":1566:1570   */\n      0x20\n        /* \"#utility.yul\":1558:1564   */\n      dup6\n        /* \"#utility.yul\":1554:1571   */\n      add\n        /* \"#utility.yul\":1520:1599   */\n      tag_288\n      jump\t// in\n        /* \"#utility.yul\":1610:2212   */\n    tag_19:\n        /* \"#utility.yul\":1705:1711   */\n      0x00\n        /* \"#utility.yul\":1713:1719   */\n      0x00\n        /* \"#utility.yul\":1721:1727   */\n      0x00\n        /* \"#utility.yul\":1774:1776   */\n      0x60\n        /* \"#utility.yul\":1762:1771   */\n      dup5\n        /* \"#utility.yul\":1753:1760   */\n      dup7\n        /* \"#utility.yul\":1749:1772   */\n      sub\n        /* \"#utility.yul\":1745:1777   */\n      slt\n        /* \"#utility.yul\":1742:1794   */\n      iszero\n      tag_312\n      jumpi\n        /* \"#utility.yul\":1790:1791   */\n      0x00\n        /* \"#utility.yul\":1787:1788   */\n      0x00\n        /* \"#utility.yul\":1780:1792   */\n      revert\n        /* \"#utility.yul\":1742:1794   */\n    tag_312:\n        /* \"#utility.yul\":1826:1835   */\n      dup4\n        /* \"#utility.yul\":1813:1836   */\n      calldataload\n        /* \"#utility.yul\":1803:1836   */\n      swap3\n      pop\n        /* \"#utility.yul\":1887:1889   */\n      0x20\n        /* \"#utility.yul\":1876:1885   */\n      dup5\n        /* \"#utility.yul\":1872:1890   */\n      add\n        /* \"#utility.yul\":1859:1891   */\n      calldataload\n      sub(shl(0x40, 0x01), 0x01)\n        /* \"#utility.yul\":1906:1912   */\n      dup2\n        /* \"#utility.yul\":1903:1933   */\n      gt\n        /* \"#utility.yul\":1900:1950   */\n      iszero\n      tag_313\n      jumpi\n        /* \"#utility.yul\":1946:1947   */\n      0x00\n        /* \"#utility.yul\":1943:1944   */\n      0x00\n        /* \"#utility.yul\":1936:1948   */\n      revert\n        /* \"#utility.yul\":1900:1950   */\n    tag_313:\n        /* \"#utility.yul\":1969:2018   */\n      tag_314\n        /* \"#utility.yul\":2010:2017   */\n      dup7\n        /* \"#utility.yul\":2001:2007   */\n      dup3\n        /* \"#utility.yul\":1990:1999   */\n      dup8\n        /* \"#utility.yul\":1986:2008   */\n      add\n        /* \"#utility.yul\":1969:2018   */\n      tag_289\n      jump\t// in\n    tag_314:\n        /* \"#utility.yul\":1959:2018   */\n      swap3\n      pop\n      pop\n        /* \"#utility.yul\":2071:2073   */\n      0x40\n        /* \"#utility.yul\":2060:2069   */\n      dup5\n        /* \"#utility.yul\":2056:2074   */\n      add\n        /* \"#utility.yul\":2043:2075   */\n      calldataload\n      sub(shl(0x40, 0x01), 0x01)\n        /* \"#utility.yul\":2090:2098   */\n      dup2\n        /* \"#utility.yul\":2087:2119   */\n      gt\n        /* \"#utility.yul\":2084:2136   */\n      iszero\n      tag_315\n      jumpi\n        /* \"#utility.yul\":2132:2133   */\n      0x00\n        /* \"#utility.yul\":2129:2130   */\n      0x00\n        /* \"#utility.yul\":2122:2134   */\n      revert\n        /* \"#utility.yul\":2084:2136   */\n    tag_315:\n        /* \"#utility.yul\":2155:2206   */\n      tag_316\n        /* \"#utility.yul\":2198:2205   */\n      dup7\n        /* \"#utility.yul\":2187:2195   */\n      dup3\n        /* \"#utility.yul\":2176:2185   */\n      dup8\n        /* \"#utility.yul\":2172:2196   */\n      add\n        /* \"#utility.yul\":2155:2206   */\n      tag_289\n      jump\t// in\n    tag_316:\n        /* \"#utility.yul\":2145:2206   */\n      swap2\n      pop\n      pop\n        /* \"#utility.yul\":1610:2212   */\n      swap3\n      pop\n      swap3\n      pop\n      swap3\n      jump\t// out\n        /* \"#utility.yul\":2622:3248   */\n    tag_43:\n        /* \"#utility.yul\":2699:2705   */\n      0x00\n        /* \"#utility.yul\":2707:2713   */\n      0x00\n        /* \"#utility.yul\":2760:2762   */\n      0x40\n        /* \"#utility.yul\":2748:2757   */\n      dup4\n        /* \"#utility.yul\":2739:2746   */\n      dup6\n        /* \"#utility.yul\":2735:2758   */\n      sub\n        /* \"#utility.yul\":2731:2763   */\n      slt\n        /* \"#utility.yul\":2728:2780   */\n      iszero\n      tag_321\n      jumpi\n        /* \"#utility.yul\":2776:2777   */\n      0x00\n        /* \"#utility.yul\":2773:2774   */\n      0x00\n        /* \"#utility.yul\":2766:2778   */\n      revert\n        /* \"#utility.yul\":2728:2780   */\n    tag_321:\n        /* \"#utility.yul\":2816:2825   */\n      dup3\n        /* \"#utility.yul\":2803:2826   */\n      calldataload\n      sub(shl(0x40, 0x01), 0x01)\n        /* \"#utility.yul\":2841:2847   */\n      dup2\n        /* \"#utility.yul\":2838:2868   */\n      gt\n        /* \"#utility.yul\":2835:2885   */\n      iszero\n      tag_322\n      jumpi\n        /* \"#utility.yul\":2881:2882   */\n      0x00\n        /* \"#utility.yul\":2878:2879   */\n      0x00\n        /* \"#utility.yul\":2871:2883   */\n      revert\n        /* \"#utility.yul\":2835:2885   */\n    tag_322:\n        /* \"#utility.yul\":2904:2926   */\n      dup4\n      add\n        /* \"#utility.yul\":2957:2961   */\n      0x1f\n        /* \"#utility.yul\":2949:2962   */\n      dup2\n      add\n        /* \"#utility.yul\":2945:2972   */\n      dup6\n      sgt\n        /* \"#utility.yul\":2935:2990   */\n      tag_323\n      jumpi\n        /* \"#utility.yul\":2986:2987   */\n      0x00\n        /* \"#utility.yul\":2983:2984   */\n      0x00\n        /* \"#utility.yul\":2976:2988   */\n      revert\n        /* \"#utility.yul\":2935:2990   */\n    tag_323:\n        /* \"#utility.yul\":3009:3084   */\n      tag_324\n        /* \"#utility.yul\":3076:3083   */\n      dup6\n        /* \"#utility.yul\":3071:3073   */\n      dup3\n        /* \"#utility.yul\":3058:3074   */\n      calldataload\n        /* \"#utility.yul\":3051:3055   */\n      0x20\n        /* \"#utility.yul\":3047:3049   */\n      dup5\n        /* \"#utility.yul\":3043:3056   */\n      add\n        /* \"#utility.yul\":3009:3084   */\n      tag_288\n      jump\t// in\n    tag_324:\n        /* \"#utility.yul\":2999:3084   */\n      swap3\n      pop\n      pop\n        /* \"#utility.yul\":3134:3138   */\n      0x20\n        /* \"#utility.yul\":3123:3132   */\n      dup4\n        /* \"#utility.yul\":3119:3139   */\n      add\n        /* \"#utility.yul\":3106:3140   */\n      calldataload\n      sub(shl(0x40, 0x01), 0x01)\n        /* \"#utility.yul\":3173:3178   */\n      dup2\n        /* \"#utility.yul\":3169:3199   */\n      and\n        /* \"#utility.yul\":3162:3167   */\n      dup2\n        /* \"#utility.yul\":3159:3200   */\n      eq\n        /* \"#utility.yul\":3149:3218   */\n      tag_325\n      jumpi\n        /* \"#utility.yul\":3214:3215   */\n      0x00\n        /* \"#utility.yul\":3211:3212   */\n      0x00\n        /* \"#utility.yul\":3204:3216   */\n      revert\n        /* \"#utility.yul\":3149:3218   */\n    tag_325:\n        /* \"#utility.yul\":3237:3242   */\n      dup1\n        /* \"#utility.yul\":3227:3242   */\n      swap2\n      pop\n      pop\n        /* \"#utility.yul\":2622:3248   */\n      swap3\n      pop\n      swap3\n      swap1\n      pop\n      jump\t// out\n        /* \"#utility.yul\":3253:3633   */\n    tag_47:\n        /* \"#utility.yul\":3332:3333   */\n      0x01\n        /* \"#utility.yul\":3328:3340   */\n      dup2\n      dup2\n      shr\n      swap1\n        /* \"#utility.yul\":3375:3387   */\n      dup3\n      and\n      dup1\n        /* \"#utility.yul\":3396:3457   */\n      tag_327\n      jumpi\n        /* \"#utility.yul\":3450:3454   */\n      0x7f\n        /* \"#utility.yul\":3442:3448   */\n      dup3\n        /* \"#utility.yul\":3438:3455   */\n      and\n        /* \"#utility.yul\":3428:3455   */\n      swap2\n      pop\n        /* \"#utility.yul\":3396:3457   */\n    tag_327:\n        /* \"#utility.yul\":3503:3505   */\n      0x20\n        /* \"#utility.yul\":3495:3501   */\n      dup3\n        /* \"#utility.yul\":3492:3506   */\n      lt\n        /* \"#utility.yul\":3472:3490   */\n      dup2\n        /* \"#utility.yul\":3469:3507   */\n      sub\n        /* \"#utility.yul\":3466:3627   */\n      tag_328\n      jumpi\n        /* \"#utility.yul\":3549:3559   */\n      0x4e487b71\n        /* \"#utility.yul\":3544:3547   */\n      0xe0\n        /* \"#utility.yul\":3540:3560   */\n      shl\n        /* \"#utility.yul\":3537:3538   */\n      0x00\n        /* \"#utility.yul\":3530:3561   */\n      mstore\n        /* \"#utility.yul\":3584:3588   */\n      0x22\n        /* \"#utility.yul\":3581:3582   */\n      0x04\n        /* \"#utility.yul\":3574:3589   */\n      mstore\n        /* \"#utility.yul\":3612:3616   */\n      0x24\n        /* \"#utility.yul\":3609:3610   */\n      0x00\n        /* \"#utility.yul\":3602:3617   */\n      revert\n        /* \"#utility.yul\":3466:3627   */\n    tag_328:\n      pop\n        /* \"#utility.yul\":3253:3633   */\n      swap2\n      swap1\n      pop\n      jump\t// out\n        /* \"#utility.yul\":3638:3765   */\n    tag_88:\n        /* \"#utility.yul\":3699:3709   */\n      0x4e487b71\n        /* \"#utility.yul\":3694:3697   */\n      0xe0\n        /* \"#utility.yul\":3690:3710   */\n      shl\n        /* \"#utility.yul\":3687:3688   */\n      0x00\n        /* \"#utility.yul\":3680:3711   */\n      mstore\n        /* \"#utility.yul\":3730:3734   */\n      0x32\n        /* \"#utility.yul\":3727:3728   */\n      0x04\n        /* \"#utility.yul\":3720:3735   */\n      mstore\n        /* \"#utility.yul\":3754:3758   */\n      0x24\n        /* \"#utility.yul\":3751:3752   */\n      0x00\n        /* \"#utility.yul\":3744:3759   */\n      revert\n        /* \"#utility.yul\":3896:4414   */\n    tag_291:\n        /* \"#utility.yul\":3998:4000   */\n      0x1f\n        /* \"#utility.yul\":3993:3996   */\n      dup3\n        /* \"#utility.yul\":3990:4001   */\n      gt\n        /* \"#utility.yul\":3987:4408   */\n      iszero\n      tag_189\n      jumpi\n        /* \"#utility.yul\":4034:4039   */\n      dup1\n        /* \"#utility.yul\":4031:4032   */\n      0x00\n        /* \"#utility.yul\":4024:4040   */\n      mstore\n        /* \"#utility.yul\":4078:4082   */\n      0x20\n        /* \"#utility.yul\":4075:4076   */\n      0x00\n        /* \"#utility.yul\":4065:4083   */\n      keccak256\n        /* \"#utility.yul\":4148:4150   */\n      0x1f\n        /* \"#utility.yul\":4136:4146   */\n      dup5\n        /* \"#utility.yul\":4132:4151   */\n      add\n        /* \"#utility.yul\":4129:4130   */\n      0x05\n        /* \"#utility.yul\":4125:4152   */\n      shr\n        /* \"#utility.yul\":4119:4123   */\n      dup2\n        /* \"#utility.yul\":4115:4153   */\n      add\n        /* \"#utility.yul\":4184:4188   */\n      0x20\n        /* \"#utility.yul\":4172:4182   */\n      dup6\n        /* \"#utility.yul\":4169:4189   */\n      lt\n        /* \"#utility.yul\":4166:4213   */\n      iszero\n      tag_333\n      jumpi\n      pop\n        /* \"#utility.yul\":4207:4211   */\n      dup1\n        /* \"#utility.yul\":4166:4213   */\n    tag_333:\n        /* \"#utility.yul\":4262:4264   */\n      0x1f\n        /* \"#utility.yul\":4257:4260   */\n      dup5\n        /* \"#utility.yul\":4253:4265   */\n      add\n        /* \"#utility.yul\":4250:4251   */\n      0x05\n        /* \"#utility.yul\":4246:4266   */\n      shr\n        /* \"#utility.yul\":4240:4244   */\n      dup3\n        /* \"#utility.yul\":4236:4267   */\n      add\n        /* \"#utility.yul\":4226:4267   */\n      swap2\n      pop\n        /* \"#utility.yul\":4317:4398   */\n    tag_334:\n        /* \"#utility.yul\":4335:4337   */\n      dup2\n        /* \"#utility.yul\":4328:4333   */\n      dup2\n        /* \"#utility.yul\":4325:4338   */\n      lt\n        /* \"#utility.yul\":4317:4398   */\n      iszero\n      tag_336\n      jumpi\n        /* \"#utility.yul\":4394:4395   */\n      0x00\n        /* \"#utility.yul\":4380:4396   */\n      dup2\n      sstore\n        /* \"#utility.yul\":4361:4362   */\n      0x01\n        /* \"#utility.yul\":4350:4363   */\n      add\n        /* \"#utility.yul\":4317:4398   */\n      jump(tag_334)\n    tag_336:\n        /* \"#utility.yul\":4321:4324   */\n      pop\n      pop\n        /* \"#utility.yul\":3896:4414   */\n      pop\n      pop\n      pop\n      jump\t// out\n        /* \"#utility.yul\":4590:5889   */\n    tag_96:\n        /* \"#utility.yul\":4716:4719   */\n      dup2\n        /* \"#utility.yul\":4710:4720   */\n      mload\n      sub(shl(0x40, 0x01), 0x01)\n        /* \"#utility.yul\":4735:4741   */\n      dup2\n        /* \"#utility.yul\":4732:4762   */\n      gt\n        /* \"#utility.yul\":4729:4785   */\n      iszero\n      tag_340\n      jumpi\n        /* \"#utility.yul\":4765:4783   */\n      tag_340\n      tag_83\n      jump\t// in\n    tag_340:\n        /* \"#utility.yul\":4794:4891   */\n      tag_341\n        /* \"#utility.yul\":4884:4890   */\n      dup2\n        /* \"#utility.yul\":4844:4882   */\n      tag_342\n        /* \"#utility.yul\":4876:4880   */\n      dup5\n        /* \"#utility.yul\":4870:4881   */\n      sload\n        /* \"#utility.yul\":4844:4882   */\n      tag_47\n      jump\t// in\n    tag_342:\n        /* \"#utility.yul\":4838:4842   */\n      dup5\n        /* \"#utility.yul\":4794:4891   */\n      tag_291\n      jump\t// in\n    tag_341:\n        /* \"#utility.yul\":4940:4944   */\n      0x20\n        /* \"#utility.yul\":4971:4973   */\n      0x1f\n        /* \"#utility.yul\":4960:4974   */\n      dup3\n      gt\n        /* \"#utility.yul\":4988:4989   */\n      0x01\n        /* \"#utility.yul\":4983:5632   */\n      dup2\n      eq\n      tag_344\n      jumpi\n        /* \"#utility.yul\":5676:5677   */\n      0x00\n        /* \"#utility.yul\":5693:5699   */\n      dup4\n        /* \"#utility.yul\":5690:5779   */\n      iszero\n      tag_345\n      jumpi\n      pop\n        /* \"#utility.yul\":5745:5764   */\n      dup5\n      dup3\n      add\n        /* \"#utility.yul\":5739:5765   */\n      mload\n        /* \"#utility.yul\":5690:5779   */\n    tag_345:\n        /* \"#utility.yul\":4571:4572   */\n      0x01\n        /* \"#utility.yul\":4567:4578   */\n      dup5\n      swap1\n      shl\n      not(0x00)\n        /* \"#utility.yul\":4547:4548   */\n      0x03\n        /* \"#utility.yul\":4543:4554   */\n      dup7\n      swap1\n      shl\n        /* \"#utility.yul\":4539:4563   */\n      shr\n        /* \"#utility.yul\":4535:4564   */\n      not\n        /* \"#utility.yul\":4525:4565   */\n      dup3\n      and\n        /* \"#utility.yul\":4522:4579   */\n      or\n        /* \"#utility.yul\":5805:5872   */\n    tag_346:\n        /* \"#utility.yul\":5799:5803   */\n      dup6\n        /* \"#utility.yul\":5792:5873   */\n      sstore\n      pop\n        /* \"#utility.yul\":4953:5883   */\n      jump(tag_336)\n        /* \"#utility.yul\":4983:5632   */\n    tag_344:\n        /* \"#utility.yul\":3843:3844   */\n      0x00\n        /* \"#utility.yul\":3836:3850   */\n      dup5\n      dup2\n      mstore\n        /* \"#utility.yul\":3880:3884   */\n      0x20\n        /* \"#utility.yul\":3867:3885   */\n      dup2\n      keccak256\n      not(0x1f)\n        /* \"#utility.yul\":5019:5039   */\n      dup6\n      and\n      swap2\n        /* \"#utility.yul\":5137:5359   */\n    tag_348:\n        /* \"#utility.yul\":5151:5158   */\n      dup3\n        /* \"#utility.yul\":5148:5149   */\n      dup2\n        /* \"#utility.yul\":5145:5159   */\n      lt\n        /* \"#utility.yul\":5137:5359   */\n      iszero\n      tag_350\n      jumpi\n        /* \"#utility.yul\":5233:5252   */\n      dup8\n      dup6\n      add\n        /* \"#utility.yul\":5227:5253   */\n      mload\n        /* \"#utility.yul\":5212:5254   */\n      dup3\n      sstore\n        /* \"#utility.yul\":5340:5344   */\n      0x20\n        /* \"#utility.yul\":5325:5345   */\n      swap5\n      dup6\n      add\n      swap5\n        /* \"#utility.yul\":5293:5294   */\n      0x01\n        /* \"#utility.yul\":5281:5295   */\n      swap1\n      swap3\n      add\n      swap2\n        /* \"#utility.yul\":5167:5179   */\n      add\n        /* \"#utility.yul\":5137:5359   */\n      jump(tag_348)\n    tag_350:\n        /* \"#utility.yul\":5141:5144   */\n      pop\n        /* \"#utility.yul\":5387:5393   */\n      dup5\n        /* \"#utility.yul\":5378:5385   */\n      dup3\n        /* \"#utility.yul\":5375:5394   */\n      lt\n        /* \"#utility.yul\":5372:5573   */\n      iszero\n      tag_351\n      jumpi\n        /* \"#utility.yul\":5448:5467   */\n      dup7\n      dup5\n      add\n        /* \"#utility.yul\":5442:5468   */\n      mload\n      not(0x00)\n        /* \"#utility.yul\":5531:5532   */\n      0x03\n        /* \"#utility.yul\":5527:5541   */\n      dup8\n      swap1\n      shl\n        /* \"#utility.yul\":5543:5546   */\n      0xf8\n        /* \"#utility.yul\":5523:5547   */\n      and\n        /* \"#utility.yul\":5519:5556   */\n      shr\n        /* \"#utility.yul\":5515:5557   */\n      not\n        /* \"#utility.yul\":5500:5558   */\n      and\n        /* \"#utility.yul\":5485:5559   */\n      dup2\n      sstore\n        /* \"#utility.yul\":5372:5573   */\n    tag_351:\n      pop\n      pop\n      pop\n      pop\n        /* \"#utility.yul\":5619:5620   */\n      0x01\n        /* \"#utility.yul\":5603:5617   */\n      swap1\n      dup2\n      shl\n        /* \"#utility.yul\":5599:5621   */\n      add\n        /* \"#utility.yul\":5586:5622   */\n      swap1\n      sstore\n      pop\n        /* \"#utility.yul\":4590:5889   */\n      jump\t// out\n        /* \"#utility.yul\":7196:8593   */\n    tag_105:\n        /* \"#utility.yul\":7315:7318   */\n      dup2\n        /* \"#utility.yul\":7309:7313   */\n      dup2\n        /* \"#utility.yul\":7306:7319   */\n      sub\n        /* \"#utility.yul\":7303:7329   */\n      tag_367\n      jumpi\n        /* \"#utility.yul\":7322:7327   */\n      pop\n      pop\n        /* \"#utility.yul\":7196:8593   */\n      jump\t// out\n        /* \"#utility.yul\":7303:7329   */\n    tag_367:\n        /* \"#utility.yul\":7352:7389   */\n      tag_368\n        /* \"#utility.yul\":7384:7387   */\n      dup3\n        /* \"#utility.yul\":7378:7388   */\n      sload\n        /* \"#utility.yul\":7352:7389   */\n      tag_47\n      jump\t// in\n    tag_368:\n      sub(shl(0x40, 0x01), 0x01)\n        /* \"#utility.yul\":7404:7410   */\n      dup2\n        /* \"#utility.yul\":7401:7431   */\n      gt\n        /* \"#utility.yul\":7398:7454   */\n      iszero\n      tag_370\n      jumpi\n        /* \"#utility.yul\":7434:7452   */\n      tag_370\n      tag_83\n      jump\t// in\n    tag_370:\n        /* \"#utility.yul\":7463:7560   */\n      tag_371\n        /* \"#utility.yul\":7553:7559   */\n      dup2\n        /* \"#utility.yul\":7513:7551   */\n      tag_342\n        /* \"#utility.yul\":7545:7549   */\n      dup5\n        /* \"#utility.yul\":7539:7550   */\n      sload\n        /* \"#utility.yul\":7513:7551   */\n      tag_47\n      jump\t// in\n        /* \"#utility.yul\":7463:7560   */\n    tag_371:\n        /* \"#utility.yul\":7586:7587   */\n      0x00\n        /* \"#utility.yul\":7614:7616   */\n      0x1f\n        /* \"#utility.yul\":7606:7612   */\n      dup3\n        /* \"#utility.yul\":7603:7617   */\n      gt\n        /* \"#utility.yul\":7631:7632   */\n      0x01\n        /* \"#utility.yul\":7626:8336   */\n      dup2\n      eq\n      tag_374\n      jumpi\n        /* \"#utility.yul\":8380:8381   */\n      0x00\n        /* \"#utility.yul\":8397:8403   */\n      dup4\n        /* \"#utility.yul\":8394:8483   */\n      iszero\n      tag_345\n      jumpi\n      pop\n        /* \"#utility.yul\":8449:8468   */\n      dup2\n      dup6\n      add\n        /* \"#utility.yul\":8443:8469   */\n      sload\n        /* \"#utility.yul\":4571:4572   */\n      0x01\n        /* \"#utility.yul\":4567:4578   */\n      dup5\n      swap1\n      shl\n      not(0x00)\n        /* \"#utility.yul\":4547:4548   */\n      0x03\n        /* \"#utility.yul\":4543:4554   */\n      dup7\n      swap1\n      shl\n        /* \"#utility.yul\":4539:4563   */\n      shr\n        /* \"#utility.yul\":4535:4564   */\n      not\n        /* \"#utility.yul\":4525:4565   */\n      dup3\n      and\n        /* \"#utility.yul\":4522:4579   */\n      or\n        /* \"#utility.yul\":8509:8576   */\n      tag_346\n        /* \"#utility.yul\":4419:4585   */\n      jump\n        /* \"#utility.yul\":7626:8336   */\n    tag_374:\n        /* \"#utility.yul\":3843:3844   */\n      0x00\n        /* \"#utility.yul\":3836:3850   */\n      dup6\n      dup2\n      mstore\n        /* \"#utility.yul\":3880:3884   */\n      0x20\n        /* \"#utility.yul\":3867:3885   */\n      dup1\n      dup3\n      keccak256\n        /* \"#utility.yul\":3836:3850   */\n      dup7\n      dup4\n      mstore\n        /* \"#utility.yul\":3867:3885   */\n      swap1\n      dup3\n      keccak256\n      not(0x1f)\n        /* \"#utility.yul\":7662:7682   */\n      dup7\n      and\n      swap3\n        /* \"#utility.yul\":7840:8061   */\n    tag_379:\n        /* \"#utility.yul\":7854:7861   */\n      dup4\n        /* \"#utility.yul\":7851:7852   */\n      dup2\n        /* \"#utility.yul\":7848:7862   */\n      lt\n        /* \"#utility.yul\":7840:8061   */\n      iszero\n      tag_381\n      jumpi\n        /* \"#utility.yul\":7936:7957   */\n      dup3\n      dup7\n      add\n        /* \"#utility.yul\":7930:7958   */\n      sload\n        /* \"#utility.yul\":7915:7959   */\n      dup3\n      sstore\n        /* \"#utility.yul\":7998:7999   */\n      0x01\n        /* \"#utility.yul\":8030:8047   */\n      swap6\n      dup7\n      add\n      swap6\n        /* \"#utility.yul\":7986:8000   */\n      swap1\n      swap2\n      add\n      swap1\n        /* \"#utility.yul\":7877:7881   */\n      0x20\n        /* \"#utility.yul\":7870:7882   */\n      add\n        /* \"#utility.yul\":7840:8061   */\n      jump(tag_379)\n    tag_381:\n        /* \"#utility.yul\":7844:7847   */\n      pop\n        /* \"#utility.yul\":8089:8095   */\n      dup6\n        /* \"#utility.yul\":8080:8087   */\n      dup4\n        /* \"#utility.yul\":8077:8096   */\n      lt\n        /* \"#utility.yul\":8074:8277   */\n      iszero\n      tag_382\n      jumpi\n        /* \"#utility.yul\":8150:8171   */\n      dup2\n      dup6\n      add\n        /* \"#utility.yul\":8144:8172   */\n      sload\n      not(0x00)\n        /* \"#utility.yul\":8235:8236   */\n      0x03\n        /* \"#utility.yul\":8231:8245   */\n      dup9\n      swap1\n      shl\n        /* \"#utility.yul\":8247:8250   */\n      0xf8\n        /* \"#utility.yul\":8227:8251   */\n      and\n        /* \"#utility.yul\":8223:8260   */\n      shr\n        /* \"#utility.yul\":8219:8261   */\n      not\n        /* \"#utility.yul\":8204:8262   */\n      and\n        /* \"#utility.yul\":8189:8263   */\n      dup2\n      sstore\n        /* \"#utility.yul\":8074:8277   */\n    tag_382:\n      pop\n      pop\n      pop\n      pop\n      pop\n        /* \"#utility.yul\":8323:8324   */\n      0x01\n        /* \"#utility.yul\":8307:8321   */\n      swap1\n      dup2\n      shl\n        /* \"#utility.yul\":8303:8325   */\n      add\n        /* \"#utility.yul\":8290:8326   */\n      swap1\n      sstore\n      pop\n        /* \"#utility.yul\":7196:8593   */\n      jump\t// out\n        /* \"#utility.yul\":8598:9337   */\n    tag_293:\n        /* \"#utility.yul\":8648:8651   */\n      0x00\n        /* \"#utility.yul\":8689:8694   */\n      dup2\n        /* \"#utility.yul\":8683:8695   */\n      sload\n        /* \"#utility.yul\":8718:8754   */\n      tag_384\n        /* \"#utility.yul\":8744:8753   */\n      dup2\n        /* \"#utility.yul\":8718:8754   */\n      tag_47\n      jump\t// in\n    tag_384:\n        /* \"#utility.yul\":8763:8782   */\n      dup1\n      dup6\n      mstore\n        /* \"#utility.yul\":8813:8814   */\n      0x01\n        /* \"#utility.yul\":8798:8815   */\n      dup3\n      and\n        /* \"#utility.yul\":8824:8974   */\n      dup1\n      iszero\n      tag_386\n      jumpi\n        /* \"#utility.yul\":8988:8989   */\n      0x01\n        /* \"#utility.yul\":8983:9331   */\n      dup2\n      eq\n      tag_387\n      jumpi\n        /* \"#utility.yul\":8791:9331   */\n      jump(tag_385)\n        /* \"#utility.yul\":8824:8974   */\n    tag_386:\n        /* \"#utility.yul\":8887:8890   */\n      0xff\n        /* \"#utility.yul\":8883:8891   */\n      not\n        /* \"#utility.yul\":8872:8881   */\n      dup4\n        /* \"#utility.yul\":8868:8892   */\n      and\n        /* \"#utility.yul\":8861:8865   */\n      0x20\n        /* \"#utility.yul\":8856:8859   */\n      dup8\n        /* \"#utility.yul\":8852:8866   */\n      add\n        /* \"#utility.yul\":8845:8893   */\n      mstore\n        /* \"#utility.yul\":8959:8963   */\n      0x20\n        /* \"#utility.yul\":8947:8953   */\n      dup3\n        /* \"#utility.yul\":8940:8954   */\n      iszero\n        /* \"#utility.yul\":8933:8955   */\n      iszero\n        /* \"#utility.yul\":8930:8931   */\n      0x05\n        /* \"#utility.yul\":8926:8956   */\n      shl\n        /* \"#utility.yul\":8921:8924   */\n      dup8\n        /* \"#utility.yul\":8917:8957   */\n      add\n        /* \"#utility.yul\":8913:8964   */\n      add\n        /* \"#utility.yul\":8906:8964   */\n      swap4\n      pop\n        /* \"#utility.yul\":8824:8974   */\n      jump(tag_385)\n        /* \"#utility.yul\":8983:9331   */\n    tag_387:\n        /* \"#utility.yul\":9014:9019   */\n      dup5\n        /* \"#utility.yul\":9011:9012   */\n      0x00\n        /* \"#utility.yul\":9004:9020   */\n      mstore\n        /* \"#utility.yul\":9061:9065   */\n      0x20\n        /* \"#utility.yul\":9058:9059   */\n      0x00\n        /* \"#utility.yul\":9048:9066   */\n      keccak256\n        /* \"#utility.yul\":9088:9089   */\n      0x00\n        /* \"#utility.yul\":9102:9279   */\n    tag_388:\n        /* \"#utility.yul\":9116:9122   */\n      dup4\n        /* \"#utility.yul\":9113:9114   */\n      dup2\n        /* \"#utility.yul\":9110:9123   */\n      lt\n        /* \"#utility.yul\":9102:9279   */\n      iszero\n      tag_390\n      jumpi\n        /* \"#utility.yul\":9213:9220   */\n      dup2\n        /* \"#utility.yul\":9207:9221   */\n      sload\n        /* \"#utility.yul\":9200:9204   */\n      0x20\n        /* \"#utility.yul\":9196:9197   */\n      dup3\n        /* \"#utility.yul\":9191:9194   */\n      dup11\n        /* \"#utility.yul\":9187:9198   */\n      add\n        /* \"#utility.yul\":9183:9205   */\n      add\n        /* \"#utility.yul\":9176:9222   */\n      mstore\n        /* \"#utility.yul\":9263:9264   */\n      0x01\n        /* \"#utility.yul\":9254:9261   */\n      dup3\n        /* \"#utility.yul\":9250:9265   */\n      add\n        /* \"#utility.yul\":9239:9265   */\n      swap2\n      pop\n        /* \"#utility.yul\":9138:9142   */\n      0x20\n        /* \"#utility.yul\":9135:9136   */\n      dup2\n        /* \"#utility.yul\":9131:9143   */\n      add\n        /* \"#utility.yul\":9126:9143   */\n      swap1\n      pop\n        /* \"#utility.yul\":9102:9279   */\n      jump(tag_388)\n    tag_390:\n        /* \"#utility.yul\":9303:9314   */\n      dup8\n      add\n        /* \"#utility.yul\":9316:9320   */\n      0x20\n        /* \"#utility.yul\":9299:9321   */\n      add\n      swap5\n      pop\n      pop\n        /* \"#utility.yul\":8791:9331   */\n    tag_385:\n      pop\n      pop\n      pop\n        /* \"#utility.yul\":8598:9337   */\n      swap3\n      swap2\n      pop\n      pop\n      jump\t// out\n        /* \"#utility.yul\":9342:9899   */\n    tag_107:\n        /* \"#utility.yul\":9574:9576   */\n      0x60\n        /* \"#utility.yul\":9563:9572   */\n      dup2\n        /* \"#utility.yul\":9556:9577   */\n      mstore\n        /* \"#utility.yul\":9537:9541   */\n      0x00\n        /* \"#utility.yul\":9600:9653   */\n      tag_392\n        /* \"#utility.yul\":9649:9651   */\n      0x60\n        /* \"#utility.yul\":9638:9647   */\n      dup4\n        /* \"#utility.yul\":9634:9652   */\n      add\n        /* \"#utility.yul\":9626:9632   */\n      dup7\n        /* \"#utility.yul\":9600:9653   */\n      tag_293\n      jump\t// in\n    tag_392:\n        /* \"#utility.yul\":9701:9710   */\n      dup3\n        /* \"#utility.yul\":9693:9699   */\n      dup2\n        /* \"#utility.yul\":9689:9711   */\n      sub\n        /* \"#utility.yul\":9684:9686   */\n      0x20\n        /* \"#utility.yul\":9673:9682   */\n      dup5\n        /* \"#utility.yul\":9669:9687   */\n      add\n        /* \"#utility.yul\":9662:9712   */\n      mstore\n        /* \"#utility.yul\":9735:9776   */\n      tag_393\n        /* \"#utility.yul\":9769:9775   */\n      dup2\n        /* \"#utility.yul\":9761:9767   */\n      dup7\n        /* \"#utility.yul\":9735:9776   */\n      tag_293\n      jump\t// in\n    tag_393:\n        /* \"#utility.yul\":9721:9776   */\n      swap1\n      pop\n        /* \"#utility.yul\":9824:9833   */\n      dup3\n        /* \"#utility.yul\":9816:9822   */\n      dup2\n        /* \"#utility.yul\":9812:9834   */\n      sub\n        /* \"#utility.yul\":9807:9809   */\n      0x40\n        /* \"#utility.yul\":9796:9805   */\n      dup5\n        /* \"#utility.yul\":9792:9810   */\n      add\n        /* \"#utility.yul\":9785:9835   */\n      mstore\n        /* \"#utility.yul\":9852:9893   */\n      tag_394\n        /* \"#utility.yul\":9886:9892   */\n      dup2\n        /* \"#utility.yul\":9878:9884   */\n      dup6\n        /* \"#utility.yul\":9852:9893   */\n      tag_293\n      jump\t// in\n    tag_394:\n        /* \"#utility.yul\":9844:9893   */\n      swap7\n        /* \"#utility.yul\":9342:9899   */\n      swap6\n      pop\n      pop\n      pop\n      pop\n      pop\n      pop\n      jump\t// out\n        /* \"#utility.yul\":9904:10031   */\n    tag_121:\n        /* \"#utility.yul\":9965:9975   */\n      0x4e487b71\n        /* \"#utility.yul\":9960:9963   */\n      0xe0\n        /* \"#utility.yul\":9956:9976   */\n      shl\n        /* \"#utility.yul\":9953:9954   */\n      0x00\n        /* \"#utility.yul\":9946:9977   */\n      mstore\n        /* \"#utility.yul\":9996:10000   */\n      0x21\n        /* \"#utility.yul\":9993:9994   */\n      0x04\n        /* \"#utility.yul\":9986:10001   */\n      mstore\n        /* \"#utility.yul\":10020:10024   */\n      0x24\n        /* \"#utility.yul\":10017:10018   */\n      0x00\n        /* \"#utility.yul\":10010:10025   */\n      revert\n        /* \"#utility.yul\":10036:10590   */\n    tag_166:\n      sub(shl(0x40, 0x01), 0x01)\n        /* \"#utility.yul\":10293:10299   */\n      dup7\n        /* \"#utility.yul\":10289:10320   */\n      and\n        /* \"#utility.yul\":10278:10287   */\n      dup2\n        /* \"#utility.yul\":10271:10321   */\n      mstore\n        /* \"#utility.yul\":10357:10360   */\n      0xa0\n        /* \"#utility.yul\":10352:10354   */\n      0x20\n        /* \"#utility.yul\":10341:10350   */\n      dup3\n        /* \"#utility.yul\":10337:10355   */\n      add\n        /* \"#utility.yul\":10330:10361   */\n      mstore\n        /* \"#utility.yul\":10252:10256   */\n      0x00\n        /* \"#utility.yul\":10378:10424   */\n      tag_397\n        /* \"#utility.yul\":10419:10422   */\n      0xa0\n        /* \"#utility.yul\":10408:10417   */\n      dup4\n        /* \"#utility.yul\":10404:10423   */\n      add\n        /* \"#utility.yul\":10396:10402   */\n      dup8\n        /* \"#utility.yul\":10378:10424   */\n      tag_287\n      jump\t// in\n    tag_397:\n        /* \"#utility.yul\":10472:10478   */\n      0xffff\n        /* \"#utility.yul\":10460:10479   */\n      swap6\n      swap1\n      swap6\n      and\n        /* \"#utility.yul\":10455:10457   */\n      0x40\n        /* \"#utility.yul\":10440:10458   */\n      dup4\n      add\n        /* \"#utility.yul\":10433:10480   */\n      mstore\n      pop\n        /* \"#utility.yul\":10528:10538   */\n      0xffffffff\n        /* \"#utility.yul\":10516:10539   */\n      swap3\n      swap1\n      swap3\n      and\n        /* \"#utility.yul\":10511:10513   */\n      0x60\n        /* \"#utility.yul\":10496:10514   */\n      dup4\n      add\n        /* \"#utility.yul\":10489:10540   */\n      mstore\n        /* \"#utility.yul\":10571:10574   */\n      0x80\n        /* \"#utility.yul\":10556:10575   */\n      swap1\n      swap2\n      add\n        /* \"#utility.yul\":10549:10584   */\n      mstore\n        /* \"#utility.yul\":10370:10424   */\n      swap3\n        /* \"#utility.yul\":10036:10590   */\n      swap2\n      pop\n      pop\n      jump\t// out\n        /* \"#utility.yul\":10595:10779   */\n    tag_170:\n        /* \"#utility.yul\":10665:10671   */\n      0x00\n        /* \"#utility.yul\":10718:10720   */\n      0x20\n        /* \"#utility.yul\":10706:10715   */\n      dup3\n        /* \"#utility.yul\":10697:10704   */\n      dup5\n        /* \"#utility.yul\":10693:10716   */\n      sub\n        /* \"#utility.yul\":10689:10721   */\n      slt\n        /* \"#utility.yul\":10686:10738   */\n      iszero\n      tag_399\n      jumpi\n        /* \"#utility.yul\":10734:10735   */\n      0x00\n        /* \"#utility.yul\":10731:10732   */\n      0x00\n        /* \"#utility.yul\":10724:10736   */\n      revert\n        /* \"#utility.yul\":10686:10738   */\n    tag_399:\n      pop\n        /* \"#utility.yul\":10757:10773   */\n      mload\n      swap2\n        /* \"#utility.yul\":10595:10779   */\n      swap1\n      pop\n      jump\t// out\n        /* \"#utility.yul\":10966:11093   */\n    tag_294:\n        /* \"#utility.yul\":11027:11037   */\n      0x4e487b71\n        /* \"#utility.yul\":11022:11025   */\n      0xe0\n        /* \"#utility.yul\":11018:11038   */\n      shl\n        /* \"#utility.yul\":11015:11016   */\n      0x00\n        /* \"#utility.yul\":11008:11039   */\n      mstore\n        /* \"#utility.yul\":11058:11062   */\n      0x11\n        /* \"#utility.yul\":11055:11056   */\n      0x04\n        /* \"#utility.yul\":11048:11063   */\n      mstore\n        /* \"#utility.yul\":11082:11086   */\n      0x24\n        /* \"#utility.yul\":11079:11080   */\n      0x00\n        /* \"#utility.yul\":11072:11087   */\n      revert\n        /* \"#utility.yul\":11098:11223   */\n    tag_201:\n        /* \"#utility.yul\":11163:11172   */\n      dup1\n      dup3\n      add\n        /* \"#utility.yul\":11184:11194   */\n      dup1\n      dup3\n      gt\n        /* \"#utility.yul\":11181:11217   */\n      iszero\n      tag_76\n      jumpi\n        /* \"#utility.yul\":11197:11215   */\n      tag_76\n      tag_294\n      jump\t// in\n        /* \"#utility.yul\":11228:11356   */\n    tag_205:\n        /* \"#utility.yul\":11295:11304   */\n      dup2\n      dup2\n      sub\n        /* \"#utility.yul\":11316:11327   */\n      dup2\n      dup2\n      gt\n        /* \"#utility.yul\":11313:11350   */\n      iszero\n      tag_76\n      jumpi\n        /* \"#utility.yul\":11330:11348   */\n      tag_76\n      tag_294\n      jump\t// in\n        /* \"#utility.yul\":11361:11570   */\n    tag_213:\n        /* \"#utility.yul\":11393:11394   */\n      0x00\n        /* \"#utility.yul\":11419:11420   */\n      dup3\n        /* \"#utility.yul\":11409:11541   */\n      tag_409\n      jumpi\n        /* \"#utility.yul\":11463:11473   */\n      0x4e487b71\n        /* \"#utility.yul\":11458:11461   */\n      0xe0\n        /* \"#utility.yul\":11454:11474   */\n      shl\n        /* \"#utility.yul\":11451:11452   */\n      0x00\n        /* \"#utility.yul\":11444:11475   */\n      mstore\n        /* \"#utility.yul\":11498:11502   */\n      0x12\n        /* \"#utility.yul\":11495:11496   */\n      0x04\n        /* \"#utility.yul\":11488:11503   */\n      mstore\n        /* \"#utility.yul\":11526:11530   */\n      0x24\n        /* \"#utility.yul\":11523:11524   */\n      0x00\n        /* \"#utility.yul\":11516:11531   */\n      revert\n        /* \"#utility.yul\":11409:11541   */\n    tag_409:\n      pop\n        /* \"#utility.yul\":11555:11564   */\n      mod\n      swap1\n        /* \"#utility.yul\":11361:11570   */\n      jump\t// out\n        /* \"#utility.yul\":11575:11743   */\n    tag_248:\n        /* \"#utility.yul\":11648:11657   */\n      dup1\n      dup3\n      mul\n        /* \"#utility.yul\":11679:11688   */\n      dup2\n      iszero\n        /* \"#utility.yul\":11696:11711   */\n      dup3\n      dup3\n      div\n        /* \"#utility.yul\":11690:11712   */\n      dup5\n      eq\n        /* \"#utility.yul\":11676:11713   */\n      or\n        /* \"#utility.yul\":11666:11737   */\n      tag_76\n      jumpi\n        /* \"#utility.yul\":11717:11735   */\n      tag_76\n      tag_294\n      jump\t// in\n        /* \"#utility.yul\":11748:12123   */\n    tag_295:\n        /* \"#utility.yul\":11836:11837   */\n      0x01\n        /* \"#utility.yul\":11854:11859   */\n      dup2\n        /* \"#utility.yul\":11868:12117   */\n    tag_414:\n        /* \"#utility.yul\":11889:11890   */\n      0x01\n        /* \"#utility.yul\":11879:11887   */\n      dup5\n        /* \"#utility.yul\":11876:11891   */\n      gt\n        /* \"#utility.yul\":11868:12117   */\n      iszero\n      tag_416\n      jumpi\n        /* \"#utility.yul\":11939:11943   */\n      dup1\n        /* \"#utility.yul\":11934:11937   */\n      dup6\n        /* \"#utility.yul\":11930:11944   */\n      div\n        /* \"#utility.yul\":11924:11928   */\n      dup2\n        /* \"#utility.yul\":11921:11945   */\n      gt\n        /* \"#utility.yul\":11918:11968   */\n      iszero\n      tag_418\n      jumpi\n        /* \"#utility.yul\":11948:11966   */\n      tag_418\n      tag_294\n      jump\t// in\n    tag_418:\n        /* \"#utility.yul\":11998:11999   */\n      0x01\n        /* \"#utility.yul\":11988:11996   */\n      dup5\n        /* \"#utility.yul\":11984:12000   */\n      and\n        /* \"#utility.yul\":11981:12030   */\n      iszero\n      tag_419\n      jumpi\n        /* \"#utility.yul\":12012:12028   */\n      swap1\n      dup2\n      mul\n      swap1\n        /* \"#utility.yul\":11981:12030   */\n    tag_419:\n        /* \"#utility.yul\":12095:12096   */\n      0x01\n        /* \"#utility.yul\":12091:12107   */\n      swap4\n      swap1\n      swap4\n      shr\n      swap3\n        /* \"#utility.yul\":12051:12066   */\n      dup1\n      mul\n        /* \"#utility.yul\":11868:12117   */\n      jump(tag_414)\n    tag_416:\n        /* \"#utility.yul\":11748:12123   */\n      swap4\n      pop\n      swap4\n      swap2\n      pop\n      pop\n      jump\t// out\n        /* \"#utility.yul\":12128:13030   */\n    tag_296:\n        /* \"#utility.yul\":12177:12182   */\n      0x00\n        /* \"#utility.yul\":12207:12215   */\n      dup3\n        /* \"#utility.yul\":12197:12277   */\n      tag_421\n      jumpi\n      pop\n        /* \"#utility.yul\":12248:12249   */\n      0x01\n        /* \"#utility.yul\":12262:12267   */\n      jump(tag_76)\n        /* \"#utility.yul\":12197:12277   */\n    tag_421:\n        /* \"#utility.yul\":12296:12300   */\n      dup2\n        /* \"#utility.yul\":12286:12362   */\n      tag_422\n      jumpi\n      pop\n        /* \"#utility.yul\":12333:12334   */\n      0x00\n        /* \"#utility.yul\":12347:12352   */\n      jump(tag_76)\n        /* \"#utility.yul\":12286:12362   */\n    tag_422:\n        /* \"#utility.yul\":12378:12382   */\n      dup2\n        /* \"#utility.yul\":12396:12397   */\n      0x01\n        /* \"#utility.yul\":12391:12450   */\n      dup2\n      eq\n      tag_424\n      jumpi\n        /* \"#utility.yul\":12464:12465   */\n      0x02\n        /* \"#utility.yul\":12459:12633   */\n      dup2\n      eq\n      tag_425\n      jumpi\n        /* \"#utility.yul\":12371:12633   */\n      jump(tag_423)\n        /* \"#utility.yul\":12391:12450   */\n    tag_424:\n        /* \"#utility.yul\":12421:12422   */\n      0x01\n        /* \"#utility.yul\":12412:12422   */\n      swap2\n      pop\n        /* \"#utility.yul\":12435:12440   */\n      pop\n      jump(tag_76)\n        /* \"#utility.yul\":12459:12633   */\n    tag_425:\n        /* \"#utility.yul\":12496:12499   */\n      0xff\n        /* \"#utility.yul\":12486:12494   */\n      dup5\n        /* \"#utility.yul\":12483:12500   */\n      gt\n        /* \"#utility.yul\":12480:12523   */\n      iszero\n      tag_427\n      jumpi\n        /* \"#utility.yul\":12503:12521   */\n      tag_427\n      tag_294\n      jump\t// in\n    tag_427:\n      pop\n      pop\n        /* \"#utility.yul\":12559:12560   */\n      0x01\n        /* \"#utility.yul\":12545:12561   */\n      dup3\n      shl\n        /* \"#utility.yul\":12618:12623   */\n      jump(tag_76)\n        /* \"#utility.yul\":12371:12633   */\n    tag_423:\n      pop\n        /* \"#utility.yul\":12717:12719   */\n      0x20\n        /* \"#utility.yul\":12707:12715   */\n      dup4\n        /* \"#utility.yul\":12704:12720   */\n      lt\n        /* \"#utility.yul\":12698:12701   */\n      0x0133\n        /* \"#utility.yul\":12692:12696   */\n      dup4\n        /* \"#utility.yul\":12689:12702   */\n      lt\n        /* \"#utility.yul\":12685:12721   */\n      and\n        /* \"#utility.yul\":12679:12681   */\n      0x4e\n        /* \"#utility.yul\":12669:12677   */\n      dup5\n        /* \"#utility.yul\":12666:12682   */\n      lt\n        /* \"#utility.yul\":12661:12663   */\n      0x0b\n        /* \"#utility.yul\":12655:12659   */\n      dup5\n        /* \"#utility.yul\":12652:12664   */\n      lt\n        /* \"#utility.yul\":12648:12683   */\n      and\n        /* \"#utility.yul\":12645:12722   */\n      or\n        /* \"#utility.yul\":12642:12845   */\n      iszero\n      tag_428\n      jumpi\n      pop\n        /* \"#utility.yul\":12754:12773   */\n      dup2\n      dup2\n      exp\n        /* \"#utility.yul\":12830:12835   */\n      jump(tag_76)\n        /* \"#utility.yul\":12642:12845   */\n    tag_428:\n        /* \"#utility.yul\":12877:12919   */\n      tag_429\n      not(0x00)\n        /* \"#utility.yul\":12902:12910   */\n      dup5\n        /* \"#utility.yul\":12896:12900   */\n      dup5\n        /* \"#utility.yul\":12877:12919   */\n      tag_295\n      jump\t// in\n    tag_429:\n        /* \"#utility.yul\":12955:12961   */\n      dup1\n        /* \"#utility.yul\":12951:12952   */\n      0x00\n        /* \"#utility.yul\":12947:12953   */\n      not\n        /* \"#utility.yul\":12943:12962   */\n      div\n        /* \"#utility.yul\":12934:12941   */\n      dup3\n        /* \"#utility.yul\":12931:12963   */\n      gt\n        /* \"#utility.yul\":12928:12986   */\n      iszero\n      tag_431\n      jumpi\n        /* \"#utility.yul\":12966:12984   */\n      tag_431\n      tag_294\n      jump\t// in\n    tag_431:\n        /* \"#utility.yul\":13004:13024   */\n      mul\n      swap4\n        /* \"#utility.yul\":12128:13030   */\n      swap3\n      pop\n      pop\n      pop\n      jump\t// out\n        /* \"#utility.yul\":13035:13166   */\n    tag_260:\n        /* \"#utility.yul\":13095:13100   */\n      0x00\n        /* \"#utility.yul\":13124:13160   */\n      tag_240\n        /* \"#utility.yul\":13151:13159   */\n      dup4\n        /* \"#utility.yul\":13145:13149   */\n      dup4\n        /* \"#utility.yul\":13124:13160   */\n      tag_296\n      jump\t// in\n    stop\n    data_6ed21e9c87a8dfef6fdf85f2f7bdf69a9b42c764c66081ff64c14457b3f6fcc6 636f6e73742063697479203d20617267735b305d3b636f6e737420617069526573706f6e7365203d2061776169742046756e6374696f6e732e6d616b654874747052657175657374287b75726c3a206068747470733a2f2f777474722e696e2f247b636974797d3f666f726d61743d33266d602c726573706f6e7365547970653a202774657874277d293b69662028617069526573706f6e73652e6572726f7229207b7468726f77204572726f72282752657175657374206661696c656427293b7d636f6e7374207b2064617461207d203d20617069526573706f6e73653b72657475726e2046756e6374696f6e732e656e636f6465537472696e672864617461293b\n\n    auxdata: 0xa2646970667358221220af1a62d82e077f477662d9a800cfee5081167f534bf8095e67d91f1bd123b1bb64736f6c634300081e0033\n}\n",
				"bytecode": {
					"linkReferences": {},
					"object": "60a0604052348015600e575f5ffd5b5073b83e47c2bc239b3bf370bc41e1459a34b41238d06080526080516114a96100465f395f81816101af015261072401526114a95ff3fe608060405234801561000f575f5ffd5b5060043610610090575f3560e01c80636e0e7c3b116100635780636e0e7c3b146100d7578063b1e21749146100df578063d50cbe98146100f6578063f230b4c2146100fe578063f343f1e114610106575f5ffd5b80630845284e146100945780630ca76175146100b25780633944ea3a146100c75780634b0795a8146100cf575b5f5ffd5b61009c610119565b6040516100a99190610d2e565b60405180910390f35b6100c56100c0366004610de7565b6101a4565b005b61009c610227565b61009c610234565b61009c610241565b6100e860035481565b6040519081526020016100a9565b61009c61024e565b61009c61025b565b6100e8610114366004610e52565b61027a565b5f805461012590610ebe565b80601f016020809104026020016040519081016040528092919081815260200182805461015190610ebe565b801561019c5780601f106101735761010080835404028352916020019161019c565b820191905f5260205f20905b81548152906001019060200180831161017f57829003601f168201915b505050505081565b336001600160a01b037f000000000000000000000000000000000000000000000000000000000000000016146101ed5760405163c6829f8360e01b815260040160405180910390fd5b6101f8838383610382565b60405183907f85e1543bf2f84fe80c6badbce3648c8539ad1df4d2b3d822938ca0538be727e6905f90a2505050565b6004805461012590610ebe565b6005805461012590610ebe565b6001805461012590610ebe565b6002805461012590610ebe565b6040518061014001604052806101038152602001611371610103913981565b5f6102b96040805160e08101909152805f81526020015f81526020015f8152602001606081526020016060815260200160608152602001606081525090565b6102df604051806101400160405280610103815260200161137161010391398290610423565b6040805160018082528183019092525f91816020015b60608152602001906001900390816102f557905050905084815f8151811061031f5761031f610ef6565b60209081029190910101526103348282610433565b6103646103408361045c565b85620493e07566756e2d657468657265756d2d7365706f6c69612d3160501b610720565b60035560016103738682610f55565b50600354925050505b92915050565b82600354146103ab5760405163d068bf5b60e01b81526004810184905260240160405180910390fd5b60056103b78282610f55565b5060046103c48382610f55565b5060026103d18382610f55565b505f6103de600182611012565b50827f160ed0aaffbef6885155188b91459cb5a97d5daadccf7561d8c46deea6641b506002600460056040516104169392919061115d565b60405180910390a2505050565b61042f825f5f846107ed565b5050565b80515f036104545760405163fe936cb760e01b815260040160405180910390fd5b60a090910152565b60605f61046a61010061086a565b90506104a36040518060400160405280600c81526020016b31b7b232a637b1b0ba34b7b760a11b8152508261088a90919063ffffffff16565b82516104c19060028111156104ba576104ba61119f565b82906108a8565b6040805180820190915260088152676c616e677561676560c01b60208201526104eb90829061088a565b60408301516105029080156104ba576104ba61119f565b604080518082019091526006815265736f7572636560d01b602082015261052a90829061088a565b606083015161053a90829061088a565b60a083015151156105c5576040805180820190915260048152636172677360e01b602082015261056b90829061088a565b610574816108e1565b5f5b8360a00151518110156105bb576105b38460a00151828151811061059c5761059c610ef6565b60200260200101518361088a90919063ffffffff16565b600101610576565b506105c581610905565b60808301515115610688575f836020015160028111156105e7576105e761119f565b036106055760405163a80d31f760e01b815260040160405180910390fd5b60408051808201909152600f81526e39b2b1b932ba39a637b1b0ba34b7b760891b602082015261063690829061088a565b61064f836020015160028111156104ba576104ba61119f565b6040805180820190915260078152667365637265747360c81b602082015261067890829061088a565b6080830151610688908290610923565b60c083015151156107185760408051808201909152600981526862797465734172677360b81b60208201526106be90829061088a565b6106c7816108e1565b5f5b8360c001515181101561070e576107068460c0015182815181106106ef576106ef610ef6565b60200260200101518361092390919063ffffffff16565b6001016106c9565b5061071881610905565b515192915050565b5f5f7f00000000000000000000000000000000000000000000000000000000000000006001600160a01b031663461d27628688600188886040518663ffffffff1660e01b81526004016107779594939291906111b3565b6020604051808303815f875af1158015610793573d5f5f3e3d5ffd5b505050506040513d601f19601f820116820180604052508101906107b791906111fb565b60405190915081907f1131472297a800fee664d1d89cfa8f7676ff07189ecc53f80bbb5f4969099db8905f90a295945050505050565b80515f0361080e576040516322ce3edd60e01b815260040160405180910390fd5b838360028111156108215761082161119f565b908160028111156108345761083461119f565b9052506040840182801561084a5761084a61119f565b9081801561085a5761085a61119f565b9052506060909301929092525050565b610872610ccd565b805161087e9083610930565b505f6020820152919050565b61089782600383516109a4565b81516108a39082610ac3565b505050565b81516108b59060c2610aea565b5061042f82826040516020016108cd91815260200190565b604051602081830303815290604052610923565b6108ec816004610b51565b6001816020018181516108ff9190611226565b90525050565b610910816007610b51565b6001816020018181516108ff9190611239565b61089782600283516109a4565b60408051808201909152606081525f602082015261094f60208361124c565b156109775761095f60208361124c565b61096a906020611239565b6109749083611226565b91505b60208084018390526040518085525f8152908184010181811015610999575f5ffd5b604052509192915050565b6017816001600160401b0316116109d05782516109ca9060e0600585901b168317610aea565b50505050565b60ff816001600160401b031611610a105782516109f8906018611fe0600586901b1617610aea565b5082516109ca906001600160401b0383166001610b68565b61ffff816001600160401b031611610a51578251610a39906019611fe0600586901b1617610aea565b5082516109ca906001600160401b0383166002610b68565b63ffffffff816001600160401b031611610a94578251610a7c90601a611fe0600586901b1617610aea565b5082516109ca906001600160401b0383166004610b68565b8251610aab90601b611fe0600586901b1617610aea565b5082516109ca906001600160401b0383166008610b68565b60408051808201909152606081525f6020820152610ae383838451610bea565b9392505050565b60408051808201909152606081525f60208201528251515f610b0d826001611226565b905084602001518210610b2e57610b2e85610b2983600261126b565b610cb6565b8451602083820101858153508051821115610b47578181525b5093949350505050565b81516108a390601f611fe0600585901b1617610aea565b60408051808201909152606081525f60208201528351515f610b8a8285611226565b90508560200151811115610ba757610ba786610b2983600261126b565b5f6001610bb686610100611365565b610bc09190611239565b90508651828101878319825116178152508051831115610bde578281525b50959695505050505050565b60408051808201909152606081525f60208201528251821115610c0b575f5ffd5b8351515f610c198483611226565b90508560200151811115610c3657610c3686610b2983600261126b565b85518051838201602001915f9180851115610c4f578482525b505050602086015b60208610610c8f5780518252610c6e602083611226565b9150610c7b602082611226565b9050610c88602087611239565b9550610c57565b5181515f1960208890036101000a0190811690199190911617905250849150509392505050565b8151610cc28383610930565b506109ca8382610ac3565b6040518060400160405280610cf46040518060400160405280606081526020015f81525090565b81526020015f81525090565b5f81518084528060208401602086015e5f602082860101526020601f19601f83011685010191505092915050565b602081525f610ae36020830184610d00565b634e487b7160e01b5f52604160045260245ffd5b5f5f6001600160401b03841115610d6d57610d6d610d40565b50604051601f19601f85018116603f011681018181106001600160401b0382111715610d9b57610d9b610d40565b604052838152905080828401851015610db2575f5ffd5b838360208301375f60208583010152509392505050565b5f82601f830112610dd8575f5ffd5b610ae383833560208501610d54565b5f5f5f60608486031215610df9575f5ffd5b8335925060208401356001600160401b03811115610e15575f5ffd5b610e2186828701610dc9565b92505060408401356001600160401b03811115610e3c575f5ffd5b610e4886828701610dc9565b9150509250925092565b5f5f60408385031215610e63575f5ffd5b82356001600160401b03811115610e78575f5ffd5b8301601f81018513610e88575f5ffd5b610e9785823560208401610d54565b92505060208301356001600160401b0381168114610eb3575f5ffd5b809150509250929050565b600181811c90821680610ed257607f821691505b602082108103610ef057634e487b7160e01b5f52602260045260245ffd5b50919050565b634e487b7160e01b5f52603260045260245ffd5b601f8211156108a357805f5260205f20601f840160051c81016020851015610f2f5750805b601f840160051c820191505b81811015610f4e575f8155600101610f3b565b5050505050565b81516001600160401b03811115610f6e57610f6e610d40565b610f8281610f7c8454610ebe565b84610f0a565b6020601f821160018114610fb7575f8315610f9d5750848201515b600184901b5f19600386901b1c198216175b855550610f4e565b5f84815260208120601f198516915b82811015610fe65787850151825560209485019460019092019101610fc6565b508482101561100357868401515f19600387901b60f8161c191681555b50505050600190811b01905550565b81810361101d575050565b6110278254610ebe565b6001600160401b0381111561103e5761103e610d40565b61104c81610f7c8454610ebe565b5f601f82116001811461107b575f8315610f9d575081850154600184901b5f19600386901b1c19821617610faf565b5f8581526020808220868352908220601f198616925b838110156110b15782860154825560019586019590910190602001611091565b50858310156110ce57818501545f19600388901b60f8161c191681555b5050505050600190811b01905550565b5f81546110ea81610ebe565b808552600182168015611104576001811461112057611154565b60ff1983166020870152602082151560051b8701019350611154565b845f5260205f205f5b8381101561114b5781546020828a010152600182019150602081019050611129565b87016020019450505b50505092915050565b606081525f61116f60608301866110de565b828103602084015261118181866110de565b9050828103604084015261119581856110de565b9695505050505050565b634e487b7160e01b5f52602160045260245ffd5b6001600160401b038616815260a060208201525f6111d460a0830187610d00565b61ffff9590951660408301525063ffffffff92909216606083015260809091015292915050565b5f6020828403121561120b575f5ffd5b5051919050565b634e487b7160e01b5f52601160045260245ffd5b8082018082111561037c5761037c611212565b8181038181111561037c5761037c611212565b5f8261126657634e487b7160e01b5f52601260045260245ffd5b500690565b808202811582820484141761037c5761037c611212565b6001815b60018411156112bd578085048111156112a1576112a1611212565b60018416156112af57908102905b60019390931c928002611286565b935093915050565b5f826112d35750600161037c565b816112df57505f61037c565b81600181146112f557600281146112ff5761131b565b600191505061037c565b60ff84111561131057611310611212565b50506001821b61037c565b5060208310610133831016604e8410600b841016171561133e575081810a61037c565b61134a5f198484611282565b805f190482111561135d5761135d611212565b029392505050565b5f610ae383836112c556fe636f6e73742063697479203d20617267735b305d3b636f6e737420617069526573706f6e7365203d2061776169742046756e6374696f6e732e6d616b654874747052657175657374287b75726c3a206068747470733a2f2f777474722e696e2f247b636974797d3f666f726d61743d33266d602c726573706f6e7365547970653a202774657874277d293b69662028617069526573706f6e73652e6572726f7229207b7468726f77204572726f72282752657175657374206661696c656427293b7d636f6e7374207b2064617461207d203d20617069526573706f6e73653b72657475726e2046756e6374696f6e732e656e636f6465537472696e672864617461293ba2646970667358221220af1a62d82e077f477662d9a800cfee5081167f534bf8095e67d91f1bd123b1bb64736f6c634300081e0033",
					"opcodes": "PUSH1 0xA0 PUSH1 0x40 MSTORE CALLVALUE DUP1 ISZERO PUSH1 0xE JUMPI PUSH0 PUSH0 REVERT JUMPDEST POP PUSH20 0xB83E47C2BC239B3BF370BC41E1459A34B41238D0 PUSH1 0x80 MSTORE PUSH1 0x80 MLOAD PUSH2 0x14A9 PUSH2 0x46 PUSH0 CODECOPY PUSH0 DUP2 DUP2 PUSH2 0x1AF ADD MSTORE PUSH2 0x724 ADD MSTORE PUSH2 0x14A9 PUSH0 RETURN INVALID PUSH1 0x80 PUSH1 0x40 MSTORE CALLVALUE DUP1 ISZERO PUSH2 0xF JUMPI PUSH0 PUSH0 REVERT JUMPDEST POP PUSH1 0x4 CALLDATASIZE LT PUSH2 0x90 JUMPI PUSH0 CALLDATALOAD PUSH1 0xE0 SHR DUP1 PUSH4 0x6E0E7C3B GT PUSH2 0x63 JUMPI DUP1 PUSH4 0x6E0E7C3B EQ PUSH2 0xD7 JUMPI DUP1 PUSH4 0xB1E21749 EQ PUSH2 0xDF JUMPI DUP1 PUSH4 0xD50CBE98 EQ PUSH2 0xF6 JUMPI DUP1 PUSH4 0xF230B4C2 EQ PUSH2 0xFE JUMPI DUP1 PUSH4 0xF343F1E1 EQ PUSH2 0x106 JUMPI PUSH0 PUSH0 REVERT JUMPDEST DUP1 PUSH4 0x845284E EQ PUSH2 0x94 JUMPI DUP1 PUSH4 0xCA76175 EQ PUSH2 0xB2 JUMPI DUP1 PUSH4 0x3944EA3A EQ PUSH2 0xC7 JUMPI DUP1 PUSH4 0x4B0795A8 EQ PUSH2 0xCF JUMPI JUMPDEST PUSH0 PUSH0 REVERT JUMPDEST PUSH2 0x9C PUSH2 0x119 JUMP JUMPDEST PUSH1 0x40 MLOAD PUSH2 0xA9 SWAP2 SWAP1 PUSH2 0xD2E JUMP JUMPDEST PUSH1 0x40 MLOAD DUP1 SWAP2 SUB SWAP1 RETURN JUMPDEST PUSH2 0xC5 PUSH2 0xC0 CALLDATASIZE PUSH1 0x4 PUSH2 0xDE7 JUMP JUMPDEST PUSH2 0x1A4 JUMP JUMPDEST STOP JUMPDEST PUSH2 0x9C PUSH2 0x227 JUMP JUMPDEST PUSH2 0x9C PUSH2 0x234 JUMP JUMPDEST PUSH2 0x9C PUSH2 0x241 JUMP JUMPDEST PUSH2 0xE8 PUSH1 0x3 SLOAD DUP2 JUMP JUMPDEST PUSH1 0x40 MLOAD SWAP1 DUP2 MSTORE PUSH1 0x20 ADD PUSH2 0xA9 JUMP JUMPDEST PUSH2 0x9C PUSH2 0x24E JUMP JUMPDEST PUSH2 0x9C PUSH2 0x25B JUMP JUMPDEST PUSH2 0xE8 PUSH2 0x114 CALLDATASIZE PUSH1 0x4 PUSH2 0xE52 JUMP JUMPDEST PUSH2 0x27A JUMP JUMPDEST PUSH0 DUP1 SLOAD PUSH2 0x125 SWAP1 PUSH2 0xEBE JUMP JUMPDEST DUP1 PUSH1 0x1F ADD PUSH1 0x20 DUP1 SWAP2 DIV MUL PUSH1 0x20 ADD PUSH1 0x40 MLOAD SWAP1 DUP2 ADD PUSH1 0x40 MSTORE DUP1 SWAP3 SWAP2 SWAP1 DUP2 DUP2 MSTORE PUSH1 0x20 ADD DUP3 DUP1 SLOAD PUSH2 0x151 SWAP1 PUSH2 0xEBE JUMP JUMPDEST DUP1 ISZERO PUSH2 0x19C JUMPI DUP1 PUSH1 0x1F LT PUSH2 0x173 JUMPI PUSH2 0x100 DUP1 DUP4 SLOAD DIV MUL DUP4 MSTORE SWAP2 PUSH1 0x20 ADD SWAP2 PUSH2 0x19C JUMP JUMPDEST DUP3 ADD SWAP2 SWAP1 PUSH0 MSTORE PUSH1 0x20 PUSH0 KECCAK256 SWAP1 JUMPDEST DUP2 SLOAD DUP2 MSTORE SWAP1 PUSH1 0x1 ADD SWAP1 PUSH1 0x20 ADD DUP1 DUP4 GT PUSH2 0x17F JUMPI DUP3 SWAP1 SUB PUSH1 0x1F AND DUP3 ADD SWAP2 JUMPDEST POP POP POP POP POP DUP2 JUMP JUMPDEST CALLER PUSH1 0x1 PUSH1 0x1 PUSH1 0xA0 SHL SUB PUSH32 0x0 AND EQ PUSH2 0x1ED JUMPI PUSH1 0x40 MLOAD PUSH4 0xC6829F83 PUSH1 0xE0 SHL DUP2 MSTORE PUSH1 0x4 ADD PUSH1 0x40 MLOAD DUP1 SWAP2 SUB SWAP1 REVERT JUMPDEST PUSH2 0x1F8 DUP4 DUP4 DUP4 PUSH2 0x382 JUMP JUMPDEST PUSH1 0x40 MLOAD DUP4 SWAP1 PUSH32 0x85E1543BF2F84FE80C6BADBCE3648C8539AD1DF4D2B3D822938CA0538BE727E6 SWAP1 PUSH0 SWAP1 LOG2 POP POP POP JUMP JUMPDEST PUSH1 0x4 DUP1 SLOAD PUSH2 0x125 SWAP1 PUSH2 0xEBE JUMP JUMPDEST PUSH1 0x5 DUP1 SLOAD PUSH2 0x125 SWAP1 PUSH2 0xEBE JUMP JUMPDEST PUSH1 0x1 DUP1 SLOAD PUSH2 0x125 SWAP1 PUSH2 0xEBE JUMP JUMPDEST PUSH1 0x2 DUP1 SLOAD PUSH2 0x125 SWAP1 PUSH2 0xEBE JUMP JUMPDEST PUSH1 0x40 MLOAD DUP1 PUSH2 0x140 ADD PUSH1 0x40 MSTORE DUP1 PUSH2 0x103 DUP2 MSTORE PUSH1 0x20 ADD PUSH2 0x1371 PUSH2 0x103 SWAP2 CODECOPY DUP2 JUMP JUMPDEST PUSH0 PUSH2 0x2B9 PUSH1 0x40 DUP1 MLOAD PUSH1 0xE0 DUP2 ADD SWAP1 SWAP2 MSTORE DUP1 PUSH0 DUP2 MSTORE PUSH1 0x20 ADD PUSH0 DUP2 MSTORE PUSH1 0x20 ADD PUSH0 DUP2 MSTORE PUSH1 0x20 ADD PUSH1 0x60 DUP2 MSTORE PUSH1 0x20 ADD PUSH1 0x60 DUP2 MSTORE PUSH1 0x20 ADD PUSH1 0x60 DUP2 MSTORE PUSH1 0x20 ADD PUSH1 0x60 DUP2 MSTORE POP SWAP1 JUMP JUMPDEST PUSH2 0x2DF PUSH1 0x40 MLOAD DUP1 PUSH2 0x140 ADD PUSH1 0x40 MSTORE DUP1 PUSH2 0x103 DUP2 MSTORE PUSH1 0x20 ADD PUSH2 0x1371 PUSH2 0x103 SWAP2 CODECOPY DUP3 SWAP1 PUSH2 0x423 JUMP JUMPDEST PUSH1 0x40 DUP1 MLOAD PUSH1 0x1 DUP1 DUP3 MSTORE DUP2 DUP4 ADD SWAP1 SWAP3 MSTORE PUSH0 SWAP2 DUP2 PUSH1 0x20 ADD JUMPDEST PUSH1 0x60 DUP2 MSTORE PUSH1 0x20 ADD SWAP1 PUSH1 0x1 SWAP1 SUB SWAP1 DUP2 PUSH2 0x2F5 JUMPI SWAP1 POP POP SWAP1 POP DUP5 DUP2 PUSH0 DUP2 MLOAD DUP2 LT PUSH2 0x31F JUMPI PUSH2 0x31F PUSH2 0xEF6 JUMP JUMPDEST PUSH1 0x20 SWAP1 DUP2 MUL SWAP2 SWAP1 SWAP2 ADD ADD MSTORE PUSH2 0x334 DUP3 DUP3 PUSH2 0x433 JUMP JUMPDEST PUSH2 0x364 PUSH2 0x340 DUP4 PUSH2 0x45C JUMP JUMPDEST DUP6 PUSH3 0x493E0 PUSH22 0x66756E2D657468657265756D2D7365706F6C69612D31 PUSH1 0x50 SHL PUSH2 0x720 JUMP JUMPDEST PUSH1 0x3 SSTORE PUSH1 0x1 PUSH2 0x373 DUP7 DUP3 PUSH2 0xF55 JUMP JUMPDEST POP PUSH1 0x3 SLOAD SWAP3 POP POP POP JUMPDEST SWAP3 SWAP2 POP POP JUMP JUMPDEST DUP3 PUSH1 0x3 SLOAD EQ PUSH2 0x3AB JUMPI PUSH1 0x40 MLOAD PUSH4 0xD068BF5B PUSH1 0xE0 SHL DUP2 MSTORE PUSH1 0x4 DUP2 ADD DUP5 SWAP1 MSTORE PUSH1 0x24 ADD PUSH1 0x40 MLOAD DUP1 SWAP2 SUB SWAP1 REVERT JUMPDEST PUSH1 0x5 PUSH2 0x3B7 DUP3 DUP3 PUSH2 0xF55 JUMP JUMPDEST POP PUSH1 0x4 PUSH2 0x3C4 DUP4 DUP3 PUSH2 0xF55 JUMP JUMPDEST POP PUSH1 0x2 PUSH2 0x3D1 DUP4 DUP3 PUSH2 0xF55 JUMP JUMPDEST POP PUSH0 PUSH2 0x3DE PUSH1 0x1 DUP3 PUSH2 0x1012 JUMP JUMPDEST POP DUP3 PUSH32 0x160ED0AAFFBEF6885155188B91459CB5A97D5DAADCCF7561D8C46DEEA6641B50 PUSH1 0x2 PUSH1 0x4 PUSH1 0x5 PUSH1 0x40 MLOAD PUSH2 0x416 SWAP4 SWAP3 SWAP2 SWAP1 PUSH2 0x115D JUMP JUMPDEST PUSH1 0x40 MLOAD DUP1 SWAP2 SUB SWAP1 LOG2 POP POP POP JUMP JUMPDEST PUSH2 0x42F DUP3 PUSH0 PUSH0 DUP5 PUSH2 0x7ED JUMP JUMPDEST POP POP JUMP JUMPDEST DUP1 MLOAD PUSH0 SUB PUSH2 0x454 JUMPI PUSH1 0x40 MLOAD PUSH4 0xFE936CB7 PUSH1 0xE0 SHL DUP2 MSTORE PUSH1 0x4 ADD PUSH1 0x40 MLOAD DUP1 SWAP2 SUB SWAP1 REVERT JUMPDEST PUSH1 0xA0 SWAP1 SWAP2 ADD MSTORE JUMP JUMPDEST PUSH1 0x60 PUSH0 PUSH2 0x46A PUSH2 0x100 PUSH2 0x86A JUMP JUMPDEST SWAP1 POP PUSH2 0x4A3 PUSH1 0x40 MLOAD DUP1 PUSH1 0x40 ADD PUSH1 0x40 MSTORE DUP1 PUSH1 0xC DUP2 MSTORE PUSH1 0x20 ADD PUSH12 0x31B7B232A637B1B0BA34B7B7 PUSH1 0xA1 SHL DUP2 MSTORE POP DUP3 PUSH2 0x88A SWAP1 SWAP2 SWAP1 PUSH4 0xFFFFFFFF AND JUMP JUMPDEST DUP3 MLOAD PUSH2 0x4C1 SWAP1 PUSH1 0x2 DUP2 GT ISZERO PUSH2 0x4BA JUMPI PUSH2 0x4BA PUSH2 0x119F JUMP JUMPDEST DUP3 SWAP1 PUSH2 0x8A8 JUMP JUMPDEST PUSH1 0x40 DUP1 MLOAD DUP1 DUP3 ADD SWAP1 SWAP2 MSTORE PUSH1 0x8 DUP2 MSTORE PUSH8 0x6C616E6775616765 PUSH1 0xC0 SHL PUSH1 0x20 DUP3 ADD MSTORE PUSH2 0x4EB SWAP1 DUP3 SWAP1 PUSH2 0x88A JUMP JUMPDEST PUSH1 0x40 DUP4 ADD MLOAD PUSH2 0x502 SWAP1 DUP1 ISZERO PUSH2 0x4BA JUMPI PUSH2 0x4BA PUSH2 0x119F JUMP JUMPDEST PUSH1 0x40 DUP1 MLOAD DUP1 DUP3 ADD SWAP1 SWAP2 MSTORE PUSH1 0x6 DUP2 MSTORE PUSH6 0x736F75726365 PUSH1 0xD0 SHL PUSH1 0x20 DUP3 ADD MSTORE PUSH2 0x52A SWAP1 DUP3 SWAP1 PUSH2 0x88A JUMP JUMPDEST PUSH1 0x60 DUP4 ADD MLOAD PUSH2 0x53A SWAP1 DUP3 SWAP1 PUSH2 0x88A JUMP JUMPDEST PUSH1 0xA0 DUP4 ADD MLOAD MLOAD ISZERO PUSH2 0x5C5 JUMPI PUSH1 0x40 DUP1 MLOAD DUP1 DUP3 ADD SWAP1 SWAP2 MSTORE PUSH1 0x4 DUP2 MSTORE PUSH4 0x61726773 PUSH1 0xE0 SHL PUSH1 0x20 DUP3 ADD MSTORE PUSH2 0x56B SWAP1 DUP3 SWAP1 PUSH2 0x88A JUMP JUMPDEST PUSH2 0x574 DUP2 PUSH2 0x8E1 JUMP JUMPDEST PUSH0 JUMPDEST DUP4 PUSH1 0xA0 ADD MLOAD MLOAD DUP2 LT ISZERO PUSH2 0x5BB JUMPI PUSH2 0x5B3 DUP5 PUSH1 0xA0 ADD MLOAD DUP3 DUP2 MLOAD DUP2 LT PUSH2 0x59C JUMPI PUSH2 0x59C PUSH2 0xEF6 JUMP JUMPDEST PUSH1 0x20 MUL PUSH1 0x20 ADD ADD MLOAD DUP4 PUSH2 0x88A SWAP1 SWAP2 SWAP1 PUSH4 0xFFFFFFFF AND JUMP JUMPDEST PUSH1 0x1 ADD PUSH2 0x576 JUMP JUMPDEST POP PUSH2 0x5C5 DUP2 PUSH2 0x905 JUMP JUMPDEST PUSH1 0x80 DUP4 ADD MLOAD MLOAD ISZERO PUSH2 0x688 JUMPI PUSH0 DUP4 PUSH1 0x20 ADD MLOAD PUSH1 0x2 DUP2 GT ISZERO PUSH2 0x5E7 JUMPI PUSH2 0x5E7 PUSH2 0x119F JUMP JUMPDEST SUB PUSH2 0x605 JUMPI PUSH1 0x40 MLOAD PUSH4 0xA80D31F7 PUSH1 0xE0 SHL DUP2 MSTORE PUSH1 0x4 ADD PUSH1 0x40 MLOAD DUP1 SWAP2 SUB SWAP1 REVERT JUMPDEST PUSH1 0x40 DUP1 MLOAD DUP1 DUP3 ADD SWAP1 SWAP2 MSTORE PUSH1 0xF DUP2 MSTORE PUSH15 0x39B2B1B932BA39A637B1B0BA34B7B7 PUSH1 0x89 SHL PUSH1 0x20 DUP3 ADD MSTORE PUSH2 0x636 SWAP1 DUP3 SWAP1 PUSH2 0x88A JUMP JUMPDEST PUSH2 0x64F DUP4 PUSH1 0x20 ADD MLOAD PUSH1 0x2 DUP2 GT ISZERO PUSH2 0x4BA JUMPI PUSH2 0x4BA PUSH2 0x119F JUMP JUMPDEST PUSH1 0x40 DUP1 MLOAD DUP1 DUP3 ADD SWAP1 SWAP2 MSTORE PUSH1 0x7 DUP2 MSTORE PUSH7 0x73656372657473 PUSH1 0xC8 SHL PUSH1 0x20 DUP3 ADD MSTORE PUSH2 0x678 SWAP1 DUP3 SWAP1 PUSH2 0x88A JUMP JUMPDEST PUSH1 0x80 DUP4 ADD MLOAD PUSH2 0x688 SWAP1 DUP3 SWAP1 PUSH2 0x923 JUMP JUMPDEST PUSH1 0xC0 DUP4 ADD MLOAD MLOAD ISZERO PUSH2 0x718 JUMPI PUSH1 0x40 DUP1 MLOAD DUP1 DUP3 ADD SWAP1 SWAP2 MSTORE PUSH1 0x9 DUP2 MSTORE PUSH9 0x627974657341726773 PUSH1 0xB8 SHL PUSH1 0x20 DUP3 ADD MSTORE PUSH2 0x6BE SWAP1 DUP3 SWAP1 PUSH2 0x88A JUMP JUMPDEST PUSH2 0x6C7 DUP2 PUSH2 0x8E1 JUMP JUMPDEST PUSH0 JUMPDEST DUP4 PUSH1 0xC0 ADD MLOAD MLOAD DUP2 LT ISZERO PUSH2 0x70E JUMPI PUSH2 0x706 DUP5 PUSH1 0xC0 ADD MLOAD DUP3 DUP2 MLOAD DUP2 LT PUSH2 0x6EF JUMPI PUSH2 0x6EF PUSH2 0xEF6 JUMP JUMPDEST PUSH1 0x20 MUL PUSH1 0x20 ADD ADD MLOAD DUP4 PUSH2 0x923 SWAP1 SWAP2 SWAP1 PUSH4 0xFFFFFFFF AND JUMP JUMPDEST PUSH1 0x1 ADD PUSH2 0x6C9 JUMP JUMPDEST POP PUSH2 0x718 DUP2 PUSH2 0x905 JUMP JUMPDEST MLOAD MLOAD SWAP3 SWAP2 POP POP JUMP JUMPDEST PUSH0 PUSH0 PUSH32 0x0 PUSH1 0x1 PUSH1 0x1 PUSH1 0xA0 SHL SUB AND PUSH4 0x461D2762 DUP7 DUP9 PUSH1 0x1 DUP9 DUP9 PUSH1 0x40 MLOAD DUP7 PUSH4 0xFFFFFFFF AND PUSH1 0xE0 SHL DUP2 MSTORE PUSH1 0x4 ADD PUSH2 0x777 SWAP6 SWAP5 SWAP4 SWAP3 SWAP2 SWAP1 PUSH2 0x11B3 JUMP JUMPDEST PUSH1 0x20 PUSH1 0x40 MLOAD DUP1 DUP4 SUB DUP2 PUSH0 DUP8 GAS CALL ISZERO DUP1 ISZERO PUSH2 0x793 JUMPI RETURNDATASIZE PUSH0 PUSH0 RETURNDATACOPY RETURNDATASIZE PUSH0 REVERT JUMPDEST POP POP POP POP PUSH1 0x40 MLOAD RETURNDATASIZE PUSH1 0x1F NOT PUSH1 0x1F DUP3 ADD AND DUP3 ADD DUP1 PUSH1 0x40 MSTORE POP DUP2 ADD SWAP1 PUSH2 0x7B7 SWAP2 SWAP1 PUSH2 0x11FB JUMP JUMPDEST PUSH1 0x40 MLOAD SWAP1 SWAP2 POP DUP2 SWAP1 PUSH32 0x1131472297A800FEE664D1D89CFA8F7676FF07189ECC53F80BBB5F4969099DB8 SWAP1 PUSH0 SWAP1 LOG2 SWAP6 SWAP5 POP POP POP POP POP JUMP JUMPDEST DUP1 MLOAD PUSH0 SUB PUSH2 0x80E JUMPI PUSH1 0x40 MLOAD PUSH4 0x22CE3EDD PUSH1 0xE0 SHL DUP2 MSTORE PUSH1 0x4 ADD PUSH1 0x40 MLOAD DUP1 SWAP2 SUB SWAP1 REVERT JUMPDEST DUP4 DUP4 PUSH1 0x2 DUP2 GT ISZERO PUSH2 0x821 JUMPI PUSH2 0x821 PUSH2 0x119F JUMP JUMPDEST SWAP1 DUP2 PUSH1 0x2 DUP2 GT ISZERO PUSH2 0x834 JUMPI PUSH2 0x834 PUSH2 0x119F JUMP JUMPDEST SWAP1 MSTORE POP PUSH1 0x40 DUP5 ADD DUP3 DUP1 ISZERO PUSH2 0x84A JUMPI PUSH2 0x84A PUSH2 0x119F JUMP JUMPDEST SWAP1 DUP2 DUP1 ISZERO PUSH2 0x85A JUMPI PUSH2 0x85A PUSH2 0x119F JUMP JUMPDEST SWAP1 MSTORE POP PUSH1 0x60 SWAP1 SWAP4 ADD SWAP3 SWAP1 SWAP3 MSTORE POP POP JUMP JUMPDEST PUSH2 0x872 PUSH2 0xCCD JUMP JUMPDEST DUP1 MLOAD PUSH2 0x87E SWAP1 DUP4 PUSH2 0x930 JUMP JUMPDEST POP PUSH0 PUSH1 0x20 DUP3 ADD MSTORE SWAP2 SWAP1 POP JUMP JUMPDEST PUSH2 0x897 DUP3 PUSH1 0x3 DUP4 MLOAD PUSH2 0x9A4 JUMP JUMPDEST DUP2 MLOAD PUSH2 0x8A3 SWAP1 DUP3 PUSH2 0xAC3 JUMP JUMPDEST POP POP POP JUMP JUMPDEST DUP2 MLOAD PUSH2 0x8B5 SWAP1 PUSH1 0xC2 PUSH2 0xAEA JUMP JUMPDEST POP PUSH2 0x42F DUP3 DUP3 PUSH1 0x40 MLOAD PUSH1 0x20 ADD PUSH2 0x8CD SWAP2 DUP2 MSTORE PUSH1 0x20 ADD SWAP1 JUMP JUMPDEST PUSH1 0x40 MLOAD PUSH1 0x20 DUP2 DUP4 SUB SUB DUP2 MSTORE SWAP1 PUSH1 0x40 MSTORE PUSH2 0x923 JUMP JUMPDEST PUSH2 0x8EC DUP2 PUSH1 0x4 PUSH2 0xB51 JUMP JUMPDEST PUSH1 0x1 DUP2 PUSH1 0x20 ADD DUP2 DUP2 MLOAD PUSH2 0x8FF SWAP2 SWAP1 PUSH2 0x1226 JUMP JUMPDEST SWAP1 MSTORE POP POP JUMP JUMPDEST PUSH2 0x910 DUP2 PUSH1 0x7 PUSH2 0xB51 JUMP JUMPDEST PUSH1 0x1 DUP2 PUSH1 0x20 ADD DUP2 DUP2 MLOAD PUSH2 0x8FF SWAP2 SWAP1 PUSH2 0x1239 JUMP JUMPDEST PUSH2 0x897 DUP3 PUSH1 0x2 DUP4 MLOAD PUSH2 0x9A4 JUMP JUMPDEST PUSH1 0x40 DUP1 MLOAD DUP1 DUP3 ADD SWAP1 SWAP2 MSTORE PUSH1 0x60 DUP2 MSTORE PUSH0 PUSH1 0x20 DUP3 ADD MSTORE PUSH2 0x94F PUSH1 0x20 DUP4 PUSH2 0x124C JUMP JUMPDEST ISZERO PUSH2 0x977 JUMPI PUSH2 0x95F PUSH1 0x20 DUP4 PUSH2 0x124C JUMP JUMPDEST PUSH2 0x96A SWAP1 PUSH1 0x20 PUSH2 0x1239 JUMP JUMPDEST PUSH2 0x974 SWAP1 DUP4 PUSH2 0x1226 JUMP JUMPDEST SWAP2 POP JUMPDEST PUSH1 0x20 DUP1 DUP5 ADD DUP4 SWAP1 MSTORE PUSH1 0x40 MLOAD DUP1 DUP6 MSTORE PUSH0 DUP2 MSTORE SWAP1 DUP2 DUP5 ADD ADD DUP2 DUP2 LT ISZERO PUSH2 0x999 JUMPI PUSH0 PUSH0 REVERT JUMPDEST PUSH1 0x40 MSTORE POP SWAP2 SWAP3 SWAP2 POP POP JUMP JUMPDEST PUSH1 0x17 DUP2 PUSH1 0x1 PUSH1 0x1 PUSH1 0x40 SHL SUB AND GT PUSH2 0x9D0 JUMPI DUP3 MLOAD PUSH2 0x9CA SWAP1 PUSH1 0xE0 PUSH1 0x5 DUP6 SWAP1 SHL AND DUP4 OR PUSH2 0xAEA JUMP JUMPDEST POP POP POP POP JUMP JUMPDEST PUSH1 0xFF DUP2 PUSH1 0x1 PUSH1 0x1 PUSH1 0x40 SHL SUB AND GT PUSH2 0xA10 JUMPI DUP3 MLOAD PUSH2 0x9F8 SWAP1 PUSH1 0x18 PUSH2 0x1FE0 PUSH1 0x5 DUP7 SWAP1 SHL AND OR PUSH2 0xAEA JUMP JUMPDEST POP DUP3 MLOAD PUSH2 0x9CA SWAP1 PUSH1 0x1 PUSH1 0x1 PUSH1 0x40 SHL SUB DUP4 AND PUSH1 0x1 PUSH2 0xB68 JUMP JUMPDEST PUSH2 0xFFFF DUP2 PUSH1 0x1 PUSH1 0x1 PUSH1 0x40 SHL SUB AND GT PUSH2 0xA51 JUMPI DUP3 MLOAD PUSH2 0xA39 SWAP1 PUSH1 0x19 PUSH2 0x1FE0 PUSH1 0x5 DUP7 SWAP1 SHL AND OR PUSH2 0xAEA JUMP JUMPDEST POP DUP3 MLOAD PUSH2 0x9CA SWAP1 PUSH1 0x1 PUSH1 0x1 PUSH1 0x40 SHL SUB DUP4 AND PUSH1 0x2 PUSH2 0xB68 JUMP JUMPDEST PUSH4 0xFFFFFFFF DUP2 PUSH1 0x1 PUSH1 0x1 PUSH1 0x40 SHL SUB AND GT PUSH2 0xA94 JUMPI DUP3 MLOAD PUSH2 0xA7C SWAP1 PUSH1 0x1A PUSH2 0x1FE0 PUSH1 0x5 DUP7 SWAP1 SHL AND OR PUSH2 0xAEA JUMP JUMPDEST POP DUP3 MLOAD PUSH2 0x9CA SWAP1 PUSH1 0x1 PUSH1 0x1 PUSH1 0x40 SHL SUB DUP4 AND PUSH1 0x4 PUSH2 0xB68 JUMP JUMPDEST DUP3 MLOAD PUSH2 0xAAB SWAP1 PUSH1 0x1B PUSH2 0x1FE0 PUSH1 0x5 DUP7 SWAP1 SHL AND OR PUSH2 0xAEA JUMP JUMPDEST POP DUP3 MLOAD PUSH2 0x9CA SWAP1 PUSH1 0x1 PUSH1 0x1 PUSH1 0x40 SHL SUB DUP4 AND PUSH1 0x8 PUSH2 0xB68 JUMP JUMPDEST PUSH1 0x40 DUP1 MLOAD DUP1 DUP3 ADD SWAP1 SWAP2 MSTORE PUSH1 0x60 DUP2 MSTORE PUSH0 PUSH1 0x20 DUP3 ADD MSTORE PUSH2 0xAE3 DUP4 DUP4 DUP5 MLOAD PUSH2 0xBEA JUMP JUMPDEST SWAP4 SWAP3 POP POP POP JUMP JUMPDEST PUSH1 0x40 DUP1 MLOAD DUP1 DUP3 ADD SWAP1 SWAP2 MSTORE PUSH1 0x60 DUP2 MSTORE PUSH0 PUSH1 0x20 DUP3 ADD MSTORE DUP3 MLOAD MLOAD PUSH0 PUSH2 0xB0D DUP3 PUSH1 0x1 PUSH2 0x1226 JUMP JUMPDEST SWAP1 POP DUP5 PUSH1 0x20 ADD MLOAD DUP3 LT PUSH2 0xB2E JUMPI PUSH2 0xB2E DUP6 PUSH2 0xB29 DUP4 PUSH1 0x2 PUSH2 0x126B JUMP JUMPDEST PUSH2 0xCB6 JUMP JUMPDEST DUP5 MLOAD PUSH1 0x20 DUP4 DUP3 ADD ADD DUP6 DUP2 MSTORE8 POP DUP1 MLOAD DUP3 GT ISZERO PUSH2 0xB47 JUMPI DUP2 DUP2 MSTORE JUMPDEST POP SWAP4 SWAP5 SWAP4 POP POP POP POP JUMP JUMPDEST DUP2 MLOAD PUSH2 0x8A3 SWAP1 PUSH1 0x1F PUSH2 0x1FE0 PUSH1 0x5 DUP6 SWAP1 SHL AND OR PUSH2 0xAEA JUMP JUMPDEST PUSH1 0x40 DUP1 MLOAD DUP1 DUP3 ADD SWAP1 SWAP2 MSTORE PUSH1 0x60 DUP2 MSTORE PUSH0 PUSH1 0x20 DUP3 ADD MSTORE DUP4 MLOAD MLOAD PUSH0 PUSH2 0xB8A DUP3 DUP6 PUSH2 0x1226 JUMP JUMPDEST SWAP1 POP DUP6 PUSH1 0x20 ADD MLOAD DUP2 GT ISZERO PUSH2 0xBA7 JUMPI PUSH2 0xBA7 DUP7 PUSH2 0xB29 DUP4 PUSH1 0x2 PUSH2 0x126B JUMP JUMPDEST PUSH0 PUSH1 0x1 PUSH2 0xBB6 DUP7 PUSH2 0x100 PUSH2 0x1365 JUMP JUMPDEST PUSH2 0xBC0 SWAP2 SWAP1 PUSH2 0x1239 JUMP JUMPDEST SWAP1 POP DUP7 MLOAD DUP3 DUP2 ADD DUP8 DUP4 NOT DUP3 MLOAD AND OR DUP2 MSTORE POP DUP1 MLOAD DUP4 GT ISZERO PUSH2 0xBDE JUMPI DUP3 DUP2 MSTORE JUMPDEST POP SWAP6 SWAP7 SWAP6 POP POP POP POP POP POP JUMP JUMPDEST PUSH1 0x40 DUP1 MLOAD DUP1 DUP3 ADD SWAP1 SWAP2 MSTORE PUSH1 0x60 DUP2 MSTORE PUSH0 PUSH1 0x20 DUP3 ADD MSTORE DUP3 MLOAD DUP3 GT ISZERO PUSH2 0xC0B JUMPI PUSH0 PUSH0 REVERT JUMPDEST DUP4 MLOAD MLOAD PUSH0 PUSH2 0xC19 DUP5 DUP4 PUSH2 0x1226 JUMP JUMPDEST SWAP1 POP DUP6 PUSH1 0x20 ADD MLOAD DUP2 GT ISZERO PUSH2 0xC36 JUMPI PUSH2 0xC36 DUP7 PUSH2 0xB29 DUP4 PUSH1 0x2 PUSH2 0x126B JUMP JUMPDEST DUP6 MLOAD DUP1 MLOAD DUP4 DUP3 ADD PUSH1 0x20 ADD SWAP2 PUSH0 SWAP2 DUP1 DUP6 GT ISZERO PUSH2 0xC4F JUMPI DUP5 DUP3 MSTORE JUMPDEST POP POP POP PUSH1 0x20 DUP7 ADD JUMPDEST PUSH1 0x20 DUP7 LT PUSH2 0xC8F JUMPI DUP1 MLOAD DUP3 MSTORE PUSH2 0xC6E PUSH1 0x20 DUP4 PUSH2 0x1226 JUMP JUMPDEST SWAP2 POP PUSH2 0xC7B PUSH1 0x20 DUP3 PUSH2 0x1226 JUMP JUMPDEST SWAP1 POP PUSH2 0xC88 PUSH1 0x20 DUP8 PUSH2 0x1239 JUMP JUMPDEST SWAP6 POP PUSH2 0xC57 JUMP JUMPDEST MLOAD DUP2 MLOAD PUSH0 NOT PUSH1 0x20 DUP9 SWAP1 SUB PUSH2 0x100 EXP ADD SWAP1 DUP2 AND SWAP1 NOT SWAP2 SWAP1 SWAP2 AND OR SWAP1 MSTORE POP DUP5 SWAP2 POP POP SWAP4 SWAP3 POP POP POP JUMP JUMPDEST DUP2 MLOAD PUSH2 0xCC2 DUP4 DUP4 PUSH2 0x930 JUMP JUMPDEST POP PUSH2 0x9CA DUP4 DUP3 PUSH2 0xAC3 JUMP JUMPDEST PUSH1 0x40 MLOAD DUP1 PUSH1 0x40 ADD PUSH1 0x40 MSTORE DUP1 PUSH2 0xCF4 PUSH1 0x40 MLOAD DUP1 PUSH1 0x40 ADD PUSH1 0x40 MSTORE DUP1 PUSH1 0x60 DUP2 MSTORE PUSH1 0x20 ADD PUSH0 DUP2 MSTORE POP SWAP1 JUMP JUMPDEST DUP2 MSTORE PUSH1 0x20 ADD PUSH0 DUP2 MSTORE POP SWAP1 JUMP JUMPDEST PUSH0 DUP2 MLOAD DUP1 DUP5 MSTORE DUP1 PUSH1 0x20 DUP5 ADD PUSH1 0x20 DUP7 ADD MCOPY PUSH0 PUSH1 0x20 DUP3 DUP7 ADD ADD MSTORE PUSH1 0x20 PUSH1 0x1F NOT PUSH1 0x1F DUP4 ADD AND DUP6 ADD ADD SWAP2 POP POP SWAP3 SWAP2 POP POP JUMP JUMPDEST PUSH1 0x20 DUP2 MSTORE PUSH0 PUSH2 0xAE3 PUSH1 0x20 DUP4 ADD DUP5 PUSH2 0xD00 JUMP JUMPDEST PUSH4 0x4E487B71 PUSH1 0xE0 SHL PUSH0 MSTORE PUSH1 0x41 PUSH1 0x4 MSTORE PUSH1 0x24 PUSH0 REVERT JUMPDEST PUSH0 PUSH0 PUSH1 0x1 PUSH1 0x1 PUSH1 0x40 SHL SUB DUP5 GT ISZERO PUSH2 0xD6D JUMPI PUSH2 0xD6D PUSH2 0xD40 JUMP JUMPDEST POP PUSH1 0x40 MLOAD PUSH1 0x1F NOT PUSH1 0x1F DUP6 ADD DUP2 AND PUSH1 0x3F ADD AND DUP2 ADD DUP2 DUP2 LT PUSH1 0x1 PUSH1 0x1 PUSH1 0x40 SHL SUB DUP3 GT OR ISZERO PUSH2 0xD9B JUMPI PUSH2 0xD9B PUSH2 0xD40 JUMP JUMPDEST PUSH1 0x40 MSTORE DUP4 DUP2 MSTORE SWAP1 POP DUP1 DUP3 DUP5 ADD DUP6 LT ISZERO PUSH2 0xDB2 JUMPI PUSH0 PUSH0 REVERT JUMPDEST DUP4 DUP4 PUSH1 0x20 DUP4 ADD CALLDATACOPY PUSH0 PUSH1 0x20 DUP6 DUP4 ADD ADD MSTORE POP SWAP4 SWAP3 POP POP POP JUMP JUMPDEST PUSH0 DUP3 PUSH1 0x1F DUP4 ADD SLT PUSH2 0xDD8 JUMPI PUSH0 PUSH0 REVERT JUMPDEST PUSH2 0xAE3 DUP4 DUP4 CALLDATALOAD PUSH1 0x20 DUP6 ADD PUSH2 0xD54 JUMP JUMPDEST PUSH0 PUSH0 PUSH0 PUSH1 0x60 DUP5 DUP7 SUB SLT ISZERO PUSH2 0xDF9 JUMPI PUSH0 PUSH0 REVERT JUMPDEST DUP4 CALLDATALOAD SWAP3 POP PUSH1 0x20 DUP5 ADD CALLDATALOAD PUSH1 0x1 PUSH1 0x1 PUSH1 0x40 SHL SUB DUP2 GT ISZERO PUSH2 0xE15 JUMPI PUSH0 PUSH0 REVERT JUMPDEST PUSH2 0xE21 DUP7 DUP3 DUP8 ADD PUSH2 0xDC9 JUMP JUMPDEST SWAP3 POP POP PUSH1 0x40 DUP5 ADD CALLDATALOAD PUSH1 0x1 PUSH1 0x1 PUSH1 0x40 SHL SUB DUP2 GT ISZERO PUSH2 0xE3C JUMPI PUSH0 PUSH0 REVERT JUMPDEST PUSH2 0xE48 DUP7 DUP3 DUP8 ADD PUSH2 0xDC9 JUMP JUMPDEST SWAP2 POP POP SWAP3 POP SWAP3 POP SWAP3 JUMP JUMPDEST PUSH0 PUSH0 PUSH1 0x40 DUP4 DUP6 SUB SLT ISZERO PUSH2 0xE63 JUMPI PUSH0 PUSH0 REVERT JUMPDEST DUP3 CALLDATALOAD PUSH1 0x1 PUSH1 0x1 PUSH1 0x40 SHL SUB DUP2 GT ISZERO PUSH2 0xE78 JUMPI PUSH0 PUSH0 REVERT JUMPDEST DUP4 ADD PUSH1 0x1F DUP2 ADD DUP6 SGT PUSH2 0xE88 JUMPI PUSH0 PUSH0 REVERT JUMPDEST PUSH2 0xE97 DUP6 DUP3 CALLDATALOAD PUSH1 0x20 DUP5 ADD PUSH2 0xD54 JUMP JUMPDEST SWAP3 POP POP PUSH1 0x20 DUP4 ADD CALLDATALOAD PUSH1 0x1 PUSH1 0x1 PUSH1 0x40 SHL SUB DUP2 AND DUP2 EQ PUSH2 0xEB3 JUMPI PUSH0 PUSH0 REVERT JUMPDEST DUP1 SWAP2 POP POP SWAP3 POP SWAP3 SWAP1 POP JUMP JUMPDEST PUSH1 0x1 DUP2 DUP2 SHR SWAP1 DUP3 AND DUP1 PUSH2 0xED2 JUMPI PUSH1 0x7F DUP3 AND SWAP2 POP JUMPDEST PUSH1 0x20 DUP3 LT DUP2 SUB PUSH2 0xEF0 JUMPI PUSH4 0x4E487B71 PUSH1 0xE0 SHL PUSH0 MSTORE PUSH1 0x22 PUSH1 0x4 MSTORE PUSH1 0x24 PUSH0 REVERT JUMPDEST POP SWAP2 SWAP1 POP JUMP JUMPDEST PUSH4 0x4E487B71 PUSH1 0xE0 SHL PUSH0 MSTORE PUSH1 0x32 PUSH1 0x4 MSTORE PUSH1 0x24 PUSH0 REVERT JUMPDEST PUSH1 0x1F DUP3 GT ISZERO PUSH2 0x8A3 JUMPI DUP1 PUSH0 MSTORE PUSH1 0x20 PUSH0 KECCAK256 PUSH1 0x1F DUP5 ADD PUSH1 0x5 SHR DUP2 ADD PUSH1 0x20 DUP6 LT ISZERO PUSH2 0xF2F JUMPI POP DUP1 JUMPDEST PUSH1 0x1F DUP5 ADD PUSH1 0x5 SHR DUP3 ADD SWAP2 POP JUMPDEST DUP2 DUP2 LT ISZERO PUSH2 0xF4E JUMPI PUSH0 DUP2 SSTORE PUSH1 0x1 ADD PUSH2 0xF3B JUMP JUMPDEST POP POP POP POP POP JUMP JUMPDEST DUP2 MLOAD PUSH1 0x1 PUSH1 0x1 PUSH1 0x40 SHL SUB DUP2 GT ISZERO PUSH2 0xF6E JUMPI PUSH2 0xF6E PUSH2 0xD40 JUMP JUMPDEST PUSH2 0xF82 DUP2 PUSH2 0xF7C DUP5 SLOAD PUSH2 0xEBE JUMP JUMPDEST DUP5 PUSH2 0xF0A JUMP JUMPDEST PUSH1 0x20 PUSH1 0x1F DUP3 GT PUSH1 0x1 DUP2 EQ PUSH2 0xFB7 JUMPI PUSH0 DUP4 ISZERO PUSH2 0xF9D JUMPI POP DUP5 DUP3 ADD MLOAD JUMPDEST PUSH1 0x1 DUP5 SWAP1 SHL PUSH0 NOT PUSH1 0x3 DUP7 SWAP1 SHL SHR NOT DUP3 AND OR JUMPDEST DUP6 SSTORE POP PUSH2 0xF4E JUMP JUMPDEST PUSH0 DUP5 DUP2 MSTORE PUSH1 0x20 DUP2 KECCAK256 PUSH1 0x1F NOT DUP6 AND SWAP2 JUMPDEST DUP3 DUP2 LT ISZERO PUSH2 0xFE6 JUMPI DUP8 DUP6 ADD MLOAD DUP3 SSTORE PUSH1 0x20 SWAP5 DUP6 ADD SWAP5 PUSH1 0x1 SWAP1 SWAP3 ADD SWAP2 ADD PUSH2 0xFC6 JUMP JUMPDEST POP DUP5 DUP3 LT ISZERO PUSH2 0x1003 JUMPI DUP7 DUP5 ADD MLOAD PUSH0 NOT PUSH1 0x3 DUP8 SWAP1 SHL PUSH1 0xF8 AND SHR NOT AND DUP2 SSTORE JUMPDEST POP POP POP POP PUSH1 0x1 SWAP1 DUP2 SHL ADD SWAP1 SSTORE POP JUMP JUMPDEST DUP2 DUP2 SUB PUSH2 0x101D JUMPI POP POP JUMP JUMPDEST PUSH2 0x1027 DUP3 SLOAD PUSH2 0xEBE JUMP JUMPDEST PUSH1 0x1 PUSH1 0x1 PUSH1 0x40 SHL SUB DUP2 GT ISZERO PUSH2 0x103E JUMPI PUSH2 0x103E PUSH2 0xD40 JUMP JUMPDEST PUSH2 0x104C DUP2 PUSH2 0xF7C DUP5 SLOAD PUSH2 0xEBE JUMP JUMPDEST PUSH0 PUSH1 0x1F DUP3 GT PUSH1 0x1 DUP2 EQ PUSH2 0x107B JUMPI PUSH0 DUP4 ISZERO PUSH2 0xF9D JUMPI POP DUP2 DUP6 ADD SLOAD PUSH1 0x1 DUP5 SWAP1 SHL PUSH0 NOT PUSH1 0x3 DUP7 SWAP1 SHL SHR NOT DUP3 AND OR PUSH2 0xFAF JUMP JUMPDEST PUSH0 DUP6 DUP2 MSTORE PUSH1 0x20 DUP1 DUP3 KECCAK256 DUP7 DUP4 MSTORE SWAP1 DUP3 KECCAK256 PUSH1 0x1F NOT DUP7 AND SWAP3 JUMPDEST DUP4 DUP2 LT ISZERO PUSH2 0x10B1 JUMPI DUP3 DUP7 ADD SLOAD DUP3 SSTORE PUSH1 0x1 SWAP6 DUP7 ADD SWAP6 SWAP1 SWAP2 ADD SWAP1 PUSH1 0x20 ADD PUSH2 0x1091 JUMP JUMPDEST POP DUP6 DUP4 LT ISZERO PUSH2 0x10CE JUMPI DUP2 DUP6 ADD SLOAD PUSH0 NOT PUSH1 0x3 DUP9 SWAP1 SHL PUSH1 0xF8 AND SHR NOT AND DUP2 SSTORE JUMPDEST POP POP POP POP POP PUSH1 0x1 SWAP1 DUP2 SHL ADD SWAP1 SSTORE POP JUMP JUMPDEST PUSH0 DUP2 SLOAD PUSH2 0x10EA DUP2 PUSH2 0xEBE JUMP JUMPDEST DUP1 DUP6 MSTORE PUSH1 0x1 DUP3 AND DUP1 ISZERO PUSH2 0x1104 JUMPI PUSH1 0x1 DUP2 EQ PUSH2 0x1120 JUMPI PUSH2 0x1154 JUMP JUMPDEST PUSH1 0xFF NOT DUP4 AND PUSH1 0x20 DUP8 ADD MSTORE PUSH1 0x20 DUP3 ISZERO ISZERO PUSH1 0x5 SHL DUP8 ADD ADD SWAP4 POP PUSH2 0x1154 JUMP JUMPDEST DUP5 PUSH0 MSTORE PUSH1 0x20 PUSH0 KECCAK256 PUSH0 JUMPDEST DUP4 DUP2 LT ISZERO PUSH2 0x114B JUMPI DUP2 SLOAD PUSH1 0x20 DUP3 DUP11 ADD ADD MSTORE PUSH1 0x1 DUP3 ADD SWAP2 POP PUSH1 0x20 DUP2 ADD SWAP1 POP PUSH2 0x1129 JUMP JUMPDEST DUP8 ADD PUSH1 0x20 ADD SWAP5 POP POP JUMPDEST POP POP POP SWAP3 SWAP2 POP POP JUMP JUMPDEST PUSH1 0x60 DUP2 MSTORE PUSH0 PUSH2 0x116F PUSH1 0x60 DUP4 ADD DUP7 PUSH2 0x10DE JUMP JUMPDEST DUP3 DUP2 SUB PUSH1 0x20 DUP5 ADD MSTORE PUSH2 0x1181 DUP2 DUP7 PUSH2 0x10DE JUMP JUMPDEST SWAP1 POP DUP3 DUP2 SUB PUSH1 0x40 DUP5 ADD MSTORE PUSH2 0x1195 DUP2 DUP6 PUSH2 0x10DE JUMP JUMPDEST SWAP7 SWAP6 POP POP POP POP POP POP JUMP JUMPDEST PUSH4 0x4E487B71 PUSH1 0xE0 SHL PUSH0 MSTORE PUSH1 0x21 PUSH1 0x4 MSTORE PUSH1 0x24 PUSH0 REVERT JUMPDEST PUSH1 0x1 PUSH1 0x1 PUSH1 0x40 SHL SUB DUP7 AND DUP2 MSTORE PUSH1 0xA0 PUSH1 0x20 DUP3 ADD MSTORE PUSH0 PUSH2 0x11D4 PUSH1 0xA0 DUP4 ADD DUP8 PUSH2 0xD00 JUMP JUMPDEST PUSH2 0xFFFF SWAP6 SWAP1 SWAP6 AND PUSH1 0x40 DUP4 ADD MSTORE POP PUSH4 0xFFFFFFFF SWAP3 SWAP1 SWAP3 AND PUSH1 0x60 DUP4 ADD MSTORE PUSH1 0x80 SWAP1 SWAP2 ADD MSTORE SWAP3 SWAP2 POP POP JUMP JUMPDEST PUSH0 PUSH1 0x20 DUP3 DUP5 SUB SLT ISZERO PUSH2 0x120B JUMPI PUSH0 PUSH0 REVERT JUMPDEST POP MLOAD SWAP2 SWAP1 POP JUMP JUMPDEST PUSH4 0x4E487B71 PUSH1 0xE0 SHL PUSH0 MSTORE PUSH1 0x11 PUSH1 0x4 MSTORE PUSH1 0x24 PUSH0 REVERT JUMPDEST DUP1 DUP3 ADD DUP1 DUP3 GT ISZERO PUSH2 0x37C JUMPI PUSH2 0x37C PUSH2 0x1212 JUMP JUMPDEST DUP2 DUP2 SUB DUP2 DUP2 GT ISZERO PUSH2 0x37C JUMPI PUSH2 0x37C PUSH2 0x1212 JUMP JUMPDEST PUSH0 DUP3 PUSH2 0x1266 JUMPI PUSH4 0x4E487B71 PUSH1 0xE0 SHL PUSH0 MSTORE PUSH1 0x12 PUSH1 0x4 MSTORE PUSH1 0x24 PUSH0 REVERT JUMPDEST POP MOD SWAP1 JUMP JUMPDEST DUP1 DUP3 MUL DUP2 ISZERO DUP3 DUP3 DIV DUP5 EQ OR PUSH2 0x37C JUMPI PUSH2 0x37C PUSH2 0x1212 JUMP JUMPDEST PUSH1 0x1 DUP2 JUMPDEST PUSH1 0x1 DUP5 GT ISZERO PUSH2 0x12BD JUMPI DUP1 DUP6 DIV DUP2 GT ISZERO PUSH2 0x12A1 JUMPI PUSH2 0x12A1 PUSH2 0x1212 JUMP JUMPDEST PUSH1 0x1 DUP5 AND ISZERO PUSH2 0x12AF JUMPI SWAP1 DUP2 MUL SWAP1 JUMPDEST PUSH1 0x1 SWAP4 SWAP1 SWAP4 SHR SWAP3 DUP1 MUL PUSH2 0x1286 JUMP JUMPDEST SWAP4 POP SWAP4 SWAP2 POP POP JUMP JUMPDEST PUSH0 DUP3 PUSH2 0x12D3 JUMPI POP PUSH1 0x1 PUSH2 0x37C JUMP JUMPDEST DUP2 PUSH2 0x12DF JUMPI POP PUSH0 PUSH2 0x37C JUMP JUMPDEST DUP2 PUSH1 0x1 DUP2 EQ PUSH2 0x12F5 JUMPI PUSH1 0x2 DUP2 EQ PUSH2 0x12FF JUMPI PUSH2 0x131B JUMP JUMPDEST PUSH1 0x1 SWAP2 POP POP PUSH2 0x37C JUMP JUMPDEST PUSH1 0xFF DUP5 GT ISZERO PUSH2 0x1310 JUMPI PUSH2 0x1310 PUSH2 0x1212 JUMP JUMPDEST POP POP PUSH1 0x1 DUP3 SHL PUSH2 0x37C JUMP JUMPDEST POP PUSH1 0x20 DUP4 LT PUSH2 0x133 DUP4 LT AND PUSH1 0x4E DUP5 LT PUSH1 0xB DUP5 LT AND OR ISZERO PUSH2 0x133E JUMPI POP DUP2 DUP2 EXP PUSH2 0x37C JUMP JUMPDEST PUSH2 0x134A PUSH0 NOT DUP5 DUP5 PUSH2 0x1282 JUMP JUMPDEST DUP1 PUSH0 NOT DIV DUP3 GT ISZERO PUSH2 0x135D JUMPI PUSH2 0x135D PUSH2 0x1212 JUMP JUMPDEST MUL SWAP4 SWAP3 POP POP POP JUMP JUMPDEST PUSH0 PUSH2 0xAE3 DUP4 DUP4 PUSH2 0x12C5 JUMP INVALID PUSH4 0x6F6E7374 KECCAK256 PUSH4 0x69747920 RETURNDATASIZE KECCAK256 PUSH2 0x7267 PUSH20 0x5B305D3B636F6E737420617069526573706F6E73 PUSH6 0x203D20617761 PUSH10 0x742046756E6374696F6E PUSH20 0x2E6D616B654874747052657175657374287B7572 PUSH13 0x3A206068747470733A2F2F7774 PUSH21 0x722E696E2F247B636974797D3F666F726D61743D33 0x26 PUSH14 0x602C726573706F6E736554797065 GASPRICE KECCAK256 0x27 PUSH21 0x657874277D293B69662028617069526573706F6E73 PUSH6 0x2E6572726F72 0x29 KECCAK256 PUSH28 0x7468726F77204572726F72282752657175657374206661696C656427 0x29 EXTCODESIZE PUSH30 0x636F6E7374207B2064617461207D203D20617069526573706F6E73653B72 PUSH6 0x7475726E2046 PUSH22 0x6E6374696F6E732E656E636F6465537472696E672864 PUSH2 0x7461 0x29 EXTCODESIZE LOG2 PUSH5 0x6970667358 0x22 SLT KECCAK256 0xAF BYTE PUSH3 0xD82E07 PUSH32 0x477662D9A800CFEE5081167F534BF8095E67D91F1BD123B1BB64736F6C634300 ADDMOD 0x1E STOP CALLER "
				},
				"gasEstimates": {
					"creation": {
						"codeDepositCost": "1057800",
						"executionCost": "infinite",
						"totalCost": "infinite"
					},
					"external": {
						"SOURCE()": "infinite",
						"getTemperature(string,uint64)": "infinite",
						"handleOracleFulfillment(bytes32,bytes,bytes)": "infinite",
						"s_lastCity()": "infinite",
						"s_lastError()": "infinite",
						"s_lastRequestId()": "2316",
						"s_lastResponse()": "infinite",
						"s_lastTemperature()": "infinite",
						"s_requestedCity()": "infinite"
					},
					"internal": {
						"fulfillRequest(bytes32,bytes memory,bytes memory)": "infinite"
					}
				},
				"methodIdentifiers": {
					"SOURCE()": "f230b4c2",
					"getTemperature(string,uint64)": "f343f1e1",
					"handleOracleFulfillment(bytes32,bytes,bytes)": "0ca76175",
					"s_lastCity()": "0845284e",
					"s_lastError()": "4b0795a8",
					"s_lastRequestId()": "b1e21749",
					"s_lastResponse()": "3944ea3a",
					"s_lastTemperature()": "d50cbe98",
					"s_requestedCity()": "6e0e7c3b"
				}
			},
			"storageLayout": {
				"storage": [
					{
						"astId": 2081,
						"contract": "contracts/FunctionsConsumer.sol:FunctionsConsumer",
						"label": "s_lastCity",
						"offset": 0,
						"slot": "0",
						"type": "t_string_storage"
					},
					{
						"astId": 2083,
						"contract": "contracts/FunctionsConsumer.sol:FunctionsConsumer",
						"label": "s_requestedCity",
						"offset": 0,
						"slot": "1",
						"type": "t_string_storage"
					},
					{
						"astId": 2085,
						"contract": "contracts/FunctionsConsumer.sol:FunctionsConsumer",
						"label": "s_lastTemperature",
						"offset": 0,
						"slot": "2",
						"type": "t_string_storage"
					},
					{
						"astId": 2087,
						"contract": "contracts/FunctionsConsumer.sol:FunctionsConsumer",
						"label": "s_lastRequestId",
						"offset": 0,
						"slot": "3",
						"type": "t_bytes32"
					},
					{
						"astId": 2089,
						"contract": "contracts/FunctionsConsumer.sol:FunctionsConsumer",
						"label": "s_lastResponse",
						"offset": 0,
						"slot": "4",
						"type": "t_bytes_storage"
					},
					{
						"astId": 2091,
						"contract": "contracts/FunctionsConsumer.sol:FunctionsConsumer",
						"label": "s_lastError",
						"offset": 0,
						"slot": "5",
						"type": "t_bytes_storage"
					}
				],
				"types": {
					"t_bytes32": {
						"encoding": "inplace",
						"label": "bytes32",
						"numberOfBytes": "32"
					},
					"t_bytes_storage": {
						"encoding": "bytes",
						"label": "bytes",
						"numberOfBytes": "32"
					},
					"t_string_storage": {
						"encoding": "bytes",
						"label": "string",
						"numberOfBytes": "32"
					}
				}
			},
			"userdoc": {
				"kind": "user",
				"methods": {
					"handleOracleFulfillment(bytes32,bytes,bytes)": {
						"notice": "Chainlink Functions response handler called by the Functions Router during fullilment from the designated transmitter node in an OCR round."
					}
				},
				"version": 1
			}
		}
	}
}