{
	"data": {
		"bytecode": {
			"linkReferences": {},
			"object": "60a0604052348015600e575f5ffd5b5073b83e47c2bc239b3bf370bc41e1459a34b41238d06080526080516114a96100465f395f81816101af015261072401526114a95ff3fe608060405234801561000f575f5ffd5b5060043610610090575f3560e01c80636e0e7c3b116100635780636e0e7c3b146100d7578063b1e21749146100df578063d50cbe98146100f6578063f230b4c2146100fe578063f343f1e114610106575f5ffd5b80630845284e146100945780630ca76175146100b25780633944ea3a146100c75780634b0795a8146100cf575b5f5ffd5b61009c610119565b6040516100a99190610d2e565b60405180910390f35b6100c56100c0366004610de7565b6101a4565b005b61009c610227565b61009c610234565b61009c610241565b6100e860035481565b6040519081526020016100a9565b61009c61024e565b61009c61025b565b6100e8610114366004610e52565b61027a565b5f805461012590610ebe565b80601f016020809104026020016040519081016040528092919081815260200182805461015190610ebe565b801561019c5780601f106101735761010080835404028352916020019161019c565b820191905f5260205f20905b81548152906001019060200180831161017f57829003601f168201915b505050505081565b336001600160a01b037f000000000000000000000000000000000000000000000000000000000000000016146101ed5760405163c6829f8360e01b815260040160405180910390fd5b6101f8838383610382565b60405183907f85e1543bf2f84fe80c6badbce3648c8539ad1df4d2b3d822938ca0538be727e6905f90a2505050565b6004805461012590610ebe565b6005805461012590610ebe565b6001805461012590610ebe565b6002805461012590610ebe565b6040518061014001604052806101038152602001611371610103913981565b5f6102b96040805160e08101909152805f81526020015f81526020015f8152602001606081526020016060815260200160608152602001606081525090565b6102df604051806101400160405280610103815260200161137161010391398290610423565b6040805160018082528183019092525f91816020015b60608152602001906001900390816102f557905050905084815f8151811061031f5761031f610ef6565b60209081029190910101526103348282610433565b6103646103408361045c565b85620493e07566756e2d657468657265756d2d7365706f6c69612d3160501b610720565b60035560016103738682610f55565b50600354925050505b92915050565b82600354146103ab5760405163d068bf5b60e01b81526004810184905260240160405180910390fd5b60056103b78282610f55565b5060046103c48382610f55565b5060026103d18382610f55565b505f6103de600182611012565b50827f160ed0aaffbef6885155188b91459cb5a97d5daadccf7561d8c46deea6641b506002600460056040516104169392919061115d565b60405180910390a2505050565b61042f825f5f846107ed565b5050565b80515f036104545760405163fe936cb760e01b815260040160405180910390fd5b60a090910152565b60605f61046a61010061086a565b90506104a36040518060400160405280600c81526020016b31b7b232a637b1b0ba34b7b760a11b8152508261088a90919063ffffffff16565b82516104c19060028111156104ba576104ba61119f565b82906108a8565b6040805180820190915260088152676c616e677561676560c01b60208201526104eb90829061088a565b60408301516105029080156104ba576104ba61119f565b604080518082019091526006815265736f7572636560d01b602082015261052a90829061088a565b606083015161053a90829061088a565b60a083015151156105c5576040805180820190915260048152636172677360e01b602082015261056b90829061088a565b610574816108e1565b5f5b8360a00151518110156105bb576105b38460a00151828151811061059c5761059c610ef6565b60200260200101518361088a90919063ffffffff16565b600101610576565b506105c581610905565b60808301515115610688575f836020015160028111156105e7576105e761119f565b036106055760405163a80d31f760e01b815260040160405180910390fd5b60408051808201909152600f81526e39b2b1b932ba39a637b1b0ba34b7b760891b602082015261063690829061088a565b61064f836020015160028111156104ba576104ba61119f565b6040805180820190915260078152667365637265747360c81b602082015261067890829061088a565b6080830151610688908290610923565b60c083015151156107185760408051808201909152600981526862797465734172677360b81b60208201526106be90829061088a565b6106c7816108e1565b5f5b8360c001515181101561070e576107068460c0015182815181106106ef576106ef610ef6565b60200260200101518361092390919063ffffffff16565b6001016106c9565b5061071881610905565b515192915050565b5f5f7f00000000000000000000000000000000000000000000000000000000000000006001600160a01b031663461d27628688600188886040518663ffffffff1660e01b81526004016107779594939291906111b3565b6020604051808303815f875af1158015610793573d5f5f3e3d5ffd5b505050506040513d601f19601f820116820180604052508101906107b791906111fb565b60405190915081907f1131472297a800fee664d1d89cfa8f7676ff07189ecc53f80bbb5f4969099db8905f90a295945050505050565b80515f0361080e576040516322ce3edd60e01b815260040160405180910390fd5b838360028111156108215761082161119f565b908160028111156108345761083461119f565b9052506040840182801561084a5761084a61119f565b9081801561085a5761085a61119f565b9052506060909301929092525050565b610872610ccd565b805161087e9083610930565b505f6020820152919050565b61089782600383516109a4565b81516108a39082610ac3565b505050565b81516108b59060c2610aea565b5061042f82826040516020016108cd91815260200190565b604051602081830303815290604052610923565b6108ec816004610b51565b6001816020018181516108ff9190611226565b90525050565b610910816007610b51565b6001816020018181516108ff9190611239565b61089782600283516109a4565b60408051808201909152606081525f602082015261094f60208361124c565b156109775761095f60208361124c565b61096a906020611239565b6109749083611226565b91505b60208084018390526040518085525f8152908184010181811015610999575f5ffd5b604052509192915050565b6017816001600160401b0316116109d05782516109ca9060e0600585901b168317610aea565b50505050565b60ff816001600160401b031611610a105782516109f8906018611fe0600586901b1617610aea565b5082516109ca906001600160401b0383166001610b68565b61ffff816001600160401b031611610a51578251610a39906019611fe0600586901b1617610aea565b5082516109ca906001600160401b0383166002610b68565b63ffffffff816001600160401b031611610a94578251610a7c90601a611fe0600586901b1617610aea565b5082516109ca906001600160401b0383166004610b68565b8251610aab90601b611fe0600586901b1617610aea565b5082516109ca906001600160401b0383166008610b68565b60408051808201909152606081525f6020820152610ae383838451610bea565b9392505050565b60408051808201909152606081525f60208201528251515f610b0d826001611226565b905084602001518210610b2e57610b2e85610b2983600261126b565b610cb6565b8451602083820101858153508051821115610b47578181525b5093949350505050565b81516108a390601f611fe0600585901b1617610aea565b60408051808201909152606081525f60208201528351515f610b8a8285611226565b90508560200151811115610ba757610ba786610b2983600261126b565b5f6001610bb686610100611365565b610bc09190611239565b90508651828101878319825116178152508051831115610bde578281525b50959695505050505050565b60408051808201909152606081525f60208201528251821115610c0b575f5ffd5b8351515f610c198483611226565b90508560200151811115610c3657610c3686610b2983600261126b565b85518051838201602001915f9180851115610c4f578482525b505050602086015b60208610610c8f5780518252610c6e602083611226565b9150610c7b602082611226565b9050610c88602087611239565b9550610c57565b5181515f1960208890036101000a0190811690199190911617905250849150509392505050565b8151610cc28383610930565b506109ca8382610ac3565b6040518060400160405280610cf46040518060400160405280606081526020015f81525090565b81526020015f81525090565b5f81518084528060208401602086015e5f602082860101526020601f19601f83011685010191505092915050565b602081525f610ae36020830184610d00565b634e487b7160e01b5f52604160045260245ffd5b5f5f6001600160401b03841115610d6d57610d6d610d40565b50604051601f19601f85018116603f011681018181106001600160401b0382111715610d9b57610d9b610d40565b604052838152905080828401851015610db2575f5ffd5b838360208301375f60208583010152509392505050565b5f82601f830112610dd8575f5ffd5b610ae383833560208501610d54565b5f5f5f60608486031215610df9575f5ffd5b8335925060208401356001600160401b03811115610e15575f5ffd5b610e2186828701610dc9565b92505060408401356001600160401b03811115610e3c575f5ffd5b610e4886828701610dc9565b9150509250925092565b5f5f60408385031215610e63575f5ffd5b82356001600160401b03811115610e78575f5ffd5b8301601f81018513610e88575f5ffd5b610e9785823560208401610d54565b92505060208301356001600160401b0381168114610eb3575f5ffd5b809150509250929050565b600181811c90821680610ed257607f821691505b602082108103610ef057634e487b7160e01b5f52602260045260245ffd5b50919050565b634e487b7160e01b5f52603260045260245ffd5b601f8211156108a357805f5260205f20601f840160051c81016020851015610f2f5750805b601f840160051c820191505b81811015610f4e575f8155600101610f3b565b5050505050565b81516001600160401b03811115610f6e57610f6e610d40565b610f8281610f7c8454610ebe565b84610f0a565b6020601f821160018114610fb7575f8315610f9d5750848201515b600184901b5f19600386901b1c198216175b855550610f4e565b5f84815260208120601f198516915b82811015610fe65787850151825560209485019460019092019101610fc6565b508482101561100357868401515f19600387901b60f8161c191681555b50505050600190811b01905550565b81810361101d575050565b6110278254610ebe565b6001600160401b0381111561103e5761103e610d40565b61104c81610f7c8454610ebe565b5f601f82116001811461107b575f8315610f9d575081850154600184901b5f19600386901b1c19821617610faf565b5f8581526020808220868352908220601f198616925b838110156110b15782860154825560019586019590910190602001611091565b50858310156110ce57818501545f19600388901b60f8161c191681555b5050505050600190811b01905550565b5f81546110ea81610ebe565b808552600182168015611104576001811461112057611154565b60ff1983166020870152602082151560051b8701019350611154565b845f5260205f205f5b8381101561114b5781546020828a010152600182019150602081019050611129565b87016020019450505b50505092915050565b606081525f61116f60608301866110de565b828103602084015261118181866110de565b9050828103604084015261119581856110de565b9695505050505050565b634e487b7160e01b5f52602160045260245ffd5b6001600160401b038616815260a060208201525f6111d460a0830187610d00565b61ffff9590951660408301525063ffffffff92909216606083015260809091015292915050565b5f6020828403121561120b575f5ffd5b5051919050565b634e487b7160e01b5f52601160045260245ffd5b8082018082111561037c5761037c611212565b8181038181111561037c5761037c611212565b5f8261126657634e487b7160e01b5f52601260045260245ffd5b500690565b808202811582820484141761037c5761037c611212565b6001815b60018411156112bd578085048111156112a1576112a1611212565b60018416156112af57908102905b60019390931c928002611286565b935093915050565b5f826112d35750600161037c565b816112df57505f61037c565b81600181146112f557600281146112ff5761131b565b600191505061037c565b60ff84111561131057611310611212565b50506001821b61037c565b5060208310610133831016604e8410600b841016171561133e575081810a61037c565b61134a5f198484611282565b805f190482111561135d5761135d611212565b029392505050565b5f610ae383836112c556fe636f6e73742063697479203d20617267735b305d3b636f6e737420617069526573706f6e7365203d2061776169742046756e6374696f6e732e6d616b654874747052657175657374287b75726c3a206068747470733a2f2f777474722e696e2f247b636974797d3f666f726d61743d33266d602c726573706f6e7365547970653a202774657874277d293b69662028617069526573706f6e73652e6572726f7229207b7468726f77204572726f72282752657175657374206661696c656427293b7d636f6e7374207b2064617461207d203d20617069526573706f6e73653b72657475726e2046756e6374696f6e732e656e636f6465537472696e672864617461293ba2646970667358221220af1a62d82e077f477662d9a800cfee5081167f534bf8095e67d91f1bd123b1bb64736f6c634300081e0033",
			"opcodes": "PUSH1 0xA0 PUSH1 0x40 MSTORE CALLVALUE DUP1 ISZERO PUSH1 0xE JUMPI PUSH0 PUSH0 REVERT JUMPDEST POP PUSH20 0xB83E47C2BC239B3BF370BC41E1459A34B41238D0 PUSH1 0x80 MSTORE PUSH1 0x80 MLOAD PUSH2 0x14A9 PUSH2 0x46 PUSH0 CODECOPY PUSH0 DUP2 DUP2 PUSH2 0x1AF ADD MSTORE PUSH2 0x724 ADD MSTORE PUSH2 0x14A9 PUSH0 RETURN INVALID PUSH1 0x80 PUSH1 0x40 MSTORE CALLVALUE DUP1 ISZERO PUSH2 0xF JUMPI PUSH0 PUSH0 REVERT JUMPDEST POP PUSH1 0x4 CALLDATASIZE LT PUSH2 0x90 JUMPI PUSH0 CALLDATALOAD PUSH1 0xE0 SHR DUP1 PUSH4 0x6E0E7C3B GT PUSH2 0x63 JUMPI DUP1 PUSH4 0x6E0E7C3B EQ PUSH2 0xD7 JUMPI DUP1 PUSH4 0xB1E21749 EQ PUSH2 0xDF JUMPI DUP1 PUSH4 0xD50CBE98 EQ PUSH2 0xF6 JUMPI DUP1 PUSH4 0xF230B4C2 EQ PUSH2 0xFE JUMPI DUP1 PUSH4 0xF343F1E1 EQ PUSH2 0x106 JUMPI PUSH0 PUSH0 REVERT JUMPDEST DUP1 PUSH4 0x845284E EQ PUSH2 0x94 JUMPI DUP1 PUSH4 0xCA76175 EQ PUSH2 0xB2 JUMPI DUP1 PUSH4 0x3944EA3A EQ PUSH2 0xC7 JUMPI DUP1 PUSH4 0x4B0795A8 EQ PUSH2 0xCF JUMPI JUMPDEST PUSH0 PUSH0 REVERT JUMPDEST PUSH2 0x9C PUSH2 0x119 JUMP JUMPDEST PUSH1 0x40 MLOAD PUSH2 0xA9 SWAP2 SWAP1 PUSH2 0xD2E JUMP JUMPDEST PUSH1 0x40 MLOAD DUP1 SWAP2 SUB SWAP1 RETURN JUMPDEST PUSH2 0xC5 PUSH2 0xC0 CALLDATASIZE PUSH1 0x4 PUSH2 0xDE7 JUMP JUMPDEST PUSH2 0x1A4 JUMP JUMPDEST STOP JUMPDEST PUSH2 0x9C PUSH2 0x227 JUMP JUMPDEST PUSH2 0x9C PUSH2 0x234 JUMP JUMPDEST PUSH2 0x9C PUSH2 0x241 JUMP JUMPDEST PUSH2 0xE8 PUSH1 0x3 SLOAD DUP2 JUMP JUMPDEST PUSH1 0x40 MLOAD SWAP1 DUP2 MSTORE PUSH1 0x20 ADD PUSH2 0xA9 JUMP JUMPDEST PUSH2 0x9C PUSH2 0x24E JUMP JUMPDEST PUSH2 0x9C PUSH2 0x25B JUMP JUMPDEST PUSH2 0xE8 PUSH2 0x114 CALLDATASIZE PUSH1 0x4 PUSH2 0xE52 JUMP JUMPDEST PUSH2 0x27A JUMP JUMPDEST PUSH0 DUP1 SLOAD PUSH2 0x125 SWAP1 PUSH2 0xEBE JUMP JUMPDEST DUP1 PUSH1 0x1F ADD PUSH1 0x20 DUP1 SWAP2 DIV MUL PUSH1 0x20 ADD PUSH1 0x40 MLOAD SWAP1 DUP2 ADD PUSH1 0x40 MSTORE DUP1 SWAP3 SWAP2 SWAP1 DUP2 DUP2 MSTORE PUSH1 0x20 ADD DUP3 DUP1 SLOAD PUSH2 0x151 SWAP1 PUSH2 0xEBE JUMP JUMPDEST DUP1 ISZERO PUSH2 0x19C JUMPI DUP1 PUSH1 0x1F LT PUSH2 0x173 JUMPI PUSH2 0x100 DUP1 DUP4 SLOAD DIV MUL DUP4 MSTORE SWAP2 PUSH1 0x20 ADD SWAP2 PUSH2 0x19C JUMP JUMPDEST DUP3 ADD SWAP2 SWAP1 PUSH0 MSTORE PUSH1 0x20 PUSH0 KECCAK256 SWAP1 JUMPDEST DUP2 SLOAD DUP2 MSTORE SWAP1 PUSH1 0x1 ADD SWAP1 PUSH1 0x20 ADD DUP1 DUP4 GT PUSH2 0x17F JUMPI DUP3 SWAP1 SUB PUSH1 0x1F AND DUP3 ADD SWAP2 JUMPDEST POP POP POP POP POP DUP2 JUMP JUMPDEST CALLER PUSH1 0x1 PUSH1 0x1 PUSH1 0xA0 SHL SUB PUSH32 0x0 AND EQ PUSH2 0x1ED JUMPI PUSH1 0x40 MLOAD PUSH4 0xC6829F83 PUSH1 0xE0 SHL DUP2 MSTORE PUSH1 0x4 ADD PUSH1 0x40 MLOAD DUP1 SWAP2 SUB SWAP1 REVERT JUMPDEST PUSH2 0x1F8 DUP4 DUP4 DUP4 PUSH2 0x382 JUMP JUMPDEST PUSH1 0x40 MLOAD DUP4 SWAP1 PUSH32 0x85E1543BF2F84FE80C6BADBCE3648C8539AD1DF4D2B3D822938CA0538BE727E6 SWAP1 PUSH0 SWAP1 LOG2 POP POP POP JUMP JUMPDEST PUSH1 0x4 DUP1 SLOAD PUSH2 0x125 SWAP1 PUSH2 0xEBE JUMP JUMPDEST PUSH1 0x5 DUP1 SLOAD PUSH2 0x125 SWAP1 PUSH2 0xEBE JUMP JUMPDEST PUSH1 0x1 DUP1 SLOAD PUSH2 0x125 SWAP1 PUSH2 0xEBE JUMP JUMPDEST PUSH1 0x2 DUP1 SLOAD PUSH2 0x125 SWAP1 PUSH2 0xEBE JUMP JUMPDEST PUSH1 0x40 MLOAD DUP1 PUSH2 0x140 ADD PUSH1 0x40 MSTORE DUP1 PUSH2 0x103 DUP2 MSTORE PUSH1 0x20 ADD PUSH2 0x1371 PUSH2 0x103 SWAP2 CODECOPY DUP2 JUMP JUMPDEST PUSH0 PUSH2 0x2B9 PUSH1 0x40 DUP1 MLOAD PUSH1 0xE0 DUP2 ADD SWAP1 SWAP2 MSTORE DUP1 PUSH0 DUP2 MSTORE PUSH1 0x20 ADD PUSH0 DUP2 MSTORE PUSH1 0x20 ADD PUSH0 DUP2 MSTORE PUSH1 0x20 ADD PUSH1 0x60 DUP2 MSTORE PUSH1 0x20 ADD PUSH1 0x60 DUP2 MSTORE PUSH1 0x20 ADD PUSH1 0x60 DUP2 MSTORE PUSH1 0x20 ADD PUSH1 0x60 DUP2 MSTORE POP SWAP1 JUMP JUMPDEST PUSH2 0x2DF PUSH1 0x40 MLOAD DUP1 PUSH2 0x140 ADD PUSH1 0x40 MSTORE DUP1 PUSH2 0x103 DUP2 MSTORE PUSH1 0x20 ADD PUSH2 0x1371 PUSH2 0x103 SWAP2 CODECOPY DUP3 SWAP1 PUSH2 0x423 JUMP JUMPDEST PUSH1 0x40 DUP1 MLOAD PUSH1 0x1 DUP1 DUP3 MSTORE DUP2 DUP4 ADD SWAP1 SWAP3 MSTORE PUSH0 SWAP2 DUP2 PUSH1 0x20 ADD JUMPDEST PUSH1 0x60 DUP2 MSTORE PUSH1 0x20 ADD SWAP1 PUSH1 0x1 SWAP1 SUB SWAP1 DUP2 PUSH2 0x2F5 JUMPI SWAP1 POP POP SWAP1 POP DUP5 DUP2 PUSH0 DUP2 MLOAD DUP2 LT PUSH2 0x31F JUMPI PUSH2 0x31F PUSH2 0xEF6 JUMP JUMPDEST PUSH1 0x20 SWAP1 DUP2 MUL SWAP2 SWAP1 SWAP2 ADD ADD MSTORE PUSH2 0x334 DUP3 DUP3 PUSH2 0x433 JUMP JUMPDEST PUSH2 0x364 PUSH2 0x340 DUP4 PUSH2 0x45C JUMP JUMPDEST DUP6 PUSH3 0x493E0 PUSH22 0x66756E2D657468657265756D2D7365706F6C69612D31 PUSH1 0x50 SHL PUSH2 0x720 JUMP JUMPDEST PUSH1 0x3 SSTORE PUSH1 0x1 PUSH2 0x373 DUP7 DUP3 PUSH2 0xF55 JUMP JUMPDEST POP PUSH1 0x3 SLOAD SWAP3 POP POP POP JUMPDEST SWAP3 SWAP2 POP POP JUMP JUMPDEST DUP3 PUSH1 0x3 SLOAD EQ PUSH2 0x3AB JUMPI PUSH1 0x40 MLOAD PUSH4 0xD068BF5B PUSH1 0xE0 SHL DUP2 MSTORE PUSH1 0x4 DUP2 ADD DUP5 SWAP1 MSTORE PUSH1 0x24 ADD PUSH1 0x40 MLOAD DUP1 SWAP2 SUB SWAP1 REVERT JUMPDEST PUSH1 0x5 PUSH2 0x3B7 DUP3 DUP3 PUSH2 0xF55 JUMP JUMPDEST POP PUSH1 0x4 PUSH2 0x3C4 DUP4 DUP3 PUSH2 0xF55 JUMP JUMPDEST POP PUSH1 0x2 PUSH2 0x3D1 DUP4 DUP3 PUSH2 0xF55 JUMP JUMPDEST POP PUSH0 PUSH2 0x3DE PUSH1 0x1 DUP3 PUSH2 0x1012 JUMP JUMPDEST POP DUP3 PUSH32 0x160ED0AAFFBEF6885155188B91459CB5A97D5DAADCCF7561D8C46DEEA6641B50 PUSH1 0x2 PUSH1 0x4 PUSH1 0x5 PUSH1 0x40 MLOAD PUSH2 0x416 SWAP4 SWAP3 SWAP2 SWAP1 PUSH2 0x115D JUMP JUMPDEST PUSH1 0x40 MLOAD DUP1 SWAP2 SUB SWAP1 LOG2 POP POP POP JUMP JUMPDEST PUSH2 0x42F DUP3 PUSH0 PUSH0 DUP5 PUSH2 0x7ED JUMP JUMPDEST POP POP JUMP JUMPDEST DUP1 MLOAD PUSH0 SUB PUSH2 0x454 JUMPI PUSH1 0x40 MLOAD PUSH4 0xFE936CB7 PUSH1 0xE0 SHL DUP2 MSTORE PUSH1 0x4 ADD PUSH1 0x40 MLOAD DUP1 SWAP2 SUB SWAP1 REVERT JUMPDEST PUSH1 0xA0 SWAP1 SWAP2 ADD MSTORE JUMP JUMPDEST PUSH1 0x60 PUSH0 PUSH2 0x46A PUSH2 0x100 PUSH2 0x86A JUMP JUMPDEST SWAP1 POP PUSH2 0x4A3 PUSH1 0x40 MLOAD DUP1 PUSH1 0x40 ADD PUSH1 0x40 MSTORE DUP1 PUSH1 0xC DUP2 MSTORE PUSH1 0x20 ADD PUSH12 0x31B7B232A637B1B0BA34B7B7 PUSH1 0xA1 SHL DUP2 MSTORE POP DUP3 PUSH2 0x88A SWAP1 SWAP2 SWAP1 PUSH4 0xFFFFFFFF AND JUMP JUMPDEST DUP3 MLOAD PUSH2 0x4C1 SWAP1 PUSH1 0x2 DUP2 GT ISZERO PUSH2 0x4BA JUMPI PUSH2 0x4BA PUSH2 0x119F JUMP JUMPDEST DUP3 SWAP1 PUSH2 0x8A8 JUMP JUMPDEST PUSH1 0x40 DUP1 MLOAD DUP1 DUP3 ADD SWAP1 SWAP2 MSTORE PUSH1 0x8 DUP2 MSTORE PUSH8 0x6C616E6775616765 PUSH1 0xC0 SHL PUSH1 0x20 DUP3 ADD MSTORE PUSH2 0x4EB SWAP1 DUP3 SWAP1 PUSH2 0x88A JUMP JUMPDEST PUSH1 0x40 DUP4 ADD MLOAD PUSH2 0x502 SWAP1 DUP1 ISZERO PUSH2 0x4BA JUMPI PUSH2 0x4BA PUSH2 0x119F JUMP JUMPDEST PUSH1 0x40 DUP1 MLOAD DUP1 DUP3 ADD SWAP1 SWAP2 MSTORE PUSH1 0x6 DUP2 MSTORE PUSH6 0x736F75726365 PUSH1 0xD0 SHL PUSH1 0x20 DUP3 ADD MSTORE PUSH2 0x52A SWAP1 DUP3 SWAP1 PUSH2 0x88A JUMP JUMPDEST PUSH1 0x60 DUP4 ADD MLOAD PUSH2 0x53A SWAP1 DUP3 SWAP1 PUSH2 0x88A JUMP JUMPDEST PUSH1 0xA0 DUP4 ADD MLOAD MLOAD ISZERO PUSH2 0x5C5 JUMPI PUSH1 0x40 DUP1 MLOAD DUP1 DUP3 ADD SWAP1 SWAP2 MSTORE PUSH1 0x4 DUP2 MSTORE PUSH4 0x61726773 PUSH1 0xE0 SHL PUSH1 0x20 DUP3 ADD MSTORE PUSH2 0x56B SWAP1 DUP3 SWAP1 PUSH2 0x88A JUMP JUMPDEST PUSH2 0x574 DUP2 PUSH2 0x8E1 JUMP JUMPDEST PUSH0 JUMPDEST DUP4 PUSH1 0xA0 ADD MLOAD MLOAD DUP2 LT ISZERO PUSH2 0x5BB JUMPI PUSH2 0x5B3 DUP5 PUSH1 0xA0 ADD MLOAD DUP3 DUP2 MLOAD DUP2 LT PUSH2 0x59C JUMPI PUSH2 0x59C PUSH2 0xEF6 JUMP JUMPDEST PUSH1 0x20 MUL PUSH1 0x20 ADD ADD MLOAD DUP4 PUSH2 0x88A SWAP1 SWAP2 SWAP1 PUSH4 0xFFFFFFFF AND JUMP JUMPDEST PUSH1 0x1 ADD PUSH2 0x576 JUMP JUMPDEST POP PUSH2 0x5C5 DUP2 PUSH2 0x905 JUMP JUMPDEST PUSH1 0x80 DUP4 ADD MLOAD MLOAD ISZERO PUSH2 0x688 JUMPI PUSH0 DUP4 PUSH1 0x20 ADD MLOAD PUSH1 0x2 DUP2 GT ISZERO PUSH2 0x5E7 JUMPI PUSH2 0x5E7 PUSH2 0x119F JUMP JUMPDEST SUB PUSH2 0x605 JUMPI PUSH1 0x40 MLOAD PUSH4 0xA80D31F7 PUSH1 0xE0 SHL DUP2 MSTORE PUSH1 0x4 ADD PUSH1 0x40 MLOAD DUP1 SWAP2 SUB SWAP1 REVERT JUMPDEST PUSH1 0x40 DUP1 MLOAD DUP1 DUP3 ADD SWAP1 SWAP2 MSTORE PUSH1 0xF DUP2 MSTORE PUSH15 0x39B2B1B932BA39A637B1B0BA34B7B7 PUSH1 0x89 SHL PUSH1 0x20 DUP3 ADD MSTORE PUSH2 0x636 SWAP1 DUP3 SWAP1 PUSH2 0x88A JUMP JUMPDEST PUSH2 0x64F DUP4 PUSH1 0x20 ADD MLOAD PUSH1 0x2 DUP2 GT ISZERO PUSH2 0x4BA JUMPI PUSH2 0x4BA PUSH2 0x119F JUMP JUMPDEST PUSH1 0x40 DUP1 MLOAD DUP1 DUP3 ADD SWAP1 SWAP2 MSTORE PUSH1 0x7 DUP2 MSTORE PUSH7 0x73656372657473 PUSH1 0xC8 SHL PUSH1 0x20 DUP3 ADD MSTORE PUSH2 0x678 SWAP1 DUP3 SWAP1 PUSH2 0x88A JUMP JUMPDEST PUSH1 0x80 DUP4 ADD MLOAD PUSH2 0x688 SWAP1 DUP3 SWAP1 PUSH2 0x923 JUMP JUMPDEST PUSH1 0xC0 DUP4 ADD MLOAD MLOAD ISZERO PUSH2 0x718 JUMPI PUSH1 0x40 DUP1 MLOAD DUP1 DUP3 ADD SWAP1 SWAP2 MSTORE PUSH1 0x9 DUP2 MSTORE PUSH9 0x627974657341726773 PUSH1 0xB8 SHL PUSH1 0x20 DUP3 ADD MSTORE PUSH2 0x6BE SWAP1 DUP3 SWAP1 PUSH2 0x88A JUMP JUMPDEST PUSH2 0x6C7 DUP2 PUSH2 0x8E1 JUMP JUMPDEST PUSH0 JUMPDEST DUP4 PUSH1 0xC0 ADD MLOAD MLOAD DUP2 LT ISZERO PUSH2 0x70E JUMPI PUSH2 0x706 DUP5 PUSH1 0xC0 ADD MLOAD DUP3 DUP2 MLOAD DUP2 LT PUSH2 0x6EF JUMPI PUSH2 0x6EF PUSH2 0xEF6 JUMP JUMPDEST PUSH1 0x20 MUL PUSH1 0x20 ADD ADD MLOAD DUP4 PUSH2 0x923 SWAP1 SWAP2 SWAP1 PUSH4 0xFFFFFFFF AND JUMP JUMPDEST PUSH1 0x1 ADD PUSH2 0x6C9 JUMP JUMPDEST POP PUSH2 0x718 DUP2 PUSH2 0x905 JUMP JUMPDEST MLOAD MLOAD SWAP3 SWAP2 POP POP JUMP JUMPDEST PUSH0 PUSH0 PUSH32 0x0 PUSH1 0x1 PUSH1 0x1 PUSH1 0xA0 SHL SUB AND PUSH4 0x461D2762 DUP7 DUP9 PUSH1 0x1 DUP9 DUP9 PUSH1 0x40 MLOAD DUP7 PUSH4 0xFFFFFFFF AND PUSH1 0xE0 SHL DUP2 MSTORE PUSH1 0x4 ADD PUSH2 0x777 SWAP6 SWAP5 SWAP4 SWAP3 SWAP2 SWAP1 PUSH2 0x11B3 JUMP JUMPDEST PUSH1 0x20 PUSH1 0x40 MLOAD DUP1 DUP4 SUB DUP2 PUSH0 DUP8 GAS CALL ISZERO DUP1 ISZERO PUSH2 0x793 JUMPI RETURNDATASIZE PUSH0 PUSH0 RETURNDATACOPY RETURNDATASIZE PUSH0 REVERT JUMPDEST POP POP POP POP PUSH1 0x40 MLOAD RETURNDATASIZE PUSH1 0x1F NOT PUSH1 0x1F DUP3 ADD AND DUP3 ADD DUP1 PUSH1 0x40 MSTORE POP DUP2 ADD SWAP1 PUSH2 0x7B7 SWAP2 SWAP1 PUSH2 0x11FB JUMP JUMPDEST PUSH1 0x40 MLOAD SWAP1 SWAP2 POP DUP2 SWAP1 PUSH32 0x1131472297A800FEE664D1D89CFA8F7676FF07189ECC53F80BBB5F4969099DB8 SWAP1 PUSH0 SWAP1 LOG2 SWAP6 SWAP5 POP POP POP POP POP JUMP JUMPDEST DUP1 MLOAD PUSH0 SUB PUSH2 0x80E JUMPI PUSH1 0x40 MLOAD PUSH4 0x22CE3EDD PUSH1 0xE0 SHL DUP2 MSTORE PUSH1 0x4 ADD PUSH1 0x40 MLOAD DUP1 SWAP2 SUB SWAP1 REVERT JUMPDEST DUP4 DUP4 PUSH1 0x2 DUP2 GT ISZERO PUSH2 0x821 JUMPI PUSH2 0x821 PUSH2 0x119F JUMP JUMPDEST SWAP1 DUP2 PUSH1 0x2 DUP2 GT ISZERO PUSH2 0x834 JUMPI PUSH2 0x834 PUSH2 0x119F JUMP JUMPDEST SWAP1 MSTORE POP PUSH1 0x40 DUP5 ADD DUP3 DUP1 ISZERO PUSH2 0x84A JUMPI PUSH2 0x84A PUSH2 0x119F JUMP JUMPDEST SWAP1 DUP2 DUP1 ISZERO PUSH2 0x85A JUMPI PUSH2 0x85A PUSH2 0x119F JUMP JUMPDEST SWAP1 MSTORE POP PUSH1 0x60 SWAP1 SWAP4 ADD SWAP3 SWAP1 SWAP3 MSTORE POP POP JUMP JUMPDEST PUSH2 0x872 PUSH2 0xCCD JUMP JUMPDEST DUP1 MLOAD PUSH2 0x87E SWAP1 DUP4 PUSH2 0x930 JUMP JUMPDEST POP PUSH0 PUSH1 0x20 DUP3 ADD MSTORE SWAP2 SWAP1 POP JUMP JUMPDEST PUSH2 0x897 DUP3 PUSH1 0x3 DUP4 MLOAD PUSH2 0x9A4 JUMP JUMPDEST DUP2 MLOAD PUSH2 0x8A3 SWAP1 DUP3 PUSH2 0xAC3 JUMP JUMPDEST POP POP POP JUMP JUMPDEST DUP2 MLOAD PUSH2 0x8B5 SWAP1 PUSH1 0xC2 PUSH2 0xAEA JUMP JUMPDEST POP PUSH2 0x42F DUP3 DUP3 PUSH1 0x40 MLOAD PUSH1 0x20 ADD PUSH2 0x8CD SWAP2 DUP2 MSTORE PUSH1 0x20 ADD SWAP1 JUMP JUMPDEST PUSH1 0x40 MLOAD PUSH1 0x20 DUP2 DUP4 SUB SUB DUP2 MSTORE SWAP1 PUSH1 0x40 MSTORE PUSH2 0x923 JUMP JUMPDEST PUSH2 0x8EC DUP2 PUSH1 0x4 PUSH2 0xB51 JUMP JUMPDEST PUSH1 0x1 DUP2 PUSH1 0x20 ADD DUP2 DUP2 MLOAD PUSH2 0x8FF SWAP2 SWAP1 PUSH2 0x1226 JUMP JUMPDEST SWAP1 MSTORE POP POP JUMP JUMPDEST PUSH2 0x910 DUP2 PUSH1 0x7 PUSH2 0xB51 JUMP JUMPDEST PUSH1 0x1 DUP2 PUSH1 0x20 ADD DUP2 DUP2 MLOAD PUSH2 0x8FF SWAP2 SWAP1 PUSH2 0x1239 JUMP JUMPDEST PUSH2 0x897 DUP3 PUSH1 0x2 DUP4 MLOAD PUSH2 0x9A4 JUMP JUMPDEST PUSH1 0x40 DUP1 MLOAD DUP1 DUP3 ADD SWAP1 SWAP2 MSTORE PUSH1 0x60 DUP2 MSTORE PUSH0 PUSH1 0x20 DUP3 ADD MSTORE PUSH2 0x94F PUSH1 0x20 DUP4 PUSH2 0x124C JUMP JUMPDEST ISZERO PUSH2 0x977 JUMPI PUSH2 0x95F PUSH1 0x20 DUP4 PUSH2 0x124C JUMP JUMPDEST PUSH2 0x96A SWAP1 PUSH1 0x20 PUSH2 0x1239 JUMP JUMPDEST PUSH2 0x974 SWAP1 DUP4 PUSH2 0x1226 JUMP JUMPDEST SWAP2 POP JUMPDEST PUSH1 0x20 DUP1 DUP5 ADD DUP4 SWAP1 MSTORE PUSH1 0x40 MLOAD DUP1 DUP6 MSTORE PUSH0 DUP2 MSTORE SWAP1 DUP2 DUP5 ADD ADD DUP2 DUP2 LT ISZERO PUSH2 0x999 JUMPI PUSH0 PUSH0 REVERT JUMPDEST PUSH1 0x40 MSTORE POP SWAP2 SWAP3 SWAP2 POP POP JUMP JUMPDEST PUSH1 0x17 DUP2 PUSH1 0x1 PUSH1 0x1 PUSH1 0x40 SHL SUB AND GT PUSH2 0x9D0 JUMPI DUP3 MLOAD PUSH2 0x9CA SWAP1 PUSH1 0xE0 PUSH1 0x5 DUP6 SWAP1 SHL AND DUP4 OR PUSH2 0xAEA JUMP JUMPDEST POP POP POP POP JUMP JUMPDEST PUSH1 0xFF DUP2 PUSH1 0x1 PUSH1 0x1 PUSH1 0x40 SHL SUB AND GT PUSH2 0xA10 JUMPI DUP3 MLOAD PUSH2 0x9F8 SWAP1 PUSH1 0x18 PUSH2 0x1FE0 PUSH1 0x5 DUP7 SWAP1 SHL AND OR PUSH2 0xAEA JUMP JUMPDEST POP DUP3 MLOAD PUSH2 0x9CA SWAP1 PUSH1 0x1 PUSH1 0x1 PUSH1 0x40 SHL SUB DUP4 AND PUSH1 0x1 PUSH2 0xB68 JUMP JUMPDEST PUSH2 0xFFFF DUP2 PUSH1 0x1 PUSH1 0x1 PUSH1 0x40 SHL SUB AND GT PUSH2 0xA51 JUMPI DUP3 MLOAD PUSH2 0xA39 SWAP1 PUSH1 0x19 PUSH2 0x1FE0 PUSH1 0x5 DUP7 SWAP1 SHL AND OR PUSH2 0xAEA JUMP JUMPDEST POP DUP3 MLOAD PUSH2 0x9CA SWAP1 PUSH1 0x1 PUSH1 0x1 PUSH1 0x40 SHL SUB DUP4 AND PUSH1 0x2 PUSH2 0xB68 JUMP JUMPDEST PUSH4 0xFFFFFFFF DUP2 PUSH1 0x1 PUSH1 0x1 PUSH1 0x40 SHL SUB AND GT PUSH2 0xA94 JUMPI DUP3 MLOAD PUSH2 0xA7C SWAP1 PUSH1 0x1A PUSH2 0x1FE0 PUSH1 0x5 DUP7 SWAP1 SHL AND OR PUSH2 0xAEA JUMP JUMPDEST POP DUP3 MLOAD PUSH2 0x9CA SWAP1 PUSH1 0x1 PUSH1 0x1 PUSH1 0x40 SHL SUB DUP4 AND PUSH1 0x4 PUSH2 0xB68 JUMP JUMPDEST DUP3 MLOAD PUSH2 0xAAB SWAP1 PUSH1 0x1B PUSH2 0x1FE0 PUSH1 0x5 DUP7 SWAP1 SHL AND OR PUSH2 0xAEA JUMP JUMPDEST POP DUP3 MLOAD PUSH2 0x9CA SWAP1 PUSH1 0x1 PUSH1 0x1 PUSH1 0x40 SHL SUB DUP4 AND PUSH1 0x8 PUSH2 0xB68 JUMP JUMPDEST PUSH1 0x40 DUP1 MLOAD DUP1 DUP3 ADD SWAP1 SWAP2 MSTORE PUSH1 0x60 DUP2 MSTORE PUSH0 PUSH1 0x20 DUP3 ADD MSTORE PUSH2 0xAE3 DUP4 DUP4 DUP5 MLOAD PUSH2 0xBEA JUMP JUMPDEST SWAP4 SWAP3 POP POP POP JUMP JUMPDEST PUSH1 0x40 DUP1 MLOAD DUP1 DUP3 ADD SWAP1 SWAP2 MSTORE PUSH1 0x60 DUP2 MSTORE PUSH0 PUSH1 0x20 DUP3 ADD MSTORE DUP3 MLOAD MLOAD PUSH0 PUSH2 0xB0D DUP3 PUSH1 0x1 PUSH2 0x1226 JUMP JUMPDEST SWAP1 POP DUP5 PUSH1 0x20 ADD MLOAD DUP3 LT PUSH2 0xB2E JUMPI PUSH2 0xB2E DUP6 PUSH2 0xB29 DUP4 PUSH1 0x2 PUSH2 0x126B JUMP JUMPDEST PUSH2 0xCB6 JUMP JUMPDEST DUP5 MLOAD PUSH1 0x20 DUP4 DUP3 ADD ADD DUP6 DUP2 MSTORE8 POP DUP1 MLOAD DUP3 GT ISZERO PUSH2 0xB47 JUMPI DUP2 DUP2 MSTORE JUMPDEST POP SWAP4 SWAP5 SWAP4 POP POP POP POP JUMP JUMPDEST DUP2 MLOAD PUSH2 0x8A3 SWAP1 PUSH1 0x1F PUSH2 0x1FE0 PUSH1 0x5 DUP6 SWAP1 SHL AND OR PUSH2 0xAEA JUMP JUMPDEST PUSH1 0x40 DUP1 MLOAD DUP1 DUP3 ADD SWAP1 SWAP2 MSTORE PUSH1 0x60 DUP2 MSTORE PUSH0 PUSH1 0x20 DUP3 ADD MSTORE DUP4 MLOAD MLOAD PUSH0 PUSH2 0xB8A DUP3 DUP6 PUSH2 0x1226 JUMP JUMPDEST SWAP1 POP DUP6 PUSH1 0x20 ADD MLOAD DUP2 GT ISZERO PUSH2 0xBA7 JUMPI PUSH2 0xBA7 DUP7 PUSH2 0xB29 DUP4 PUSH1 0x2 PUSH2 0x126B JUMP JUMPDEST PUSH0 PUSH1 0x1 PUSH2 0xBB6 DUP7 PUSH2 0x100 PUSH2 0x1365 JUMP JUMPDEST PUSH2 0xBC0 SWAP2 SWAP1 PUSH2 0x1239 JUMP JUMPDEST SWAP1 POP DUP7 MLOAD DUP3 DUP2 ADD DUP8 DUP4 NOT DUP3 MLOAD AND OR DUP2 MSTORE POP DUP1 MLOAD DUP4 GT ISZERO PUSH2 0xBDE JUMPI DUP3 DUP2 MSTORE JUMPDEST POP SWAP6 SWAP7 SWAP6 POP POP POP POP POP POP JUMP JUMPDEST PUSH1 0x40 DUP1 MLOAD DUP1 DUP3 ADD SWAP1 SWAP2 MSTORE PUSH1 0x60 DUP2 MSTORE PUSH0 PUSH1 0x20 DUP3 ADD MSTORE DUP3 MLOAD DUP3 GT ISZERO PUSH2 0xC0B JUMPI PUSH0 PUSH0 REVERT JUMPDEST DUP4 MLOAD MLOAD PUSH0 PUSH2 0xC19 DUP5 DUP4 PUSH2 0x1226 JUMP JUMPDEST SWAP1 POP DUP6 PUSH1 0x20 ADD MLOAD DUP2 GT ISZERO PUSH2 0xC36 JUMPI PUSH2 0xC36 DUP7 PUSH2 0xB29 DUP4 PUSH1 0x2 PUSH2 0x126B JUMP JUMPDEST DUP6 MLOAD DUP1 MLOAD DUP4 DUP3 ADD PUSH1 0x20 ADD SWAP2 PUSH0 SWAP2 DUP1 DUP6 GT ISZERO PUSH2 0xC4F JUMPI DUP5 DUP3 MSTORE JUMPDEST POP POP POP PUSH1 0x20 DUP7 ADD JUMPDEST PUSH1 0x20 DUP7 LT PUSH2 0xC8F JUMPI DUP1 MLOAD DUP3 MSTORE PUSH2 0xC6E PUSH1 0x20 DUP4 PUSH2 0x1226 JUMP JUMPDEST SWAP2 POP PUSH2 0xC7B PUSH1 0x20 DUP3 PUSH2 0x1226 JUMP JUMPDEST SWAP1 POP PUSH2 0xC88 PUSH1 0x20 DUP8 PUSH2 0x1239 JUMP JUMPDEST SWAP6 POP PUSH2 0xC57 JUMP JUMPDEST MLOAD DUP2 MLOAD PUSH0 NOT PUSH1 0x20 DUP9 SWAP1 SUB PUSH2 0x100 EXP ADD SWAP1 DUP2 AND SWAP1 NOT SWAP2 SWAP1 SWAP2 AND OR SWAP1 MSTORE POP DUP5 SWAP2 POP POP SWAP4 SWAP3 POP POP POP JUMP JUMPDEST DUP2 MLOAD PUSH2 0xCC2 DUP4 DUP4 PUSH2 0x930 JUMP JUMPDEST POP PUSH2 0x9CA DUP4 DUP3 PUSH2 0xAC3 JUMP JUMPDEST PUSH1 0x40 MLOAD DUP1 PUSH1 0x40 ADD PUSH1 0x40 MSTORE DUP1 PUSH2 0xCF4 PUSH1 0x40 MLOAD DUP1 PUSH1 0x40 ADD PUSH1 0x40 MSTORE DUP1 PUSH1 0x60 DUP2 MSTORE PUSH1 0x20 ADD PUSH0 DUP2 MSTORE POP SWAP1 JUMP JUMPDEST DUP2 MSTORE PUSH1 0x20 ADD PUSH0 DUP2 MSTORE POP SWAP1 JUMP JUMPDEST PUSH0 DUP2 MLOAD DUP1 DUP5 MSTORE DUP1 PUSH1 0x20 DUP5 ADD PUSH1 0x20 DUP7 ADD MCOPY PUSH0 PUSH1 0x20 DUP3 DUP7 ADD ADD MSTORE PUSH1 0x20 PUSH1 0x1F NOT PUSH1 0x1F DUP4 ADD AND DUP6 ADD ADD SWAP2 POP POP SWAP3 SWAP2 POP POP JUMP JUMPDEST PUSH1 0x20 DUP2 MSTORE PUSH0 PUSH2 0xAE3 PUSH1 0x20 DUP4 ADD DUP5 PUSH2 0xD00 JUMP JUMPDEST PUSH4 0x4E487B71 PUSH1 0xE0 SHL PUSH0 MSTORE PUSH1 0x41 PUSH1 0x4 MSTORE PUSH1 0x24 PUSH0 REVERT JUMPDEST PUSH0 PUSH0 PUSH1 0x1 PUSH1 0x1 PUSH1 0x40 SHL SUB DUP5 GT ISZERO PUSH2 0xD6D JUMPI PUSH2 0xD6D PUSH2 0xD40 JUMP JUMPDEST POP PUSH1 0x40 MLOAD PUSH1 0x1F NOT PUSH1 0x1F DUP6 ADD DUP2 AND PUSH1 0x3F ADD AND DUP2 ADD DUP2 DUP2 LT PUSH1 0x1 PUSH1 0x1 PUSH1 0x40 SHL SUB DUP3 GT OR ISZERO PUSH2 0xD9B JUMPI PUSH2 0xD9B PUSH2 0xD40 JUMP JUMPDEST PUSH1 0x40 MSTORE DUP4 DUP2 MSTORE SWAP1 POP DUP1 DUP3 DUP5 ADD DUP6 LT ISZERO PUSH2 0xDB2 JUMPI PUSH0 PUSH0 REVERT JUMPDEST DUP4 DUP4 PUSH1 0x20 DUP4 ADD CALLDATACOPY PUSH0 PUSH1 0x20 DUP6 DUP4 ADD ADD MSTORE POP SWAP4 SWAP3 POP POP POP JUMP JUMPDEST PUSH0 DUP3 PUSH1 0x1F DUP4 ADD SLT PUSH2 0xDD8 JUMPI PUSH0 PUSH0 REVERT JUMPDEST PUSH2 0xAE3 DUP4 DUP4 CALLDATALOAD PUSH1 0x20 DUP6 ADD PUSH2 0xD54 JUMP JUMPDEST PUSH0 PUSH0 PUSH0 PUSH1 0x60 DUP5 DUP7 SUB SLT ISZERO PUSH2 0xDF9 JUMPI PUSH0 PUSH0 REVERT JUMPDEST DUP4 CALLDATALOAD SWAP3 POP PUSH1 0x20 DUP5 ADD CALLDATALOAD PUSH1 0x1 PUSH1 0x1 PUSH1 0x40 SHL SUB DUP2 GT ISZERO PUSH2 0xE15 JUMPI PUSH0 PUSH0 REVERT JUMPDEST PUSH2 0xE21 DUP7 DUP3 DUP8 ADD PUSH2 0xDC9 JUMP JUMPDEST SWAP3 POP POP PUSH1 0x40 DUP5 ADD CALLDATALOAD PUSH1 0x1 PUSH1 0x1 PUSH1 0x40 SHL SUB DUP2 GT ISZERO PUSH2 0xE3C JUMPI PUSH0 PUSH0 REVERT JUMPDEST PUSH2 0xE48 DUP7 DUP3 DUP8 ADD PUSH2 0xDC9 JUMP JUMPDEST SWAP2 POP POP SWAP3 POP SWAP3 POP SWAP3 JUMP JUMPDEST PUSH0 PUSH0 PUSH1 0x40 DUP4 DUP6 SUB SLT ISZERO PUSH2 0xE63 JUMPI PUSH0 PUSH0 REVERT JUMPDEST DUP3 CALLDATALOAD PUSH1 0x1 PUSH1 0x1 PUSH1 0x40 SHL SUB DUP2 GT ISZERO PUSH2 0xE78 JUMPI PUSH0 PUSH0 REVERT JUMPDEST DUP4 ADD PUSH1 0x1F DUP2 ADD DUP6 SGT PUSH2 0xE88 JUMPI PUSH0 PUSH0 REVERT JUMPDEST PUSH2 0xE97 DUP6 DUP3 CALLDATALOAD PUSH1 0x20 DUP5 ADD PUSH2 0xD54 JUMP JUMPDEST SWAP3 POP POP PUSH1 0x20 DUP4 ADD CALLDATALOAD PUSH1 0x1 PUSH1 0x1 PUSH1 0x40 SHL SUB DUP2 AND DUP2 EQ PUSH2 0xEB3 JUMPI PUSH0 PUSH0 REVERT JUMPDEST DUP1 SWAP2 POP POP SWAP3 POP SWAP3 SWAP1 POP JUMP JUMPDEST PUSH1 0x1 DUP2 DUP2 SHR SWAP1 DUP3 AND DUP1 PUSH2 0xED2 JUMPI PUSH1 0x7F DUP3 AND SWAP2 POP JUMPDEST PUSH1 0x20 DUP3 LT DUP2 SUB PUSH2 0xEF0 JUMPI PUSH4 0x4E487B71 PUSH1 0xE0 SHL PUSH0 MSTORE PUSH1 0x22 PUSH1 0x4 MSTORE PUSH1 0x24 PUSH0 REVERT JUMPDEST POP SWAP2 SWAP1 POP JUMP JUMPDEST PUSH4 0x4E487B71 PUSH1 0xE0 SHL PUSH0 MSTORE PUSH1 0x32 PUSH1 0x4 MSTORE PUSH1 0x24 PUSH0 REVERT JUMPDEST PUSH1 0x1F DUP3 GT ISZERO PUSH2 0x8A3 JUMPI DUP1 PUSH0 MSTORE PUSH1 0x20 PUSH0 KECCAK256 PUSH1 0x1F DUP5 ADD PUSH1 0x5 SHR DUP2 ADD PUSH1 0x20 DUP6 LT ISZERO PUSH2 0xF2F JUMPI POP DUP1 JUMPDEST PUSH1 0x1F DUP5 ADD PUSH1 0x5 SHR DUP3 ADD SWAP2 POP JUMPDEST DUP2 DUP2 LT ISZERO PUSH2 0xF4E JUMPI PUSH0 DUP2 SSTORE PUSH1 0x1 ADD PUSH2 0xF3B JUMP JUMPDEST POP POP POP POP POP JUMP JUMPDEST DUP2 MLOAD PUSH1 0x1 PUSH1 0x1 PUSH1 0x40 SHL SUB DUP2 GT ISZERO PUSH2 0xF6E JUMPI PUSH2 0xF6E PUSH2 0xD40 JUMP JUMPDEST PUSH2 0xF82 DUP2 PUSH2 0xF7C DUP5 SLOAD PUSH2 0xEBE JUMP JUMPDEST DUP5 PUSH2 0xF0A JUMP JUMPDEST PUSH1 0x20 PUSH1 0x1F DUP3 GT PUSH1 0x1 DUP2 EQ PUSH2 0xFB7 JUMPI PUSH0 DUP4 ISZERO PUSH2 0xF9D JUMPI POP DUP5 DUP3 ADD MLOAD JUMPDEST PUSH1 0x1 DUP5 SWAP1 SHL PUSH0 NOT PUSH1 0x3 DUP7 SWAP1 SHL SHR NOT DUP3 AND OR JUMPDEST DUP6 SSTORE POP PUSH2 0xF4E JUMP JUMPDEST PUSH0 DUP5 DUP2 MSTORE PUSH1 0x20 DUP2 KECCAK256 PUSH1 0x1F NOT DUP6 AND SWAP2 JUMPDEST DUP3 DUP2 LT ISZERO PUSH2 0xFE6 JUMPI DUP8 DUP6 ADD MLOAD DUP3 SSTORE PUSH1 0x20 SWAP5 DUP6 ADD SWAP5 PUSH1 0x1 SWAP1 SWAP3 ADD SWAP2 ADD PUSH2 0xFC6 JUMP JUMPDEST POP DUP5 DUP3 LT ISZERO PUSH2 0x1003 JUMPI DUP7 DUP5 ADD MLOAD PUSH0 NOT PUSH1 0x3 DUP8 SWAP1 SHL PUSH1 0xF8 AND SHR NOT AND DUP2 SSTORE JUMPDEST POP POP POP POP PUSH1 0x1 SWAP1 DUP2 SHL ADD SWAP1 SSTORE POP JUMP JUMPDEST DUP2 DUP2 SUB PUSH2 0x101D JUMPI POP POP JUMP JUMPDEST PUSH2 0x1027 DUP3 SLOAD PUSH2 0xEBE JUMP JUMPDEST PUSH1 0x1 PUSH1 0x1 PUSH1 0x40 SHL SUB DUP2 GT ISZERO PUSH2 0x103E JUMPI PUSH2 0x103E PUSH2 0xD40 JUMP JUMPDEST PUSH2 0x104C DUP2 PUSH2 0xF7C DUP5 SLOAD PUSH2 0xEBE JUMP JUMPDEST PUSH0 PUSH1 0x1F DUP3 GT PUSH1 0x1 DUP2 EQ PUSH2 0x107B JUMPI PUSH0 DUP4 ISZERO PUSH2 0xF9D JUMPI POP DUP2 DUP6 ADD SLOAD PUSH1 0x1 DUP5 SWAP1 SHL PUSH0 NOT PUSH1 0x3 DUP7 SWAP1 SHL SHR NOT DUP3 AND OR PUSH2 0xFAF JUMP JUMPDEST PUSH0 DUP6 DUP2 MSTORE PUSH1 0x20 DUP1 DUP3 KECCAK256 DUP7 DUP4 MSTORE SWAP1 DUP3 KECCAK256 PUSH1 0x1F NOT DUP7 AND SWAP3 JUMPDEST DUP4 DUP2 LT ISZERO PUSH2 0x10B1 JUMPI DUP3 DUP7 ADD SLOAD DUP3 SSTORE PUSH1 0x1 SWAP6 DUP7 ADD SWAP6 SWAP1 SWAP2 ADD SWAP1 PUSH1 0x20 ADD PUSH2 0x1091 JUMP JUMPDEST POP DUP6 DUP4 LT ISZERO PUSH2 0x10CE JUMPI DUP2 DUP6 ADD SLOAD PUSH0 NOT PUSH1 0x3 DUP9 SWAP1 SHL PUSH1 0xF8 AND SHR NOT AND DUP2 SSTORE JUMPDEST POP POP POP POP POP PUSH1 0x1 SWAP1 DUP2 SHL ADD SWAP1 SSTORE POP JUMP JUMPDEST PUSH0 DUP2 SLOAD PUSH2 0x10EA DUP2 PUSH2 0xEBE JUMP JUMPDEST DUP1 DUP6 MSTORE PUSH1 0x1 DUP3 AND DUP1 ISZERO PUSH2 0x1104 JUMPI PUSH1 0x1 DUP2 EQ PUSH2 0x1120 JUMPI PUSH2 0x1154 JUMP JUMPDEST PUSH1 0xFF NOT DUP4 AND PUSH1 0x20 DUP8 ADD MSTORE PUSH1 0x20 DUP3 ISZERO ISZERO PUSH1 0x5 SHL DUP8 ADD ADD SWAP4 POP PUSH2 0x1154 JUMP JUMPDEST DUP5 PUSH0 MSTORE PUSH1 0x20 PUSH0 KECCAK256 PUSH0 JUMPDEST DUP4 DUP2 LT ISZERO PUSH2 0x114B JUMPI DUP2 SLOAD PUSH1 0x20 DUP3 DUP11 ADD ADD MSTORE PUSH1 0x1 DUP3 ADD SWAP2 POP PUSH1 0x20 DUP2 ADD SWAP1 POP PUSH2 0x1129 JUMP JUMPDEST DUP8 ADD PUSH1 0x20 ADD SWAP5 POP POP JUMPDEST POP POP POP SWAP3 SWAP2 POP POP JUMP JUMPDEST PUSH1 0x60 DUP2 MSTORE PUSH0 PUSH2 0x116F PUSH1 0x60 DUP4 ADD DUP7 PUSH2 0x10DE JUMP JUMPDEST DUP3 DUP2 SUB PUSH1 0x20 DUP5 ADD MSTORE PUSH2 0x1181 DUP2 DUP7 PUSH2 0x10DE JUMP JUMPDEST SWAP1 POP DUP3 DUP2 SUB PUSH1 0x40 DUP5 ADD MSTORE PUSH2 0x1195 DUP2 DUP6 PUSH2 0x10DE JUMP JUMPDEST SWAP7 SWAP6 POP POP POP POP POP POP JUMP JUMPDEST PUSH4 0x4E487B71 PUSH1 0xE0 SHL PUSH0 MSTORE PUSH1 0x21 PUSH1 0x4 MSTORE PUSH1 0x24 PUSH0 REVERT JUMPDEST PUSH1 0x1 PUSH1 0x1 PUSH1 0x40 SHL SUB DUP7 AND DUP2 MSTORE PUSH1 0xA0 PUSH1 0x20 DUP3 ADD MSTORE PUSH0 PUSH2 0x11D4 PUSH1 0xA0 DUP4 ADD DUP8 PUSH2 0xD00 JUMP JUMPDEST PUSH2 0xFFFF SWAP6 SWAP1 SWAP6 AND PUSH1 0x40 DUP4 ADD MSTORE POP PUSH4 0xFFFFFFFF SWAP3 SWAP1 SWAP3 AND PUSH1 0x60 DUP4 ADD MSTORE PUSH1 0x80 SWAP1 SWAP2 ADD MSTORE SWAP3 SWAP2 POP POP JUMP JUMPDEST PUSH0 PUSH1 0x20 DUP3 DUP5 SUB SLT ISZERO PUSH2 0x120B JUMPI PUSH0 PUSH0 REVERT JUMPDEST POP MLOAD SWAP2 SWAP1 POP JUMP JUMPDEST PUSH4 0x4E487B71 PUSH1 0xE0 SHL PUSH0 MSTORE PUSH1 0x11 PUSH1 0x4 MSTORE PUSH1 0x24 PUSH0 REVERT JUMPDEST DUP1 DUP3 ADD DUP1 DUP3 GT ISZERO PUSH2 0x37C JUMPI PUSH2 0x37C PUSH2 0x1212 JUMP JUMPDEST DUP2 DUP2 SUB DUP2 DUP2 GT ISZERO PUSH2 0x37C JUMPI PUSH2 0x37C PUSH2 0x1212 JUMP JUMPDEST PUSH0 DUP3 PUSH2 0x1266 JUMPI PUSH4 0x4E487B71 PUSH1 0xE0 SHL PUSH0 MSTORE PUSH1 0x12 PUSH1 0x4 MSTORE PUSH1 0x24 PUSH0 REVERT JUMPDEST POP MOD SWAP1 JUMP JUMPDEST DUP1 DUP3 MUL DUP2 ISZERO DUP3 DUP3 DIV DUP5 EQ OR PUSH2 0x37C JUMPI PUSH2 0x37C PUSH2 0x1212 JUMP JUMPDEST PUSH1 0x1 DUP2 JUMPDEST PUSH1 0x1 DUP5 GT ISZERO PUSH2 0x12BD JUMPI DUP1 DUP6 DIV DUP2 GT ISZERO PUSH2 0x12A1 JUMPI PUSH2 0x12A1 PUSH2 0x1212 JUMP JUMPDEST PUSH1 0x1 DUP5 AND ISZERO PUSH2 0x12AF JUMPI SWAP1 DUP2 MUL SWAP1 JUMPDEST PUSH1 0x1 SWAP4 SWAP1 SWAP4 SHR SWAP3 DUP1 MUL PUSH2 0x1286 JUMP JUMPDEST SWAP4 POP SWAP4 SWAP2 POP POP JUMP JUMPDEST PUSH0 DUP3 PUSH2 0x12D3 JUMPI POP PUSH1 0x1 PUSH2 0x37C JUMP JUMPDEST DUP2 PUSH2 0x12DF JUMPI POP PUSH0 PUSH2 0x37C JUMP JUMPDEST DUP2 PUSH1 0x1 DUP2 EQ PUSH2 0x12F5 JUMPI PUSH1 0x2 DUP2 EQ PUSH2 0x12FF JUMPI PUSH2 0x131B JUMP JUMPDEST PUSH1 0x1 SWAP2 POP POP PUSH2 0x37C JUMP JUMPDEST PUSH1 0xFF DUP5 GT ISZERO PUSH2 0x1310 JUMPI PUSH2 0x1310 PUSH2 0x1212 JUMP JUMPDEST POP POP PUSH1 0x1 DUP3 SHL PUSH2 0x37C JUMP JUMPDEST POP PUSH1 0x20 DUP4 LT PUSH2 0x133 DUP4 LT AND PUSH1 0x4E DUP5 LT PUSH1 0xB DUP5 LT AND OR ISZERO PUSH2 0x133E JUMPI POP DUP2 DUP2 EXP PUSH2 0x37C JUMP JUMPDEST PUSH2 0x134A PUSH0 NOT DUP5 DUP5 PUSH2 0x1282 JUMP JUMPDEST DUP1 PUSH0 NOT DIV DUP3 GT ISZERO PUSH2 0x135D JUMPI PUSH2 0x135D PUSH2 0x1212 JUMP JUMPDEST MUL SWAP4 SWAP3 POP POP POP JUMP JUMPDEST PUSH0 PUSH2 0xAE3 DUP4 DUP4 PUSH2 0x12C5 JUMP INVALID PUSH4 0x6F6E7374 KECCAK256 PUSH4 0x69747920 RETURNDATASIZE KECCAK256 PUSH2 0x7267 PUSH20 0x5B305D3B636F6E737420617069526573706F6E73 PUSH6 0x203D20617761 PUSH10 0x742046756E6374696F6E PUSH20 0x2E6D616B654874747052657175657374287B7572 PUSH13 0x3A206068747470733A2F2F7774 PUSH21 0x722E696E2F247B636974797D3F666F726D61743D33 0x26 PUSH14 0x602C726573706F6E736554797065 GASPRICE KECCAK256 0x27 PUSH21 0x657874277D293B69662028617069526573706F6E73 PUSH6 0x2E6572726F72 0x29 KECCAK256 PUSH28 0x7468726F77204572726F72282752657175657374206661696C656427 0x29 EXTCODESIZE PUSH30 0x636F6E7374207B2064617461207D203D20617069526573706F6E73653B72 PUSH6 0x7475726E2046 PUSH22 0x6E6374696F6E732E656E636F6465537472696E672864 PUSH2 0x7461 0x29 EXTCODESIZE LOG2 PUSH5 0x6970667358 0x22 SLT KECCAK256 0xAF BYTE PUSH3 0xD82E07 PUSH32 0x477662D9A800CFEE5081167F534BF8095E67D91F1BD123B1BB64736F6C634300 ADDMOD 0x1E STOP CALLER "
		},
		"gasEstimates": {
			"creation": {
				"codeDepositCost": "1057800",
				"executionCost": "infinite",
				"totalCost": "infinite"
			},
			"external": {
				"SOURCE()": "infinite",
				"getTemperature(string,uint64)": "infinite",
				"handleOracleFulfillment(bytes32,bytes,bytes)": "infinite",
				"s_lastCity()": "infinite",
				"s_lastError()": "infinite",
				"s_lastRequestId()": "2316",
				"s_lastResponse()": "infinite",
				"s_lastTemperature()": "infinite",
				"s_requestedCity()": "infinite"
			},
			"internal": {
				"fulfillRequest(bytes32,bytes memory,bytes memory)": "infinite"
			}
		},
		"methodIdentifiers": {
			"SOURCE()": "f230b4c2",
			"getTemperature(string,uint64)": "f343f1e1",
			"handleOracleFulfillment(bytes32,bytes,bytes)": "0ca76175",
			"s_lastCity()": "0845284e",
			"s_lastError()": "4b0795a8",
			"s_lastRequestId()": "b1e21749",
			"s_lastResponse()": "3944ea3a",
			"s_lastTemperature()": "d50cbe98",
			"s_requestedCity()": "6e0e7c3b"
		}
	},
	"abi": [
		{
			"inputs": [],
			"stateMutability": "nonpayable",
			"type": "constructor"
		},
		{
			"inputs": [],
			"name": "EmptyArgs",
			"type": "error"
		},
		{
			"inputs": [],
			"name": "EmptySource",
			"type": "error"
		},
		{
			"inputs": [],
			"name": "NoInlineSecrets",
			"type": "error"
		},
		{
			"inputs": [],
			"name": "OnlyRouterCanFulfill",
			"type": "error"
		},
		{
			"inputs": [
				{
					"internalType": "bytes32",
					"name": "requestId",
					"type": "bytes32"
				}
			],
			"name": "UnexpectedRequestID",
			"type": "error"
		},
		{
			"anonymous": false,
			"inputs": [
				{
					"indexed": true,
					"internalType": "bytes32",
					"name": "id",
					"type": "bytes32"
				}
			],
			"name": "RequestFulfilled",
			"type": "event"
		},
		{
			"anonymous": false,
			"inputs": [
				{
					"indexed": true,
					"internalType": "bytes32",
					"name": "id",
					"type": "bytes32"
				}
			],
			"name": "RequestSent",
			"type": "event"
		},
		{
			"anonymous": false,
			"inputs": [
				{
					"indexed": true,
					"internalType": "bytes32",
					"name": "requestId",
					"type": "bytes32"
				},
				{
					"indexed": false,
					"internalType": "string",
					"name": "temperature",
					"type": "string"
				},
				{
					"indexed": false,
					"internalType": "bytes",
					"name": "response",
					"type": "bytes"
				},
				{
					"indexed": false,
					"internalType": "bytes",
					"name": "err",
					"type": "bytes"
				}
			],
			"name": "Response",
			"type": "event"
		},
		{
			"inputs": [],
			"name": "SOURCE",
			"outputs": [
				{
					"internalType": "string",
					"name": "",
					"type": "string"
				}
			],
			"stateMutability": "view",
			"type": "function"
		},
		{
			"inputs": [
				{
					"internalType": "string",
					"name": "city",
					"type": "string"
				},
				{
					"internalType": "uint64",
					"name": "subscriptionId",
					"type": "uint64"
				}
			],
			"name": "getTemperature",
			"outputs": [
				{
					"internalType": "bytes32",
					"name": "requestId",
					"type": "bytes32"
				}
			],
			"stateMutability": "nonpayable",
			"type": "function"
		},
		{
			"inputs": [
				{
					"internalType": "bytes32",
					"name": "requestId",
					"type": "bytes32"
				},
				{
					"internalType": "bytes",
					"name": "response",
					"type": "bytes"
				},
				{
					"internalType": "bytes",
					"name": "err",
					"type": "bytes"
				}
			],
			"name": "handleOracleFulfillment",
			"outputs": [],
			"stateMutability": "nonpayable",
			"type": "function"
		},
		{
			"inputs": [],
			"name": "s_lastCity",
			"outputs": [
				{
					"internalType": "string",
					"name": "",
					"type": "string"
				}
			],
			"stateMutability": "view",
			"type": "function"
		},
		{
			"inputs": [],
			"name": "s_lastError",
			"outputs": [
				{
					"internalType": "bytes",
					"name": "",
					"type": "bytes"
				}
			],
			"stateMutability": "view",
			"type": "function"
		},
		{
			"inputs": [],
			"name": "s_lastRequestId",
			"outputs": [
				{
					"internalType": "bytes32",
					"name": "",
					"type": "bytes32"
				}
			],
			"stateMutability": "view",
			"type": "function"
		},
		{
			"inputs": [],
			"name": "s_lastResponse",
			"outputs": [
				{
					"internalType": "bytes",
					"name": "",
					"type": "bytes"
				}
			],
			"stateMutability": "view",
			"type": "function"
		},
		{
			"inputs": [],
			"name": "s_lastTemperature",
			"outputs": [
				{
					"internalType": "string",
					"name": "",
					"type": "string"
				}
			],
			"stateMutability": "view",
			"type": "function"
		},
		{
			"inputs": [],
			"name": "s_requestedCity",
			"outputs": [
				{
					"internalType": "string",
					"name": "",
					"type": "string"
				}
			],
			"stateMutability": "view",
			"type": "function"
		}
	]
}